:020000040800F2
:1000000000000220D92A00086177000869770008FB
:100010008D770008957700089D77000800000000A4
:100020000000000000000000000000008D700008CB
:10003000452B000800000000A1700008DD730008D7
:10004000452B0008452B0008452B0008452B0008D0
:10005000452B0008452B0008E53500080936000847
:100060002D3600085136000875360008452B00086B
:100070007D4A0008452B0008A5490008452B0008CB
:10008000354A00085D490008452B0008452B00084B
:10009000452B0008452B0008452B00089936000821
:1000A000452B0008452B00088D750008452B0008DE
:1000B000452B0008452B0008452B0008452B000860
:1000C000452B0008452B0008452B0008452B000850
:1000D000452B0008854800089D480008B5480008E1
:1000E000F5360008452B0008452B0008452B000875
:1000F000452B0008452B0008452B0008452B000820
:10010000452B0008452B000899710008452B000875
:10011000CD480008E5480008452B0008452B00089D
:10012000452B0008452B0008452B0008452B0008EF
:10013000452B0008452B0008452B0008452B0008DF
:10014000452B0008452B0008452B0008452B0008CF
:10015000ED490008452B000815490008FD48000836
:10016000452B0008452B0008452B0008452B0008AF
:10017000452B0008452B0008452B0008452B00089F
:0C018000452B0008452B0008000000087B
:1001900081F0004102E000BF83F0004330B54FEA38
:1001A00041044FEA430594EA050F08BF90EA020FA5
:1001B0001FBF54EA000C55EA020C7FEA645C7FEA38
:1001C000655C00F0E2804FEA5454D4EB5555B8BF5B
:1001D0006D420CDD2C4480EA020281EA030382EACC
:1001E000000083EA010180EA020281EA0303362D5E
:1001F00088BF30BD11F0004F4FEA01314FF4801C31
:100200004CEA113102D0404261EB410113F0004F42
:100210004FEA03334CEA133302D0524263EB4303F9
:1002200094EA050F00F0A780A4F10104D5F1200E97
:100230000DDB02FA0EFC22FA05F2801841F10001F2
:1002400003FA0EF2801843FA05F359410EE0A5F1C6
:1002500020050EF1200E012A03FA0EFC28BF4CF0F7
:10026000020C43FA05F3C01851EBE37101F00045AD
:1002700007D54FF0000EDCF1000C7EEB00006EEBBA
:100280000101B1F5801F1BD3B1F5001F0CD3490844
:100290005FEA30004FEA3C0C04F101044FEA44529B
:1002A00012F5800F80F09A80BCF1004F08BF5FEA22
:1002B000500C50F1000041EB045141EA050130BD02
:1002C0005FEA4C0C404141EB010111F4801FA4F1A5
:1002D0000104E9D191F0000F04BF01460020B1FAFA
:1002E00081F308BF2033A3F10B03B3F120020CDA32
:1002F0000C3208DD02F1140CC2F10C0201FA0CF010
:1003000021FA02F10CE002F11402D8BFC2F1200C74
:1003100001FA02F120FA0CFCDCBF41EA0C0190402A
:10032000E41AA2BF01EB0451294330BD6FEA040473
:100330001F3C1CDA0C340EDC04F11404C4F120025E
:1003400020FA04F001FA02F340EA030021FA04F370
:1003500045EA030130BDC4F10C04C4F1200220FAC7
:1003600002F001FA04F340EA0300294630BD21FA05
:1003700004F0294630BD94F0000F83F4801306BFCB
:1003800081F480110134013D4EE77FEA645C18BFBF
:100390007FEA655C29D094EA050F08BF90EA020F56
:1003A00005D054EA000C04BF1946104630BD91EA4E
:1003B000030F1EBF0021002030BD5FEA545C05D151
:1003C0004000494128BF41F0004130BD14F5800490
:1003D0003CBF01F5801130BD01F0004545F0FE4104
:1003E00041F470014FF0000030BD7FEA645C1ABF39
:1003F000194610467FEA655C1CBF0B46024650EA70
:10040000013406BF52EA033591EA030F41F400219B
:1004100030BD00BF90F0000F04BF0021704730B521
:100420004FF4806404F132044FF000054FF00001F6
:1004300050E700BF90F0000F04BF0021704730B5B7
:100440004FF4806404F1320410F0004548BF40428C
:100450004FF000013EE700BF42004FEAE2014FEAE1
:1004600031014FEA02701FBF12F07F4393F07F4FBC
:1004700081F06051704792F0000F14BF93F07F4FEE
:10048000704730B54FF4607401F0004521F0004131
:1004900020E700BF50EA010208BF704730B54FF0B7
:1004A00000050AE050EA010208BF704730B511F0BC
:1004B000004502D5404261EB41014FF4806404F1F4
:1004C00032045FEA915C3FF4DCAE4FF003025FEA76
:1004D000DC0C18BF03325FEADC0C18BF033202EBFE
:1004E000DC02C2F1200300FA03FC20FA02F001FA58
:1004F00003FE40EA0E0021FA02F11444C1E600BFF7
:1005000070B54FF0FF0C4CF4E06C1CEA11541DBFA9
:100510001CEA135594EA0C0F95EA0C0F00F0DEF874
:100520002C4481EA030621EA4C5123EA4C5350EA59
:10053000013518BF52EA033541F4801143F48013AA
:1005400038D0A0FB02CE4FF00005E1FB02E506F03B
:100550000042E0FB03E54FF00006E1FB03569CF090
:10056000000F18BF4EF0010EA4F1FF04B6F5007F96
:1005700064F5407404D25FEA4E0E6D4146EB060608
:1005800042EAC62141EA55514FEAC52040EA5E5091
:100590004FEACE2EB4F1FD0C88BFBCF5E06F1ED83B
:1005A000BEF1004F08BF5FEA500E50F1000041EB72
:1005B000045170BD06F0004646EA010140EA02001F
:1005C00081EA0301B4EB5C04C2BFD4EB0C0541EA41
:1005D000045170BD41F480114FF0000E013C00F356
:1005E000AB8014F1360FDEBF002001F0004170BD7A
:1005F000C4F10004203C35DA0C341BDC04F1140493
:10060000C4F1200500FA05F320FA04F001FA05F21E
:1006100040EA020001F0004221F0004110EBD370EB
:1006200021FA04F642EB06015EEA430E08BF20EA17
:10063000D37070BDC4F10C04C4F1200500FA04F3BA
:1006400020FA05F001FA04F240EA020001F000414C
:1006500010EBD37041F100015EEA430E08BF20EABF
:10066000D37070BDC4F1200500FA05F24EEA020E07
:1006700020FA04F301FA05F243EA020321FA04F036
:1006800001F0004121FA04F220EA020000EBD370ED
:100690005EEA430E08BF20EAD37070BD94F0000FED
:1006A0000FD101F00046400041EB010111F4801F21
:1006B00008BF013CF7D041EA060195F0000F18BFD2
:1006C000704703F00046520043EB030313F4801F0E
:1006D00008BF013DF7D043EA0603704794EA0C0FC8
:1006E0000CEA135518BF95EA0C0F0CD050EA4106DE
:1006F00018BF52EA4306D1D181EA030101F000415B
:100700004FF0000070BD50EA410606BF1046194682
:1007100052EA430619D094EA0C0F02D150EA01368E
:1007200013D195EA0C0F05D152EA03361CBF1046CF
:1007300019460AD181EA030101F0004141F0FE416E
:1007400041F470014FF0000070BD41F0FE4141F4F2
:10075000780170BD70B54FF0FF0C4CF4E06C1CEAF2
:1007600011541DBF1CEA135594EA0C0F95EA0C0FA7
:1007700000F0A7F8A4EB050481EA030E52EA033562
:100780004FEA013100F088804FEA03334FF0805583
:1007900045EA131343EA12634FEA022245EA1115B0
:1007A00045EA10654FEA00260EF000419D4208BF61
:1007B000964244F1FD0404F5407402D25B084FEA0E
:1007C0003202B61A65EB03055B084FEA32024FF4BA
:1007D00080104FF4002CB6EB020E75EB030E22BF17
:1007E000B61A754640EA0C005B084FEA3202B6EBD7
:1007F000020E75EB030E22BFB61A754640EA5C0086
:100800005B084FEA3202B6EB020E75EB030E22BF15
:10081000B61A754640EA9C005B084FEA3202B6EB16
:10082000020E75EB030E22BFB61A754640EADC00D5
:1008300055EA060E18D04FEA051545EA16754FEA37
:1008400006164FEAC30343EA52734FEAC2025FEA55
:100850001C1CC0D111F4801F0BD141EA00014FF0E4
:1008600000004FF0004CB6E711F4801F04BF0143B5
:100870000020B4F1FD0C88BFBCF5E06F3FF6AFAED1
:10088000B5EB030C04BFB6EB020C5FEA500C50F161
:10089000000041EB045170BD0EF0004E4EEA1131E4
:1008A00014EB5C04C2BFD4EB0C0541EA045170BDEB
:1008B00041F480114FF0000E013C90E645EA060E2F
:1008C0008DE60CEA135594EA0C0F08BF95EA0C0F5D
:1008D0003FF43BAF94EA0C0F0AD150EA01347FF4A5
:1008E00034AF95EA0C0F7FF425AF104619462CE77C
:1008F00095EA0C0F06D152EA03353FF4FDAE1046DF
:10090000194622E750EA410618BF52EA43067FF42F
:10091000C5AE50EA41047FF40DAF52EA43057FF4BF
:10092000EBAE12E74FF0FF3C06E000BF4FF0010CCA
:1009300002E000BF4FF0010C4DF804CD4FEA410C2E
:100940007FEA6C5C4FEA430C18BF7FEA6C5C1BD0FB
:1009500001B050EA410C0CBF52EA430C91EA030F7C
:1009600002BF90EA020F0020704710F1000F91EAD9
:10097000030F58BF994208BF90422CBFD8176FEAA7
:10098000E37040F0010070474FEA410C7FEA6C5C75
:1009900002D150EA013C07D14FEA430C7FEA6C5C7C
:1009A000D6D152EA033CD3D05DF8040B704700BFA8
:1009B0008446104662468C461946634600E000BFF6
:1009C00001B5FFF7B7FF002848BF10F1000F01BDC8
:1009D0004DF808EDFFF7F4FF0CBF012000205DF893
:1009E00008FB00BF4DF808EDFFF7EAFF34BF012018
:1009F00000205DF808FB00BF4DF808EDFFF7E0FFB1
:100A000094BF012000205DF808FB00BF4DF808ED01
:100A1000FFF7CEFF94BF012000205DF808FB00BF68
:100A20004DF808EDFFF7C4FF34BF012000205DF84A
:100A300008FB00BF4FEA410212F5001215D211D592
:100A40006FF47873B3EB625212D94FEAC12343F0CB
:100A5000004343EA505311F0004F23FA02F018BF4D
:100A6000404270474FF00000704750EA013005D116
:100A700011F0004008BF6FF0004070474FF00000D9
:100A8000704700BF4A0011D212F5001211D20DD5E5
:100A90006FF47873B3EB62520ED44FEAC12343F084
:100AA000004343EA505323FA02F070474FF000002E
:100AB000704750EA013002D14FF0FF3070474FF0DD
:100AC0000000704773B96AB9002908BF0028BCBF8D
:100AD00000204FF00041C4BF6FF000414FF0FF30E5
:100AE00000F08CB882B0EC462DE9005000F056F8CA
:100AF000DDF804E002B00CBC704700BF4BB942B94E
:100B0000002908BF002802D04FF0FF31084600F04E
:100B100075B882B0EC462DE9005000F057F8DDF8CA
:100B200004E002B00CBC704738B500220023044634
:100B30000D46FFF757FF28B920462946BDE8384043
:100B400000F00AB8204605F1004100F005F84042E7
:100B500061EB410138BD00BF70B500220D4B04466A
:100B60000D46FFF7CDFCFFF78DFF0646FFF752FC61
:100B70000022094BFFF7C4FC02460B4620462946DB
:100B8000FFF70AFBFFF77EFF002242EA000420463F
:100B9000314670BD0000F03D0000F0412DE970438A
:100BA000069E14461D468046894600F029F804FB3F
:100BB00001F300FB0533A4FB00451D44B8EB04041E
:100BC00069EB0505C6E90045BDE870832DE9704372
:100BD000069E1446804689461D4600F05DF900FBDE
:100BE00005F504FB0153A0FB04451D44B8EB0404C8
:100BF00069EB0505C6E90045BDE87083704700BF95
:100C000000292DE9F00FC0F29F800024002BC0F2D4
:100C10009680154606460F46002B3ED18A4257D98C
:100C2000B2FA82F34BB1C3F1200201FA03F720FAC2
:100C300002F29D40174300FA03F6290CB7FBF1F2CC
:100C4000330C01FB127CA8B243EA0C4700FB02F311
:100C5000BB4209D97F1902F1FF3C80F00181BB4200
:100C600040F2FE80023A2F44FF1AB7FBF1F3B6B20E
:100C700001FB137146EA014100FB03F0884208D9E9
:100C8000491903F1FF3780F0ED80884240F2EA8095
:100C9000023B43EA0242002303E08B420AD90023CD
:100CA0001A461046194614B1404261EB4101BDE8B5
:100CB000F00F7047B3FA83F8B8F1000F40F084806A
:100CC0008B4202D3824200F2DE8000230122E8E759
:100CD00012B90123B3FBF2F5B5FA85F2002A39D136
:100CE0007F1B280C1FFA85FC0123B7FBF0F1320CA7
:100CF00000FB117742EA07470CFB01F2BA4207D921
:100D00007F1901F1FF3802D2BA4200F2C180414698
:100D1000BF1AB7FBF0F2B6B200FB127046EA004011
:100D20000CFB02FC844507D9401902F1FF3702D2BF
:100D3000844500F2AB803A4642EA0142B1E7E4431F
:100D4000524263EB430364E7404261EB41014FF0E1
:100D5000FF345BE79540C2F1200327FA03F1280C2A
:100D600026FA03F39740B1FBF0F81F433B0C00FB5E
:100D700018111FFA85FC43EA01410CFB08F38B4272
:100D800006FA02F608D9491908F1FF3279D28B42E6
:100D900077D9A8F102082944C91AB1FBF0F3BFB210
:100DA00000FB131147EA01470CFB03F2BA4207D9D3
:100DB0007F1903F1FF3160D2BA425ED9023B2F4462
:100DC000BF1A43EA084390E7C8F1200203FA08FC7F
:100DD00025FA02F343EA0C0C4FEA1C4921FA02F30C
:100DE00001FA08F720FA02F2B3FBF9F1174309FB05
:100DF00011333A0C1FFA8CFB42EA03430BFB01FA56
:100E00009A4505FA08F008D913EB0C0301F1FF32FB
:100E100035D29A4533D902396344CAEB0303B3FB95
:100E2000F9F209FB1233BFB247EA03470BFB02F9A1
:100E3000B94508D917EB0C0702F1FF331BD2B945AE
:100E400019D9023A674442EA0145A5FB0001C9EB02
:100E500007078F424FF000030AD305D02A4620E748
:100E6000624601E73B4614E706FA08F68642F5D2E9
:100E70006A1E002315E71A46E5E70B46A0E7114670
:100E8000CBE7904688E7434642460AE7023A53E7F3
:100E900002392F443CE700BF2DE9F00F1446054608
:100EA0000E46002B43D18A4253D9B2FA82F757B18A
:100EB000C7F1200620FA06F601FA07F302FA07F452
:100EC0001E4300FA07F5210CB6FBF1F22B0C01FBD7
:100ED0001267A0B243EA074600FB02F3B34209D906
:100EE000361902F1FF3780F0F680B34240F2F3800A
:100EF000023A2644F61AB6FBF1F3ADB201FB1361D8
:100F000045EA014100FB03F0884208D9091903F1C1
:100F1000FF3680F0E280884240F2DF80023B43EA05
:100F20000242002310461946BDE8F00F70478B427D
:100F30004AD8B3FA83F6002E4DD18B4202D38242B7
:100F400000F2D6800023012210461946BDE8F00FBA
:100F5000704712B90124B4FBF2F4B4FA84F2002A07
:100F60007CD1091B260CA7B20123B1FBF6F02A0C99
:100F700006FB101142EA014107FB00F28A4207D941
:100F8000091900F1FF3C02D28A4200F2C380604698
:100F9000891AB1FBF6F2ADB206FB121145EA014522
:100FA00007FB02F7AF4208D92C1902F1FF3180F09C
:100FB0009680A74240F29380023A42EA00421046ED
:100FC0001946BDE8F00F704700231A46104619462F
:100FD000BDE8F00F7047C6F1200522FA05F4B340D2
:100FE0001C434FEA144821FA05F301FA06F720FAE8
:100FF00005F5B3FBF8FC2F4308FB1C333D0C1FFA2F
:1010000084FA45EA03430AFB0CF9994502FA06FB08
:1010100004D91B190CF1FF326DD39446C9EB0303BD
:10102000B3FBF8F508FB1533BFB247EA03470AFBE9
:1010300005F8B84504D93F1905F1FF3361D31D46C2
:1010400045EA0C4CACFB0B23C8EB07079F424FF063
:10105000000549D345D062462B4663E79440C2F170
:10106000200321FA03FC260C20FA03F301FA02F50F
:10107000BCFBF6F843EA05010B0C06FB18CCA7B243
:1010800043EA0C4C07FB08F3634500FA02F509D963
:101090001CEB040C08F1FF323AD2634538D9A8F1B1
:1010A0000208A444C3EB0C0CBCFBF6F389B206FBAC
:1010B00013CC41EA0C4107FB03F28A4207D9091914
:1010C00003F1FF3022D28A4220D9023B2144891AFF
:1010D00043EA084349E73A460CE733461FE70A4626
:1010E0006BE7B0409042B6D20CF1FF32002319E713
:1010F0003346324616E799458FD9ACF1020C2344AA
:101100008CE7B8459BD9023D274499E70346DEE7C3
:101110009046C7E7023821443AE700BF80B582B065
:1011200000AF78607B680A4A1A600A4800F046FD02
:101130007B680433184600F0C1FD0023002B02D069
:10114000786800F033FE7B6818460837BD4680BDDE
:1011500048D90008A8D0000880B582B000AF7860F8
:101160007868FFF7DBFF786800F020FE7B681846A0
:101170000837BD4680BD00BF80B582B000AF786043
:101180007B680A4A1A600A4800F018FD7B6804333D
:10119000184600F093FD0023002B02D0786800F081
:1011A00005FE7B6818460837BD4680BD90D900080B
:1011B000B8D0000880B582B000AF78607868FFF7DB
:1011C000DBFF786800F0F2FD7B6818460837BD4603
:1011D00080BD00BF80B582B000AF78607B68064AF2
:1011E0001A600023002B02D0786800F0DFFD7B68D6
:1011F00018460837BD4680BD30D9000880B582B09A
:1012000000AF78607868FFF7E5FF786800F0CEFD02
:101210007B6818460837BD4680BD00BF80B584B0E6
:1012200000AFF860B9607A603B60044800F0C6FC2B
:10123000002318461037BD4680BD00BFCCD0000843
:1012400080B582B000AF786039607B681846396835
:1012500064224FF4FA6306F03FFE7B68034A1A608B
:101260007B6818460837BD4680BD00BFF0D800082F
:1012700080B582B000AF78600648012101220023CA
:1012800001F05AFF04484FF4612103F01BFC0837BA
:10129000BD4680BDEC0800200809002000000000C9
:1012A00080B5A8B000AF786007F13C031A48194632
:1012B00000F050F9194802F091F80346DB43174853
:1012C000194602F03FF807F1080207F13C03104607
:1012D00013491A4608F060FA07F10803184600F0AF
:1012E000FBFC034607F108020E4811461A4603F0BC
:1012F000C1FD00F03FFE06A3D3E90023121843EB23
:10130000010310461946002206F036FFCCE700BF65
:1013100000CA9A3B0000000048090020EC080020A9
:1013200054D100080809002080B582B000AF786071
:1013300039607B681846396864224FF4FA6306F016
:10134000CBFD7B68074A1A607B68074AB633128870
:101350001A807B68292283F8B8207B6818460837F2
:10136000BD4680BDD8D8000864D1000880B582B0E1
:1013700000AF78600C4801210122012301F0DCFE5E
:101380000A4801210122012301F0D6FE084801216B
:101390000122012301F0D0FE06480749002202F095
:1013A0000BFC0837BD4680BD180B0020340B002015
:1013B000500B00206C0B002040420F00000000008A
:1013C00080B584B002AF78607B6893F8B63003F0E4
:1013D0003F03DAB27B6883F8B6202948002101F088
:1013E000B1FF7B68B63327481946022202F06EFE31
:1013F0002348012101F0A6FF7B6893F8B83063F021
:101400003F03DAB27B6883F8B8201D48002101F061
:1014100099FF7B6803F1B8027B6850330221009189
:1014200018481146012202F0E7FE1548012101F09B
:1014300089FF7B6803F152027B6893F851301046B4
:1014400011491A4608F0A8F97B6852330F4819462B
:10145000012200F0ABF800F08DFD07A3D3E90023D3
:10146000121843EB010310461946002206F084FED1
:10147000AAE700BFAFF300800065CD1D00000000AB
:10148000180B00206C0B002068D1000824090020F4
:1014900080B584B000AFF860B9607A60FB68184628
:1014A000B96864227B6800F0D1FDFB68034A1A60CA
:1014B000FB6818461037BD4680BD00BF20D9000824
:1014C00080B483B000AF78607B68044A1A607B68A0
:1014D00018460C37BD465DF8047B704730D90008CC
:1014E00080B582B000AF78607B681846FFF7E8FFF0
:1014F0007B68174A1A607B681A1D7B68C3F8302125
:101500007B6803F168027B68C3F834217B6803F1D0
:10151000CC027B68C3F838217B68002283F83C2129
:101520007B6803F5A4714FF000024FF00003C1E99E
:1015300000237B6803F5A473D3E90023796801F5E0
:10154000A071C1E900237B6818460837BD4680BDFD
:1015500008D9000880B584B000AF786039607B6836
:10156000012283F83C217B68D3F83431FB603A6870
:10157000FB6811461A466423084611461A4600F0D5
:10158000EBFB7B68002283F83C217B6803F5A473A6
:10159000D3E90023013243F10003796801F5A47116
:1015A000C1E900231037BD4680BD00BF80B584B0BF
:1015B00000AFF860B9601346FB71FA68FB7910461A
:1015C000B9681A46002300F0B1FD034618461037EB
:1015D000BD4680BD80B582B000AF78607B68084AA8
:1015E0001A607B68184606F0E5FC0023002B02D049
:1015F000786800F0DBFB7B6818460837BD4680BD85
:10160000D8D8000880B582B000AF78607868FFF75E
:10161000E1FF786800F0CAFB7B6818460837BD46D2
:1016200080BD00BF80B582B000AF78607B68084A9B
:101630001A607B68184606F0BDFC0023002B02D020
:10164000786800F0B3FB7B6818460837BD4680BD5C
:10165000F0D8000880B582B000AF78607868FFF7F6
:10166000E1FF786800F0A2FB7B6818460837BD46AA
:1016700080BD00BF80B582B000AF78607B68084A4B
:101680001A607B681846FFF7A5FD0023002B02D0E7
:10169000786800F08BFB7B6818460837BD4680BD34
:1016A00008D9000880B582B000AF78607868FFF78D
:1016B000E1FF786800F07AFB7B6818460837BD4682
:1016C00080BD00BF80B584B002AF786039607B68B0
:1016D000012B59D13A684FF6FF739A4254D12C48E6
:1016E0002C4940F2D17200F039F929482A492B4A95
:1016F00008F04CF82A483C2101F0EAFC2948022174
:1017000002F0F2FF28484FF0FF31284AFFF7C0FEF1
:1017100025482749214A08F039F82648FFF7E0FE16
:10172000244825491D4A08F031F800230093234836
:101730001D49204A224B00F043FB20482149174A0B
:1017400008F024F820482149FFF77AFD1E48204977
:10175000124A08F01BF81F48122101F0B9FC1E487C
:10176000202101F0B5FC1D48372101F0B1FC1C48D7
:10177000012102F0E9F91B481B49FFF7D5FD194883
:101780001A49064A08F002F80837BD4680BD00BF76
:10179000D008002080D100089D1900087C0D002091
:1017A000EC08002008090020240900208CD1000842
:1017B000251800084809002075160008980A00201E
:1017C00098D1000879110008C80A0020ACD100089F
:1017D00025160008180B0020340B0020500B0020A9
:1017E0006C0B0020880B0020B8D10008D51500082C
:1017F00080B584B000AFF860B9607A603B607B6808
:10180000642B04D9064800F0D9F9002304E0F868F5
:10181000396800F035F8012318461037BD4680BD01
:10182000C4D1000880B582B000AF78607B680A4AF6
:101830001A600A4800F0C2F97B681846FFF76EFC90
:101840000023002B02D0786800F0B0FA7B681846BD
:101850000837BD4680BD00BF20D90008D8D1000898
:1018600080B582B000AF78607868FFF7DBFF7868FA
:1018700000F09CFA7B6818460837BD4680BD00BF63
:1018800080B584B000AF786039607B68D3F83021D0
:101890003B6811461A466423084611461A4600F072
:1018A0005BFA7B68D3F83431FB607B68D3F8302176
:1018B0007B68C3F834217B68FA68C3F830217B6801
:1018C00093F83C31DBB2002B0DD07B68D3F830317C
:1018D000FB607B68D3F838217B68C3F830217B68D4
:1018E000FA68C3F838217B6803F5A073D3E90023B5
:1018F000013243F10003796801F5A071C1E90023C9
:101900001037BD4680BD00BF80B500AF01204FF647
:10191000FF71FFF7D7FE80BD80B483B000AF786061
:101920007B681B6818460C37BD465DF8047B704722
:1019300080B483B000AF78607B685B6818460C3772
:10194000BD465DF8047B704780B483B000AF78601B
:101950000C37BD465DF8047B704700BF80B584B08E
:1019600000AFF860B9607A60FB6804331846094933
:10197000BA68002300F05AF9FB68074A1A60FB684E
:101980007A685A61FB6801221A76FB68184610379C
:10199000BD4680BD480C002058D9000880B582B0F3
:1019A00000AF78607B680A4A1A600A4800F006F9BE
:1019B0007B680433184600F081F90023002B02D025
:1019C000786800F0F3F97B6818460837BD4680BD9B
:1019D00058D90008E8D1000880B582B000AF78601F
:1019E0007868FFF7DBFF786800F0E0F97B6818465D
:1019F0000837BD4680BD00BF80B483B000AF7860BB
:101A00007B6801221A760C37BD465DF8047B70476F
:101A100080B483B000AF78607B6800221A760C3700
:101A2000BD465DF8047B704780B485B000AFF860B8
:101A3000B9607A603B604FF0FF3318461437BD46FB
:101A40005DF8047B704700BF90B583B000AF154BC5
:101A50001B68002B03D0134B1B68043B00E00023E2
:101A60007B6018E07B685C697B6804331846FFF78D
:101A70005FFF03460C4821461A4600F059F87B6880
:101A800004331846FFF748FF0346002B01D0043B00
:101A900000E000237B607B68002BE3D10C37BD4660
:101AA00090BD00BF480C0020FCD1000880B582B07A
:101AB00000AF78607B68064A1A600023002B02D0D2
:101AC000786800F073F97B6818460837BD4680BD1A
:101AD00078D9000880B582B000AF78607868FFF7E9
:101AE000E5FF786800F062F97B6818460837BD4664
:101AF00080BD00BF80B582B000AF78600B46FB7040
:101B000097F90330184605F097FE0837BD4680BDAB
:101B100080B483B000AF78607B68044A1A607B6849
:101B200018460C37BD465DF8047B704778D900082D
:101B30000FB480B582B000AF1C4B1B68002B2FD0B8
:101B40003B461846FFF7E4FF07F114037B60184B90
:101B50001B68002B05D0164B1B681648194600F071
:101B600069FF06F0BFF8034683F00103DBB2002BE8
:101B700005D03B461846396900F0EAFC0AE00E48F9
:101B800006F0FEF83B461846396900F0E1FC0A48C9
:101B900006F054F905F092FE3B461846FFF786FF23
:101BA0000837BD46BDE8804004B0704704000020FF
:101BB0004C0C002018D20008500C002080B582B0D8
:101BC00000AF7860074B7A681A6007487968FFF7BA
:101BD000AFFF064B1B685A1C044B1A600837BD4602
:101BE00080BD00BF000000202CD200084C0C00205B
:101BF00080B582B000AF786039607B68012B07D177
:101C00003A684FF6FF739A4202D1034806F0A0F8F3
:101C10000837BD4680BD00BF500C002080B500AF26
:101C200001204FF6FF71FFF7E3FF80BD80B584B060
:101C300000AFF860B9607A603B60FB683A68DA60D0
:101C4000FB687A685A60084B1B68591C064A116089
:101C5000FA689360F868B96800F008F8FB681846FD
:101C60001037BD4680BD00BF600C002080B582B03B
:101C700000AF786039603B681A687B681A603B681F
:101C80007A681A600A4B1B68002B0CBF00230123E3
:101C9000DBB2002B08D00748FFF790FF7B685B683A
:101CA00005481946FFF744FF0837BD4680BD00BF11
:101CB000301F002058D200088CD2000880B582B0B6
:101CC00000AF78600348FFF779FF7B681846083754
:101CD000BD4680BDB0D2000880B485B000AF78604A
:101CE0000023FB607B68002B01D100230BE005E0A3
:101CF000FB680133FB607B6801337B607B681B788A
:101D0000002BF5D1FB6818461437BD465DF8047BFF
:101D1000704700BF80B487B000AFF860B9607A60E8
:101D2000FB68002B01D1FB6810E0FB687B6109E0D8
:101D3000BB68DAB27B691A707B6901337B617B68AF
:101D4000013B7B607B68002BF2D1FB6818461C3797
:101D5000BD465DF8047B704780B487B000AFF86083
:101D6000B9607A60FB687B61BB683B617B69002B73
:101D700002D03B69002B01D1002311E00CE03B694C
:101D80001A787B691A707B68013B7B603B69013381
:101D90003B617B6901337B617B68002BEFD1FB6882
:101DA00018461C37BD465DF8047B704780B483B08D
:101DB00000AF78600C37BD465DF8047B704700BF0C
:101DC00080B584B000AFF860B9607A603B60FB68B2
:101DD000043318461049114A0023FFF727FFFB6818
:101DE0000F4A1A60FB68BA685A61FB6820331846CC
:101DF00005F0AEFFFB683A7E1A77FB6801225A773E
:101E0000FB683A689A60FB687A689A61FB681846D2
:101E10001037BD4680BD00BFF81F0020D8D2000893
:101E200090D9000880B485B000AFF860B9607A60DE
:101E30003B60034B18461437BD465DF8047B704782
:101E400015CD5B0790B587B002AFF860B9607A60D6
:101E50003B60FB685B7F83F00103DBB2002B01D0AA
:101E600000233DE0FB682033184605F089FFFB683E
:101E70009B69002B0FD0FB689B691B6808331C68AB
:101E8000FB689A697B68396A00911046B9681A46FE
:101E90003B68A04718E0FB681B681C683B6A5B69ED
:101EA0000093F868B9687A683B68A04702460E4B11
:101EB0009A420CBF00230123DBB2002B04D00B4855
:101EC000FFF77CFE01230BE0FB682033184605F08A
:101ED000B5FFFB689B69002B01D0012300E00023C4
:101EE00018461437BD4690BD15CD5B07E4D20008F7
:101EF00090B58DB002AFF860B9607A603B60FB6866
:101F00009B69002B0FD0FB689B691B6808331C681A
:101F1000FB689A693B6807F1100100911046B968A7
:101F20001A467B68A0472C37BD4690BD80B483B06D
:101F300000AF786079684FF000024FF00003C1E90C
:101F4000002379684FF000024FF00003C1E902233B
:101F500079684FF000024FF00003C1E904237B6869
:101F600011229A617B6818460C37BD465DF8047BE8
:101F7000704700BF80B500AF05F07EFB02460B4600
:101F80001046194680BD00BF80B584B000AFC7E9D8
:101F90000201C7E90023D7E90223D7E906019042ED
:101FA00071EB030C02DAD7E902232CE0D7E9002316
:101FB00052EA030104D14FF0FF326FF0004322E0F8
:101FC000D7E90601D7E90223821A61EB0303104621
:101FD0001946D7E90023FEF775FD02460B4601328C
:101FE00043F10003396803FB01F0796802FB01F15A
:101FF00001443868A0FB022319440B46D7E90201CB
:10200000121843EB0103104619461037BD4680BD38
:1020100080B582B000AF786039607B68012B07D152
:102020003A684FF6FF739A4202D10348FFF77EFFEA
:102030000837BD4680BD00BF680C002080B500AFEA
:1020400001204FF6FF71FFF7E3FF80BD80B586B03A
:1020500000AFF860B9607A603B60FB6804331846F3
:102060002E493A680023FFF7E1FDFB682C4A1A600D
:10207000FB6800225A61FB68BA68DA61FB687A681B
:102080001A62FB6800229A61FB68DB69B3F1FF3FCB
:1020900011D1386806F03EFB03461A46FB68DA6148
:1020A000FB68DB69B3F57A7F05DAFB68DB6903F56A
:1020B0007A72FB68DA61194B1B68002B03D0174B4F
:1020C0001B68043B00E000237B611EE07B69DA694A
:1020D000BB689A420DD17A69FB689A4209D01148CF
:1020E000FFF76CFD7B699B680F48B9683A68FFF79A
:1020F0001FFD7B6904331846FFF70EFC0346002BD7
:1021000001D0043B00E000237B617B69002BDDD123
:10211000FB6818461837BD4680BD00BF0820002068
:1021200048D9000844D3000858D3000880B586B0C9
:1021300002AFF860B9603B601346FB71FB681B6A35
:102140001A46FB7939680091F868B96800F006F81A
:10215000034618461037BD4680BD00BF90B591B00C
:1021600002AFF860B9607A60FB7000237B63BB6CE0
:10217000002B12D100237B62FFF7FCFE02460B46C8
:10218000C7E9062306F0BAFB03463B6105F0CCFF26
:1021900003463B6207F11003BB64FB689B69002B9D
:1021A0000FD0FB689B691B681C68FB689969FB681A
:1021B000DA697B68B86C0090084611461A46BB681D
:1021C000A047FB685B69002B03D0FB685B69043B9D
:1021D00000E000233B6321E03B6B5B7F002B11D0D1
:1021E0003B6B1B6804331C68FB68DA697B68B96C5D
:1021F0000091386B11461A46BB68A04703467A6BBC
:1022000013447B633B6B04331846FFF785FB03469F
:10221000002B01D0043B00E000233B633B6B002B11
:10222000DAD1FB7883F00103DBB2002B01D07B6BAA
:102230002CE0184B5B69002B03D0164B5B69043B09
:1022400000E00023FB621DE0FB6A1B6804331C688E
:10225000FB68DA697B68B96C0091F86A11461A4626
:10226000BB68A04703467A6B13447B63FB6A043365
:102270001846FFF751FB0346002B01D0043B00E05A
:102280000023FB62FB6A002BDED17B6B18463C37D8
:10229000BD4690BDA40C002080B582B000AF786030
:1022A0007B680A4A1A600A48FFF788FC7B68184670
:1022B000FEF734FF0023002B02D07868FFF776FD8D
:1022C0007B6818460837BD4680BD00BFD0D90008DE
:1022D000D0D3000880B582B000AF78607868FFF78F
:1022E000DBFF7868FFF762FD7B6818460837BD465C
:1022F00080BD00BF80B584B000AFF860B9607A607F
:10230000FB681846B9680C227B68FFF79FFEFB68E4
:10231000034A1A60FB6818461037BD4680BD00BFEF
:10232000D0D9000880B584B000AFF860B9607A6099
:10233000FB681846B96840F22E527B68FFF786FEAC
:10234000FB68034A1A60FB6818461037BD4680BD1B
:10235000C0D9000880B584B000AFF860B9607A6079
:10236000FB681846B96804227B68FFF76FFEFB68BC
:10237000034A1A60FB6818461037BD4680BD00BF8F
:10238000B0D9000880B582B000AF786039607B6852
:10239000012B4FD13A684FF6FF739A424AD1274832
:1023A00027490A22FFF7DAFA24482649264A07F085
:1023B000EDF926480021264AFFF79CFF23482549CE
:1023C000214A07F0E3F924484FF0FF31234AFFF791
:1023D000A9FF214822491C4A07F0D8F921484FF0AB
:1023E000FF31214AFFF7B6FF1E482049164A07F081
:1023F000CDF91F484FF0FF311E4AFFF7ABFF1C48D5
:102400001A49114A07F0C2F91B484FF0FF311B4A25
:10241000FFF7A0FF184815490B4A07F0B7F918480D
:102420004FF0FF31174AFFF765FF15480949064A83
:1024300007F0ACF90837BD4680BD00BF880C00200E
:10244000E0D300089D1900087C0D0020A40C00209A
:10245000F4D3000899220008C80C002004D4000816
:10246000E5240008EC0C002010D4000889240008A2
:10247000100D002020D40008340D002030D40008B6
:10248000580D002044D4000880B582B000AF7860B9
:102490007B680A4A1A600A48FFF790FB7B68184677
:1024A000FEF73CFE0023002B02D07868FFF77EFC8D
:1024B0007B6818460837BD4680BD00BFB0D900080C
:1024C000D0D3000880B582B000AF78607868FFF79D
:1024D000DBFF7868FFF76AFC7B6818460837BD4663
:1024E00080BD00BF80B582B000AF78607B680A4ACB
:1024F0001A600A48FFF762FB7B681846FEF70EFE7B
:102500000023002B02D07868FFF750FC7B68184648
:102510000837BD4680BD00BFC0D90008D0D3000831
:1025200080B582B000AF78607868FFF7DBFF78682D
:10253000FFF73CFC7B6818460837BD4680BD00BFEE
:1025400080B500AF01204FF6FF71FFF71BFF80BD84
:1025500080B594B000AF7860396056E2002387F808
:102560004E30002387F84D30002387F84C3000238D
:1025700087F84B3097F84F30252B0AD07B681B68C3
:1025800008331B6897F84F2052B278681146984775
:102590003BE23B685A1C3A601B7887F84F300023B7
:1025A00087F84330202387F84230032387F84130EF
:1025B00097F84F30302B09D197F84F3087F84230D9
:1025C0003B685A1C3A601B7887F84F3097F84F30B9
:1025D0002F2B0ED997F84F30392B0AD897F84F3058
:1025E000303B87F843303B685A1C3A601B7887F8C9
:1025F0004F3097F84F302E2B10D13B685A1C3A6061
:102600001B7887F84F3097F84F30303B87F84130D0
:102610003B685A1C3A601B7887F84F3097F84F3068
:102620006C2B08D1012387F84D303B685A1C3A6067
:102630001B7887F84F3097F84F306C2B08D1012367
:1026400087F84C303B685A1C3A601B7887F84F304B
:1026500097F84F30623B162B38D801A151F823F080
:1026600059270008BD26000843270008CD2600088A
:102670003D270008CD260008CD260008CD260008FD
:10268000CD260008CD260008CD260008CD2600085E
:10269000CD26000827270008CD260008CD260008F3
:1026A000CD260008E3260008CD26000849270008AB
:1026B000CD260008CD260008512700087B685B68FE
:1026C000191D7A6851601B6887F84F307B681B685A
:1026D00008331B6897F84F2052B278681146984724
:1026E00093E17B685B68191D7A6851601B687B64A5
:1026F00009E07B681B6808331B6897F84F2052B2CB
:102700007868114698477B6C5A1C7A641B7887F866
:102710004F3097F84F30002B0CBF00230123DBB262
:10272000002BE6D171E10823A7F848307B681B68CD
:1027300008331B6878683021984711E0012387F837
:102740004B30012387F84E300A23A7F8483007E0C2
:102750001023A7F8483003E00223A7F8483000BF51
:102760004FF000024FF00003C7E90C234FF00002C6
:102770004FF00003C7E90A2397F84B30002B15D020
:102780007B685B68073323F0070303F108017A686D
:102790005160D3E90023C7E90A23D7E90A01FEF70C
:1027A000C3F902460B46C7E90C232CE097F84C30DE
:1027B000002B0DD07B685B68073323F0070303F120
:1027C00008017A685160D3E90023C7E90C231AE0B5
:1027D00097F84D30002B0BD07B685B68191D7A6829
:1027E00051601B681A464FEAE273C7E90C230AE0FE
:1027F0007B685B68191D7A6851601B681A464FEA4E
:10280000E273C7E90C2397F84E30002B2DD0D7E99F
:102810000C23002A73F100010ADBD7E90A014FF00B
:1028200000024FF00003FEF7DDF80346002B1CD03A
:10283000D7E90C23524263EB4303C7E90C23BB6A7D
:10284000BB62FB6A83F00043FB627B681B68083352
:102850001B6878682D21984797F84330002B04D0E7
:1028600097F84330013B87F8433097F84C30002B02
:1028700004D0D7E90C23C7E90E2310E097F84D30B8
:10288000002B06D03B6B1A464FF00003C7E90E231E
:1028900005E03B6B1A464FF00003C7E90E2307F132
:1028A0000C031A337B647B6C013B7B647B6C0022E2
:1028B0001A70B7F848204FF00003D7E90E01FEF771
:1028C0001DF9D3B23033DBB287F8273097F92730C0
:1028D000392B05DD97F827300733DBB287F827302F
:1028E0007B6C013B7B6497F827207B6C1A70B7F8F0
:1028F00048204FF00003D7E90E01FEF7FFF802462B
:102900000B46C7E90E2397F84330002B04D097F805
:102910004330013B87F84330D7E90E2352EA0301E5
:10292000C7D106E07B6C013B7B647B6C97F842204F
:102930001A7097F843305A1E87F84320002B0CBFBB
:1029400000230123DBB2002BECD109E07B681B687C
:1029500008331B6897F84F2052B2786811469847A1
:102960007B6C5A1C7A641B7887F84F3097F84F308D
:10297000002B0CBF00230123DBB2002BE6D197F81C
:102980004B30002B41D07B681B6808331B6878688C
:102990002E2198472DE0D7E90C01FDF783FD024673
:1029A0000B46D7E90A01FDF7F7FB02460B46C7E9DC
:1029B0000A23D7E90A014FF000021D4BFDF7A0FDE5
:1029C00002460B46C7E90A23D7E90A01FEF7ACF82D
:1029D00002460B46C7E90C237B681B6808331B685B
:1029E00097F830203032D2B2D2B252B27868114663
:1029F000984797F841305A1E87F84120002B0CBFAA
:102A000000230123DBB2002BC5D13B685A1C3A607E
:102A10001B7887F84F3097F84F30002B0CBF0023FE
:102A20000123DBB2002B7FF499AD5037BD4680BD4A
:102A3000000024400FB480B582B000AF0C4B1B687F
:102A4000002B0FD03B461846FFF762F807F114033E
:102A50007B603B4618463969FFF77AFD3B461846CE
:102A6000FFF724F80837BD46BDE8804004B0704742
:102A70000400002080B582B000AF0C4B7B6008E002
:102A80007B681B6898473B6801333B607B68043375
:102A90007B607A68064B9A42F2D13B6801333B6017
:102AA0003B68013B3B600837BD4680BDF4DC000855
:102AB00018DD000880B485B000AFF860B9607A60B6
:102AC000002318461437BD465DF8047B704700BFED
:102AD00080B400AFFEE700BF002100F004B8124B45
:102AE0005B58435004311148114B42189A42FFF48D
:102AF000F6AF104A00F003B8002342F8043B0E4B37
:102B00009A42FFF4F9AF0D4A00F003B8002342F8EF
:102B1000043B0B4B9A42FFF4F9AF04F0D5FEFFF7EC
:102B2000A9FF05F0FBFF704718DD0008000000203A
:102B3000CC080020D008002054C000200000001065
:102B40000000001004F02EFEFFF7FCBF80B483B03D
:102B500000AF786039603B6818460C37BD465DF8B9
:102B6000047B70470FB480B400AF00231846BD4605
:102B70005DF8047B04B070470FB480B400AF00234D
:102B80001846BD465DF8047B04B070470FB480B4AE
:102B900000AF00231846BD465DF8047B04B07047C3
:102BA0000FB480B400AF00231846BD465DF8047B27
:102BB00004B070470FB480B400AF00231846BD4680
:102BC0005DF8047B04B070470FB480B400AF0023FD
:102BD0001846BD465DF8047B04B0704780B483B0EE
:102BE00000AF7860012318460C37BD465DF8047BC2
:102BF000704700BF80B483B000AF786001231846EF
:102C00000C37BD465DF8047B704700BF80B483B0CD
:102C100000AF0346FB71084B97F907205209F97979
:102C200001F01F01012000FA01F143F822100C37D6
:102C3000BD465DF8047B704700E100E080B483B0DE
:102C400000AF0346FB71094B97F907205209F97948
:102C500001F01F01012000FA01F1603243F8221057
:102C60000C37BD465DF8047B704700BF00E100E013
:102C700080B500AF124B1B7883F00103DBB2002B51
:102C80001CD00F4B01221A704FF48040012103F039
:102C90005FFD0620FFF7BAFF0720FFF7B7FF082008
:102CA000FFF7B4FF0920FFF7B1FF0A20FFF7AEFFDF
:102CB0001720FFF7ABFF2820FFF7A8FF80BD00BF5C
:102CC000C00D002080B582B000AF786079807A7046
:102CD0003B707B687A881A807B687A781A727B6886
:102CE0003A785A72786800F023F8B7F9023018463B
:102CF00000F008F902467B685A617B680C3318467D
:102D000003F0A6FB7B685B891A467B68DA607B6808
:102D100002225A747B6800221A747B6800221A7699
:102D20007B6800225A767B6818460837BD4680BD0E
:102D300080B483B000AF78607B681B7A1A467B68EA
:102D40001B889BB203F00F031344102B0CDD7B6830
:102D50001B889BB203F00F034FF6FF7202FA03F3D6
:102D60009AB27B685A8117E07B681B7AC3F1100323
:102D70004FF6FF7242FA03F39AB27B685A817B687E
:102D80005B891A467B681B889BB203F00F0302FA2B
:102D900003F39AB27B685A810C37BD465DF8047B19
:102DA000704700BF80B582B000AF78607B680122B9
:102DB0005A767B685B681B6830331B687A68526898
:102DC000104698470A4A7B681B8819B2094B0B408A
:102DD000002B03DA013B63F00F0301339BB21BB2FC
:102DE000012101FA03F353610837BD4680BD00BFDE
:102DF000003C01400F00008080B485B000AF7860D7
:102E00000023FB6002E0FB680133FB607B685B082A
:102E10007B607B68002B0CBF00230123DBB2002BFF
:102E2000F1D1FB6818461437BD465DF8047B704746
:102E300080B483B000AF78607B68274A934234D077
:102E4000254A934213D8254A934228D0234A9342D5
:102E500006D8234A93421ED0224A93421DD033E023
:102E6000214A93421DD0214A93421CD02CE0204A93
:102E7000934220D01E4A934206D81E4A934216D04F
:102E80001D4A934215D01FE01C4A934216D01C4A9B
:102E9000934216D018E0012317E0022315E0042323
:102EA00013E0082311E010230FE020230DE040235E
:102EB0000BE0802309E04FF4807306E04FF40073C9
:102EC00003E04FF4806300E0002318460C37BD4652
:102ED0005DF8047B704700BF001402400008024008
:102EE0000000024000040240000C024000100240BA
:102EF0000020024000180240001C02400024024052
:102F00000028024080B483B000AF0346FB80B7F9CD
:102F100006300F2B01DC1C4B30E0B7F906301F2BBD
:102F200001DC1A4B2AE0B7F906302F2B01DC184BD5
:102F300024E0B7F906303F2B01DC164B1EE0B7F951
:102F400006304F2B01DC144B18E0B7F906305F2B2D
:102F500001DC124B12E0B7F906306F2B01DC104B8D
:102F60000CE0B7F906307F2B01DC0E4B06E0B7F919
:102F700006308B2B01DC0C4B00E0002318460C378D
:102F8000BD465DF8047B704700000240000402402B
:102F900000080240000C02400010024000140240F1
:102FA00000180240001C02400020024080B483B0A0
:102FB00000AF0346FB80FB8803F00F03012202FAF7
:102FC00003F39BB218460C37BD465DF8047B70478F
:102FD00080B586B000AF02460B46FA807B71B7F928
:102FE0000630002B03DBB7F906308B2B02DD4FF0E8
:102FF000FF3338E0B7F906301846FFF783FF7861F2
:10300000B7F906301846FFF7D1FF03467B8278698F
:10301000FFF70EFF03461846012103F05DFB7869B8
:10302000FFF706FF03461846002103F0AFFB7B8A3B
:103030001846FFF7E1FE03469AB27B79786911469C
:103040001A4603F049FA07F10803184603F000FA9C
:1030500002233B737B8ABB6007F10803786919463A
:1030600003F068F9002318461837BD4680BD00BF3D
:1030700080B584B000AF0346FB80B7F90630002B63
:1030800003DBB7F906308B2B02DD4FF0FF331AE07C
:1030900007F10803184603F0DBF900233B73B7F987
:1030A00006301846FFF782FF0346BB60B7F90630CB
:1030B0001846FFF727FF024607F108031046194696
:1030C00003F038F9002318461037BD4680BD00BF15
:1030D00090B583B000AF78600B467B807B68184664
:1030E00005F06AFB7B68134A1A601C2005F084FD1A
:1030F00002467B689A617B689B691C201946FFF732
:1031000025FD0446002C09D0B7F9023020461946A7
:1031100001220023FFF7D6FD234600E023467A680C
:1031200093617B689B697A685A607B6818460C37A4
:10313000BD4690BDE0D9000880B584B000AFF8600E
:103140007A603B600B46FB727B68002B04D0FB6807
:103150009B697A68D2B21A72FB689B69FA7A5A72D2
:10316000FB689B691846FFF7E3FDFB689B695B6999
:10317000002B02D14FF0FF3321E0FB689B695B69B4
:103180001846FFF755FE03461846012103F0A4FA3E
:10319000FB689B695B7A002B09D0F868002101224B
:1031A00000F012F8F868396800F0CCF804E0F8682C
:1031B0000021002200F008F8FFF75AFD002318460E
:1031C0001037BD4680BD00BF80B584B000AFF86049
:1031D0000B467A60FB72FB7A042B00F29B8001A203
:1031E00052F823F0F9310008393200088332000820
:1031F000BF320008FB3200087B68002B08D0FB6858
:103200009B6901225A72FB689B6901221A7407E0CC
:10321000FB689B6900225A72FB689B6900221A7442
:10322000FB689B695A69FB689B690C331046194619
:1032300003F080F800236FE07B68002B1ED07B68D2
:10324000FF2B1BD8FB689B697A68D2B21A72FB68A5
:103250009B691846FFF76CFDFB689B69FA689269E9
:103260005289DA60FB689B695A69FB689B690C3379
:103270001046194603F05EF800234DE04FF0FF338F
:103280004AE07B68002B17D07B68002B04D0FB68DA
:103290009B690122DA7403E0FB689B690022DA74FF
:1032A000FB689B695A69FB689B690C331046194699
:1032B00003F040F800232FE04FF0FF332CE07B6851
:1032C000002B17D07B68002B04D0FB689B6902227F
:1032D000DA7403E0FB689B690022DA74FB689B697F
:1032E0005A69FB689B690C331046194603F022F8B3
:1032F000002311E04FF0FF330EE07B68022B06D86D
:10330000FB689B697A68D2B21A76002304E04FF01A
:10331000FF3301E04FF0FF3318461037BD4680BD44
:1033200080B582B000AF78607868002100F09EF828
:103330007B689B691B881BB21846FFF799FE08370C
:10334000BD4680BD80B584B000AF78603960002391
:103350007B817B689B695B7A002B3CD040F2EB3031
:1033600005F0DCFC03460133FB6031E07B689B69C0
:103370005B69184603F094F803469AB27B689B6930
:103380005B899BB2DB439BB213409BB27B817B6822
:103390009B691B889BB203F00F033A6802FA03F3A0
:1033A0009AB27B689B695B8913409AB27B8913430D
:1033B0007B817B689B695A697B891046194603F0BB
:1033C0007DF8FB68013B184605F0A8FC0023FB6074
:1033D000FB68002BCAD11037BD4680BD80B582B0D6
:1033E00000AF78607B689B695B7A002B16D07B68A6
:1033F0009B695B69184603F053F803461A467B68DD
:103400009B695B8913409BB21A467B689B691B884A
:103410009BB203F00F0342FA03F315E07B689B694C
:103420005B69184603F02EF803461A467B689B69D1
:103430005B8913409BB21A467B689B691B889BB2D1
:1034400003F00F0342FA03F318460837BD4680BD68
:1034500080B483B000AF78607B689B695B7E184660
:103460000C37BD465DF8047B704700BF80B586B061
:1034700000AF78600B46FB707B689B691B881BB2B2
:10348000002B00DA0F331B119BB21BB27B617B68F0
:103490009B691B881AB24E4B1340002B03DA013B89
:1034A00063F00F0301339BB21BB23B613B69FB60CE
:1034B000FB78002B5DD0474BFA6853F822207B68DD
:1034C0009B699A4200D17FE0424BFA6853F8223060
:1034D000002B4AD17B689B691B7A012B03D93E489C
:1034E000FEF76CFB70E07B69DAB23B69DBB2104639
:1034F000194603F067FA7B689B691B7E012B04D099
:103500007B689B691B7E002B08D1344B334A916842
:1035100001203A6900FA02F20A439A607B689B69CB
:103520001B7E022B04D07B689B691B7E002B08D17D
:103530002A4B2A4AD16801203A6900FA02F20A436A
:10354000DA607B689969234BFA6843F822107B683C
:103550009B6900225A76214B204A116801203A6962
:1035600000FA02F20A431A602EE01D48FEF726FB1D
:103570002AE0184BFA6853F822207B689B699A422C
:1035800022D1164B154A116801203A6900FA02F25D
:10359000D2430A401A60114B104A916801203A69DF
:1035A00000FA02F2D2430A409A600C4B0B4AD168EF
:1035B00001203A6900FA02F2D2430A40DA60054B70
:1035C000FA68002143F822101837BD4680BD00BFBD
:1035D0000F000080800D002050D40008003C014006
:1035E00074D4000880B500AF064B1B68002B04D0D4
:1035F000044B1B681846FFF7D5FB0620FFF71EFBA0
:1036000080BD00BF800D002080B500AF064B5B6819
:10361000002B04D0044B5B681846FFF7C3FB072060
:10362000FFF70CFB80BD00BF800D002080B500AF10
:10363000064B9B68002B04D0044B9B681846FFF791
:10364000B1FB0820FFF7FAFA80BD00BF800D002013
:1036500080B500AF064BDB68002B04D0044BDB6861
:103660001846FFF79FFB0920FFF7E8FA80BD00BF6F
:10367000800D002080B500AF064B1B69002B04D0E5
:10368000044B1B691846FFF78DFB0A20FFF7D6FA9B
:1036900080BD00BF800D002080B582B000AF134B0D
:1036A0005B693B6005237B6017E03A687B6822FA20
:1036B00003F303F00103002B0CD00D4B7A6853F891
:1036C0002230002B06D00A4B7A6853F82230184675
:1036D000FFF768FB7B6801337B607B68092BE4DDC7
:1036E0001720FFF7ABFA0837BD4680BD003C01400C
:1036F000800D002080B582B000AF134B5B693B604A
:103700000A237B6017E03A687B6822FA03F303F030
:103710000103002B0CD00D4B7A6853F82230002B9C
:1037200006D00A4B7A6853F822301846FFF73AFB66
:103730007B6801337B607B680F2BE4DD2820FFF77B
:103740007DFA0837BD4680BD003C0140800D002059
:1037500080B483B000AF7860002318460C37BD46B4
:103760005DF8047B704700BF80B483B000AF786021
:103770007B6818460C37BD465DF8047B704700BF78
:1037800080B584B002AF78600B46FB70FB78022BEB
:103790000DD0032B15D0012B1DD1FB7815220092E3
:1037A000786819461322142300F020F816E0FB78FD
:1037B0001F220092786819461D221E2300F016F879
:1037C0000CE0FB782C220092786819462A222B23E1
:1037D00000F00CF802E00448FEF7F0F97B681846A8
:1037E0000837BD4680BD00BFA8D4000880B586B0AC
:1037F00000AFF860F9723A81FB80FB68FA7A1A70C0
:10380000FB6800225A70584B7B61786902F0F0FB2C
:103810007B694FF480629A617B6900225A617B69FF
:103820000022DA617B6900221A627B6900225A62F7
:103830007B694FF400329A627B690422DA627B6909
:1038400000225A637B6900229A63B7F90830184650
:10385000FFF7ACFB03461A46FB68DA62B7F908309B
:103860001846FFF74FFB0246FB689A63B7F906302C
:103870001846FFF79BFB03461A46FB685A62B7F9E6
:1038800006301846FFF73EFB0246FB681A63B7F99D
:1038900020301846FFF78AFB03461A46FB689A62F7
:1038A000B7F920301846FFF72DFB0246FB685A6334
:1038B000FB7A022B1FD0032B37D0012B4ED1FB6894
:1038C0002A4A5A60FB682A4ADA60FB68294A1A6168
:1038D000FB68294A5A61FB684FF0C0529A61FB6845
:1038E0004FF0C062DA61FB684FF0C0621A62FB6899
:1038F0000522DA6335E0FB68204A5A60FB68204AFB
:10390000DA60FB681F4A1A61FB684FF0C0525A61C7
:10391000FB681D4A9A61FB680022DA61FB6800229D
:103920001A62FB680522DA631BE0FB68174A5A60DB
:10393000FB68174ADA60FB68164A1A61FB680E4A90
:103940005A61FB68144A9A61FB680022DA61FB68DD
:1039500000221A62FB680622DA6302E00F48FEF7D3
:103960002DF91837BD4680BDC40D00200030014040
:1039700010640240586402402000001000380040EB
:10398000586002407060024020000020003C00406F
:10399000106002408860024000080020A8D400089F
:1039A00080B582B000AF786000BF7B681B691846A5
:1039B00002F07EFB0346002B0CBF00230123DBB289
:1039C000002BF2D100BF7B685B681B899BB203F0C0
:1039D0000203002B14BF00230123DBB2002BF2D122
:1039E00000BF7B685B681B899BB203F08003002BE0
:1039F0000CBF00230123DBB2002BF2D100BF7B6898
:103A0000DB68184602F054FB0346002B0CBF002372
:103A10000123DBB2002BF2D102E07B685B689B895B
:103A20007B685B681B899BB203F00103002B0CBF12
:103A300000230123DBB2002BEFD10837BD4680BD48
:103A400080B58CB000AF7860396007F10C03184680
:103A500002F098FD7B681B78022B06D0032B07D061
:103A6000012B08D1BB69FB620BE07B69FB6208E0BC
:103A70007B69FB6205E03348FEF7A0F84FF0FF33A7
:103A80005CE00023BB62FB6A5A083B689A4236D965
:103A9000FA6A3B68B2FBF3F37B6202E0BB6A013374
:103AA000BB627B6A5B087B627B6A002B0CBF0023D6
:103AB0000123DBB2002BF1D1BB6A002B02D0BB6A21
:103AC000013BBB62BB6A0233FA6A22FA03F33B6230
:103AD000BB6A0133FA6A22FA03F3FB61FA693B68B5
:103AE000D21AF9693B6ACB1A5B089A4202D9BB6ABF
:103AF0000133BB62BB6A072B01D90723BB627B681A
:103B00005B687A685268128892B222F0380292B2E8
:103B10001A807B685B687A685268128891B2BA6AC8
:103B200092B2D20092B20A4392B21A80BB6A0133B7
:103B3000FA6ADA407B689A607B689B68184630377F
:103B4000BD4680BDA8D4000890B583B000AF7860B2
:103B50000B46FB707B68184604F02EFE7B68134A08
:103B60001A60FB78002B02D0FB78032B03D9104896
:103B7000FEF724F815E0FB78013B9A010D4B134446
:103B800040201946FEF7E2FF0446002C06D0FB78E1
:103B900020461946FFF7F4FD234600E023467A68E5
:103BA00093617B6818460C37BD4690BD20DA00084B
:103BB000A8D40008000E002080B590B000AFF860D7
:103BC000B9601346FB71FB689B69FA799A70FB68D0
:103BD0009B691B78022B0ED0032B17D0012B20D111
:103BE0004FF48050012102F0B3FD4FF48000012119
:103BF00002F072FD1BE04FF48040012102F08AFDCB
:103C00004FF40010012102F067FD10E04FF4004076
:103C1000012102F07FFD4FF40010012102F05CFD54
:103C200005E08248FDF7CAFF4FF0FF3379E1FB68FA
:103C30009B699A6B7E4B9A420BD0FB689B691A6B0F
:103C40007B4B9A4205D0FB689B695A6B784B9A4232
:103C500003D10120012102F03FFDFB689B699A6BB3
:103C6000744B9A420BD0FB689B691A6B714B9A425A
:103C700005D0FB689B695A6B6E4B9A4203D10220B8
:103C8000012102F029FDFB689B699A6B6A4B9A42FD
:103C90000BD0FB689B691A6B674B9A4205D0FB6897
:103CA0009B695A6B644B9A4203D10420012102F0B4
:103CB00013FDFB689B699A6B604B9A420BD0FB68C3
:103CC0009B691A6B5D4B9A4205D0FB689B695A6BE6
:103CD0005A4B9A4203D10820012102F0FDFCFB68F7
:103CE0009B699A6B564B9A420BD0FB689B691A6B87
:103CF000534B9A4205D0FB689B695A6B504B9A42D2
:103D000003D11020012102F0E7FCFB689B699A6B4C
:103D10004C4B9A420BD0FB689B691A6B494B9A42F9
:103D200005D0FB689B695A6B464B9A4203D1202011
:103D3000012102F0D1FCFB689B699A6B424B9A42CD
:103D40000BD0FB689B691A6B3F4B9A4205D0FB680E
:103D50009B695A6B3C4B9A4203D14020012102F0EF
:103D6000BBFC022387F82C30002387F82E30022377
:103D700087F82D30002387F82F30FB689B69DB6ABA
:103D8000BB62FB689B699A6B07F1280310461946D2
:103D900002F0D0FAFB689B695B6ABB62FB689B69B7
:103DA0001A6B07F128031046194602F0C3FAFB68A4
:103DB0009B699B6ABB62FB689B695A6B07F128038E
:103DC0001046194602F0B6FA0023FB630023BB63DA
:103DD00000237B63FB689B69DB6A3B6302E0FB6B50
:103DE0000133FB633B6B5B083B633B6B002B0CBFFE
:103DF00000230123DBB2002BF1D1FB689B695B6AD6
:103E00003B6302E0BB6B0133BB633B6B5B083B6313
:103E10003B6B002B0CBF00230123DBB2002BF1D145
:103E2000FB689B699B6A3B6313E000BFA8D4000852
:103E3000000002400004024000080240000C024062
:103E40000010024000140240001802407B6B013356
:103E50007B633B6B5B083B633B6B002B0CBF00231E
:103E60000123DBB2002BF1D1FB689B69996BFB6BE3
:103E70009AB2FB689B69DB6BDBB2084611461A46B7
:103E800002F02AFBFB689B69196BBB6B9AB2FB685B
:103E90009B69DB6BDBB2084611461A4602F01CFB3D
:103EA000FB689B69596B7B6B9AB2FB689B69DB6B08
:103EB000DBB2084611461A4602F00EFB0023BB8215
:103EC00000233B8300237B830023BB8300233B84AD
:103ED00000237B844FF40073FB83FB79002B02D01B
:103EE0000023FB8202E04FF48273FB82FB689B6934
:103EF0005A6807F114031046194602F0DBFCFB6810
:103F00009B691846B968FFF79BFDFB689B695B6876
:103F10001846012102F012FDFB689B6901225A70CC
:103F2000002318464037BD4680BD00BF80B588B02D
:103F300000AF78607B689B695B681846002102F0DF
:103F4000FDFC7B689B691B78022B09D0032B0DD0ED
:103F5000012B11D14FF48050002102F0F9FB0FE04A
:103F60004FF48040002102F0D5FB09E04FF40040FF
:103F7000002102F0CFFB03E04748FDF71FFE88E079
:103F800007F10803184602F063FA7B689B695B6AD5
:103F9000BB607B689B691A6B07F1080310461946E2
:103FA00002F0C8F97B689B699B6ABB607B689B6970
:103FB0005A6B07F108031046194602F0BBF97B68FB
:103FC0009B69DB6ABB607B689B699A6B07F108039E
:103FD0001046194602F0AEF90023FB610023BB61D5
:103FE00000237B617B689B69DB6A3B6102E0FB69C4
:103FF0000133FB613B695B083B613B69002B0CBFF4
:1040000000230123DBB2002BF1D17B689B695B6A43
:104010003B6102E0BB690133BB613B695B083B610B
:104020003B69002B0CBF00230123DBB2002BF1D135
:104030007B689B699B6A3B6102E07B6901337B6122
:104040003B695B083B613B69002B0CBF00230123EC
:10405000DBB2002BF1D17B689B699A6BFB699BB249
:1040600010461946002202F037FA7B689B691A6BEA
:10407000BB699BB210461946002202F02DFA7B68FC
:104080009B695A6B7B699BB210461946002202F06D
:1040900023FA2037BD4680BDA8D4000880B483B081
:1040A00000AF7860012318460C37BD465DF8047BED
:1040B000704700BF80B483B000AF7860012318461A
:1040C0000C37BD465DF8047B704700BF80B586B0F5
:1040D00000AFF860B9607A60FB689B695B7883F039
:1040E0000103DBB2002B02D04FF0FF337DE0FB6811
:1040F0009B691846FFF754FC3E4B7B61FB689B694C
:104100005B680C331A467B695A60FB689B691A6AC4
:104110007B691A607B694022DA607B6901221A633D
:10412000BA687B699A607B697A681A61FB689B69E7
:104130001B6918462F4901F005FFFB689B691B6945
:1041400018461021002202F035F8FB689B691B69B4
:104150001846012101F082FF00BFFB689B691B69C3
:10416000184601F0A5FF0346012B0CBF00230123D5
:10417000DBB2002BF1D1FB689B695B68184602211A
:10418000012202F0FBFB00BFFB689B691A69FB6818
:104190009B699B691046194601F0A2FF0346002B5C
:1041A00014BF00230123DBB2002BEDD1FB689B6918
:1041B0001A69FB689B699B691046194601F0CCFFA0
:1041C000FB689B691846FFF7EBFBFB689B695B6824
:1041D00018460221002202F0D1FBFB681B6828333D
:1041E0001B68FA68104698477B6818461837BD4622
:1041F00080BD00BFC40D002080B586B000AFF86060
:10420000B9607A603B60FB689B695B7883F001036F
:10421000DBB2002B02D04FF0FF330AE1FB689B6951
:104220001846FFF7BDFB854B7B61FB689B695B68AC
:104230000C331A467B695A60FB689B691A6A7B6972
:104240001A607B694022DA607B6901221A63BA68CE
:104250007B699A607B697A681A61FB689B691B6954
:104260001846796901F06EFEFB689B695B680C3348
:104270001A467B695A60FB689B69DA697B691A6038
:104280007B690022DA607B6903221A633A687B69E2
:104290009A607B693A6A1A61FB689B69DB68184619
:1042A000796901F04FFEFB689B69DB6818461021B5
:1042B000002201F07FFFFB689B691B6918461021F3
:1042C000002201F077FFFB689B69DB68184601213B
:1042D00001F0C4FEFB689B691B691846012101F0CF
:1042E000BDFEFB689B695B6818460321012202F052
:1042F00045FB00BFFB689B691A69FB689B699B696A
:104300001046194601F0ECFE0346002B14BF0023B3
:104310000123DBB2002BEDD1FB689B691A69FB68B6
:104320009B699B691046194601F016FF3A6A7B6843
:104330009A424CD9FB689B695B680C331A467B69CF
:104340005A60FB689B691A6A7B691A607B69402224
:10435000DA607B6901221A633A687B699A603A6A7B
:104360007B68D21A7B691A61FB689B691B691846D6
:10437000796901F0E7FDFB689B691B69184601211B
:1043800001F06CFEFB689B695B6818460221012204
:1043900002F0F4FA00BFFB689B691A69FB689B692D
:1043A0009B691046194601F09BFE0346002B14BF83
:1043B00000230123DBB2002BEDD1FB689B691A6956
:1043C000FB689B699B691046194601F0C5FE00BF5A
:1043D000FB689B69DA68FB689B695B691046194654
:1043E00001F07EFE0346002B14BF00230123DBB245
:1043F000002BEDD1FB689B69DA68FB689B695B6900
:104400001046194601F0A8FEFB689B691846FFF7A5
:10441000C7FAFB689B695B6818460321002202F01B
:10442000ADFAFB681B682C331B68FA681046984786
:104430003B6A18461837BD4680BD00BFC40D00203A
:10444000B0B582B000AF786039607B68012B10D1C5
:104450003A684FF6FF739A420BD1074B02241D4670
:1044600004E02846FFF780F94035013CB4F1FF3FF6
:10447000F7D10837BD46B0BD000E002080B500AFB3
:1044800001204FF6FF71FFF7DBFF80BD80B483B0E2
:1044900000AF78600C37BD465DF8047B704700BF05
:1044A00080B483B000AF7860002318460C37BD4657
:1044B0005DF8047B704700BF80B483B000AF034653
:1044C000FB71084B97F907205209F97901F01F0198
:1044D000012000FA01F143F822100C37BD465DF8C7
:1044E000047B704700E100E080B483B000AF034676
:1044F000FB71094B97F907205209F97901F01F0167
:10450000012000FA01F1203243F822100C37BD4699
:104510005DF8047B704700BF00E100E080B483B029
:1045200000AF0346FB71094B97F907205209F9794F
:1045300001F01F01012000FA01F1603243F822105E
:104540000C37BD465DF8047B704700BF00E100E01A
:1045500080B582B000AF78607B6818460649642257
:104560004FF4FA6303F0B8FC7B68044A1A607B6876
:1045700018460837BD4680BD48D5000890DA0008C7
:1045800080B582B000AF78607B683433184601F0A4
:104590008BFA7B6803F5A073184601F085FA7B68F7
:1045A00018460837BD4680BD80B586B002AF78603A
:1045B0000CE0FDF7DFFC29A3D3E90023121843EB3D
:1045C000010310461946002203F0D6FD1E4B1B784E
:1045D000DBB283F00103DBB2002BEAD179681B4A1E
:1045E0004FF00003CDE900230846194A4FF00003BD
:1045F00004F04CFB1CE00123FB6016E0154AFB684D
:104600004FF4137101FB03F3134420331B78002B89
:1046100008D0FB685A1E104B53F822301846002170
:1046200001F01CFDFB680133FB60FB68032BE5DD3B
:104630007B68184604F040FB0123002BDBD11037C8
:10464000BD4680BDAFF30080D41E00208096980048
:1046500040420F00C00E00201400002000E40B5464
:1046600002000000AFF3008080B588B004AFF860AE
:10467000F9723A81FB80FB68184604F09DF8FB68EC
:10468000174A1A60FB7A002B02D0FB7A062B07D957
:10469000FB68144A9A61FB689B69FA7A1A701AE0FF
:1046A000FB7A4FF4137202FB03F20E4B1A44FB68C1
:1046B0009A61FB689969FA7AB7F90830B7F9060088
:1046C0000090B7F918000190B7F91C000290084655
:1046D000F96800F05BFDFB6818461037BD4680BDE9
:1046E000A8DA0008C00E002080B586B004AF78605C
:1046F0000B46FB707B68184604F05EF87B685F4AE7
:104700001A60FB78002B02D0FB78062B07D97B6858
:104710005B4A9A617B689B69FA781A70A9E0FB781A
:104720004FF4137202FB03F2554B1A447B689A61F3
:10473000FB78013B072B00F29B8001A252F823F08B
:104740006147000881470008A1470008C1470008E9
:10475000E547000809480008294800084D480008B6
:104760007B689A69FB78172100910C2101910B213C
:104770000291104679681A46162300F007FD78E08A
:104780007B689A69FB7836210091342101913321AD
:104790000291104679681A46352300F0F7FC68E06C
:1047A0007B689A69FB78392100911E2101913B2198
:1047B0000291104679681A46382300F0E7FC58E069
:1047C0007B689A69FB782B2100914FF0FF310191B2
:1047D0004FF0FF310291104679681A462A2300F003
:1047E000D5FC46E07B689A69FB78322100914FF056
:1047F000FF3101914FF0FF310291104679681A465E
:104800002C2300F0C3FC34E07B689A69FB782721F5
:104810000091682101916F210291104679681A4632
:10482000262300F0B3FC24E07B689A69FB785621CC
:1048300000914FF0FF3101914FF0FF31029110468E
:1048400079681A46572300F0A1FC12E07B689A6948
:10485000FB78402100914FF0FF3101914FF0FF3183
:104860000291104679681A46412300F08FFC00E05F
:1048700000BF7B6818460837BD4680BDA8DA00082F
:10488000C00E002080B500AF034800F0C5FE252013
:10489000FFF744FE80BD00BF0C11002080B500AFC3
:1048A000034800F0B9FE2620FFF738FE80BD00BFA8
:1048B0005813002080B500AF034800F0ADFE27205C
:1048C000FFF72CFE80BD00BFA415002080B500AF0F
:1048D000034800F0A1FE3420FFF720FE80BD00BF9A
:1048E000F017002080B500AF034800F095FE35209A
:1048F000FFF714FE80BD00BF3C1A002080B500AF5A
:10490000034800F089FE4720FFF708FE80BD00BF86
:10491000881C002080B500AF0D480E4901F084FCD2
:104920000346002B0CBF00230123DBB2002B0AD06F
:104930000748084901F0D0FC4620FFF7EFFD064884
:1049400000F080FD02E04620FFF7E8FD80BD00BFDB
:10495000B8640240008000280C11002080B500AF30
:104960000D480E4901F060FC0346002B0CBF0023EC
:104970000123DBB2002B0AD00748084901F0ACFC48
:104980001120FFF7CBFD064800F05CFD02E011208E
:10499000FFF7C4FD80BD00BFA06002400080202062
:1049A0005813002080B500AF0D480E4901F03CFCC3
:1049B0000346002B0CBF00230123DBB2002B0AD0DF
:1049C0000748084901F088FC0E20FFF7A7FD0648BC
:1049D00000F038FD02E00E20FFF7A0FD80BD00BF13
:1049E0005860024000800018A415002080B500AF78
:1049F0000D480E4901F018FC0346002B0CBF0023A4
:104A00000123DBB2002B0AD00748084901F064FCFF
:104A10004420FFF783FD064800F058FD02E04420E3
:104A2000FFF77CFD80BD00BF886402400088002045
:104A30000C11002080B500AF0D480E4901F0F4FBC9
:104A40000346002B0CBF00230123DBB2002B0AD04E
:104A50000748084901F040FC1020FFF75FFD0648B9
:104A600000F034FD02E01020FFF758FD80BD00BFCC
:104A700088600240008800205813002080B500AFF5
:104A80000D480E4901F0D0FB0346002B0CBF00235C
:104A90000123DBB2002B0AD00748084901F01CFCB7
:104AA0000C20FFF73BFD064800F010FD02E00C2053
:104AB000FFF734FD80BD00BF286002400088001071
:104AC000A415002080B582B000AF786039607B68A3
:104AD0009B691B78002B04D07B689B691B78062B95
:104AE00002D94FF0FF3306E07B689B6918463968AE
:104AF00000F03AFF034618460837BD4680BD00BFA8
:104B000090B58FB000AFF8600B467A60FB72FB681F
:104B10009B691B7887F8373097F83730002B03D024
:104B200097F83730062B02D94FF0FF33CAE0FB6805
:104B30009B695B693B6307F12003184602F0C4F8E8
:104B4000FB689B699B683B62FB689B695B689BB2E7
:104B5000BB85FB7A012B11D0022B77D0002B40F0C4
:104B60009F807B68002B06DD7B683B62FB689B694E
:104B70007A689A6097E04FF0FF33A3E097F83730F8
:104B8000042B0BD097F83730052B07D097F8373028
:104B9000072B03D097F83730082B02D14FF0FF33A3
:104BA00090E007F11803184601F052FC07F11003DA
:104BB000184601F04DFC7B68002B2BDDFB689B69E0
:104BC0009B8B1BB2B3F1FF3F24D04FF44073BB85E6
:104BD000FB689B694FF440725A60FB689B699C8B31
:104BE000FB689B69184600F01BFE034622B2104684
:104BF0001946FEF7EDF9FB689B69DC8BFB689B6946
:104C0000184600F00DFE034622B210461946FEF784
:104C1000DFF91AE0FB689B699B8B1BB2B3F1FF3F86
:104C200013D00023BB85FB689B6900225A60FB6898
:104C30009B699B8B1BB21846FEF71AFAFB689B69AF
:104C4000DB8B1BB21846FEF713FA2CE0FB689B695E
:104C50001B78032B02D94FF0FF3333E0FB689B69CD
:104C6000184600F0C9FA7B68B3F5807F05DDFB6864
:104C70009B694FF480721A6303E0FB689B697A6852
:104C80001A63FB689B69012283F82020FB689B69FB
:104C9000184600F073FC0D4B01221A70002311E03E
:104CA0004FF0FF330EE0386B002102F029F807F1D6
:104CB0002003386B194601F04DFF386B012102F0DB
:104CC0001FF8002318463C37BD4690BDD41E002077
:104CD00080B584B000AF78607B689B691B78002B3F
:104CE00004D07B689B691B78062B00D951E07B6858
:104CF0009B695B69FB607B689B69184600F0C4FD9B
:104D000003461846FFF7F0FBF86801F099FE7B6850
:104D10009B695B8B1BB21846FEF7AAF97B689B69FF
:104D20001B8B1BB21846FEF7A3F97B689B695B6877
:104D3000B3F5407F05D07B689B695B68B3F5807FE6
:104D40000DD17B689B699B8B1BB2B3F1FF3F06D0F3
:104D50007B689B699B8B1BB21846FEF789F97B68C1
:104D60009B695B68B3F5407F05D07B689B695B6896
:104D7000B3F5007F0DD17B689B69DB8B1BB2B3F170
:104D8000FF3F06D07B689B69DB8B1BB21846FEF7A2
:104D90006FF91037BD4680BD80B588B000AFF860B0
:104DA000B9607A60FB689B691B78002B04D0FB68B4
:104DB0009B691B78062B02D94FF0FF3355E07B68C7
:104DC000002B01DC002350E000237B610023FB610A
:104DD000FB689B6903F1340207F11403104619467E
:104DE00000F074FEB861BB69002B3DD07A697B6826
:104DF0009A4201DD7B687B610023FB610BE0FB696C
:104E0000BA681344FA69B9690A441278D2B21A70BE
:104E1000FB690133FB617B69FA699A42EFDBFB684E
:104E20009B6903F134027B691046194600F07EFE4F
:104E3000FB689B6993F82030002B0BD0FB689B69C3
:104E400093F82830DBB283F00103DBB2002B01D0F2
:104E5000012300E00023002B04D0FB689B69184667
:104E600000F08CFB7B6900E0002318462037BD462C
:104E700080BD00BF80B588B000AFF860B9607A60CF
:104E8000FB689B691B78002B04D0FB689B691B782F
:104E9000062B02D94FF0FF3360E07B68002B01DC6A
:104EA00000235BE00023FB61FB689B6903F5A072B4
:104EB00007F114031046194600F04CFEB861BB69B7
:104EC000002B4AD07A697B689A4201DA7B697B6061
:104ED0000023FB610BE0FB69BA691344FA69B96806
:104EE0000A441278D2B21A70FB690133FB61FA6985
:104EF0007B689A42EFDBFB689B6903F5A073184659
:104F0000796800F067FEFB689B695B69184640F2B0
:104F10002661002201F048FFFB689B6993F820306E
:104F2000002B0FD0FB689B6993F82130DBB283F034
:104F30000103DBB2002B0ED0FB689B69184600F022
:104F4000FBFA08E0FB689B695B69184640F2277131
:104F5000012201F029FF7B6800E00023184620377A
:104F6000BD4680BD80B584B000AF78607B689B692A
:104F70001B78002B04D07B689B691B78062B02D919
:104F80004FF0FF332EE00023BB737B689B6903F176
:104F9000340207F10E031046194600F02FFE0346B7
:104FA000FB737B689B6993F82030002B0BD07B68E8
:104FB0009B6993F82830DBB283F00103DBB2002B4E
:104FC00001D0012300E00023002B04D07B689B6903
:104FD000184600F0D3FAFB7B002B01D0BB7B01E02D
:104FE0004FF0FF3318461037BD4680BD80B584B002
:104FF00000AF78600B46FB707B689B691B78002BC9
:1050000004D07B689B691B78062B02D94FF0FF33D5
:105010003CE07B689B6903F5A072FB78FB7307F1AA
:105020000F031046194600F015FE0346002B2BD047
:105030007B689B695B69184640F22661002201F09B
:10504000B3FE7B689B6993F82030002B0FD07B6800
:105050009B6993F82130DBB283F00103DBB2002BB4
:105060000ED07B689B69184600F066FA08E07B6802
:105070009B695B69184640F22771012201F094FE9A
:1050800097F90330DBB201E04FF0FF3318461037D9
:10509000BD4680BD80B584B000AF78600B46FB7024
:1050A0007B689B691B78002B04D07B689B691B780D
:1050B000062B02D94FF0FF3319E0FB78002B02D00A
:1050C000012B08D011E07B689B693433184600F04F
:1050D000EDFD03460BE07B689B691B69FB607B6809
:1050E0009B6900221A61FB6801E04FF0FF3318460C
:1050F0001037BD4680BD00BF80B582B000AF78607C
:105100007B689B691B78002B04D07B689B691B78AC
:10511000062B01D9002316E07B689B6903F5A07379
:10512000184600F0E3FD0346002B0BD07B689B691B
:105130005B691846402101F07FFE0346012B01D137
:10514000012300E0002318460837BD4680BD00BF9C
:1051500080B582B000AF78607B689B691B78002BBC
:1051600004D07B689B691B78062B01D9002309E0DA
:105170007B689B693433184600F0B8FD034683F022
:105180000103DBB218460837BD4680BD80B584B048
:1051900000AFF860B960FA71BB80FB68FA791A70E9
:1051A000FB684FF4E1329A60FB6800225A60FB68AA
:1051B000BA68DA60FB68002283F82020FB680022CE
:1051C00083F82120FB68002283F82820F86800F08B
:1051D00087FB0246FB685A61FB68BA881A83FB6842
:1051E0003A8B5A83FB68BA8B9A83FB683A8CDA83D2
:1051F0001037BD4680BD00BF80B592B000AF78606B
:105200007B681B78002B00F0B6807B681B78032B33
:1052100000F2B18000F0E6F97B681B785A1E574B0C
:1052200053F822307B6407F10803184600F0E0FED3
:105230004FF00063BB607B685B690433FB60002355
:105240003B6140237B611023BB610023FB614FF472
:1052500080633B6200237B620023BB620023FB620E
:105260004FF480333B6300237B630123BB63002344
:10527000FB6300233B6407F10803786C194600F0D8
:1052800061FE786C1021012200F094FF7B685B695D
:1052900018468021012201F063FD7B681B785A1EAD
:1052A000374B53F822307B6407F10803184600F0AF
:1052B0009FFE4FF00063BB607B685B690433FB605B
:1052C00000233B6100237B611023BB610023FB6152
:1052D0004FF480633B6200237B620023BB620023A8
:1052E000FB624FF480333B6300237B630123BB638A
:1052F0000023FB6300233B6407F10803786C194625
:1053000000F020FE786C1021012200F053FF7B6832
:105310005B69184640F22551002201F045FD7B688B
:105320005B6918466021012201F03EFD7B685B69E4
:1053300018464021012201F013FD7B681B78022BE7
:105340000BD0032B10D0012B00D014E04620FFF728
:10535000B3F84420FFF7B0F80DE01120FFF7ACF8E8
:105360001020FFF7A9F806E00E20FFF7A5F80C20A3
:10537000FFF7A2F800BF4837BD4680BD08000020F7
:105380001400002080B586B000AFF860B9607A6084
:10539000FB681B78002B03D0FB681B78032B00D91C
:1053A00014E0FB681B785A1E0A4B53F822307B61CD
:1053B0007869002100F052FEBA687B69DA607A6889
:1053C0007B695A607869012100F048FE1837BD46B4
:1053D00080BD00BF0800002080B586B000AFF86037
:1053E000B9607A60FB681B78002B03D0FB681B78E0
:1053F000032B00D920E0FB681B785A1E104B53F892
:1054000022307B617869002100F028FE00BF7869B6
:1054100000F04EFE0346012B14BF00230123DBB234
:10542000002BF4D1BA687B69DA607A687B695A60CC
:105430007869012100F012FE1837BD4680BD00BF1B
:105440001400002080B586B000AF78607B681B78C0
:10545000002B03D07B681B78032B00D930E07B68DE
:105460001B785A1E184B53F822307B61786900F084
:1054700011FE03463B617B685A6A3B69D31AFB60A5
:105480007B6803F5A0731846F96800F04FFB7B6852
:1054900003F5A073184600F029FC0346002B0CD03E
:1054A0007B68002283F821207B685B69184640F204
:1054B0002661012201F078FC02E0786800F03CF8F7
:1054C0001837BD4680BD00BF0800002090B585B0EC
:1054D00000AF78607B681B78002B03D07B681B785B
:1054E000032B00D923E07B681B785A1E114B53F81D
:1054F0002230FB607B68DC6AF86800F0CBFD034675
:10550000E31ABB607B6834331846B96800F062FB6D
:10551000BB68002B08DD7B68DB681B6830331B68C9
:105520007A68D26810469847786800F027F81437F0
:10553000BD4690BD1400002080B584B000AF7860F7
:105540007B6803F5A07207F108031046194600F0C6
:10555000BDFAF860FB68002B0CD0BA687B685A6211
:105560007B68012283F82120BB687868F9681A46B5
:10557000FFF708FF1037BD4680BD00BF80B584B07F
:1055800000AF78607B6803F1340207F1080310462E
:10559000194600F0DFFAF860FB68002B15D07B6835
:1055A0001A6BBB689A4202DA7B681B6BBB60BA68F5
:1055B0007B68DA627B68012283F82820BB68786800
:1055C000F9681A46FFF708FF08E07B68002283F8B5
:1055D00028207B681B695A1C7B681A611037BD46FE
:1055E00080BD00BF80B500AF0A4B1B7883F001037C
:1055F000DBB2002B0CD0074B01221A704FF40010C5
:10560000012101F069F84FF48000012101F064F8F4
:1056100080BD00BF281F002080B584B000AF786037
:105620007B685B691846082101F006FC0346002BE5
:1056300022D17B6893F82030002B1FD07B685B69F8
:1056400018464FF4B07101F013FC0346002B13D140
:105650007B685B6918464FF4187101F009FC03463A
:10566000002B09D17B685B6918464FF4587101F033
:10567000FFFB0346002B01D0012300E00023002B99
:105680000AD07B685B69184601F05AFB7B681B698E
:105690005A1C7B681A6185E07B685B69184640F29A
:1056A000255101F0E5FB0346002B0CBF002301232D
:1056B000DBB2002B25D07B685B69184601F040FB0C
:1056C0000346DBB2FB737B6803F1340207F10F037F
:1056D0001046194600F0BEFA034683F00103DBB220
:1056E000002B04D07B681B695A1C7B681A617B689D
:1056F000DB681B6830331B687A68D26810469847AD
:1057000050E07B685B69184640F2277101F0B0FBFE
:105710000346002B0CBF00230123DBB2002B21D05A
:105720007B6803F5A07207F10F031046194600F0DD
:1057300065FA0346002B04D07B685B69FA7B9A808C
:1057400030E07B685B69184640F22771002201F067
:105750002BFB7B685B69184640F22661012201F051
:1057600023FB1FE07B685B69184640F2266101F06D
:105770007FFB0346002B0CBF00230123DBB2002B71
:1057800010D07B685B69184640F22661002201F068
:105790000BFB7B68DB681B6828331B687A68D26860
:1057A000104698471037BD4680BD00BF80B483B017
:1057B00000AF78607B681B78013B072B28D801A2DB
:1057C00052F823F0E5570008E9570008EF570008A2
:1057D000F5570008FB570008015800080558000855
:1057E0000B580008102314E04FF4003311E04FF47D
:1057F00080230EE04FF400230BE04FF4801308E009
:10580000202306E04FF0804303E04FF0004300E028
:10581000002318460C37BD465DF8047B704700BF77
:1058200080B483B000AF78607B681B78013B072BA6
:1058300022D801A252F823F0595800085D580008F8
:105840006158000865580008695800086D5800083C
:10585000715800087558000807230EE007230CE074
:1058600007230AE0082308E0082306E0082304E0F1
:10587000082302E0082300E0002318460C37BD4649
:105880005DF8047B704700BF80B483B000AF7860E0
:105890007B681B78013B052B1AD801A252F823F034
:1058A000B9580008BD580008C1580008C55800087C
:1058B000C9580008CD58000825230AE0262308E02F
:1058C000272306E0342304E0352302E0472300E0E9
:1058D00025235BB218460C37BD465DF8047B704744
:1058E00080B483B000AF78607B681B78013B072BE6
:1058F00022D801A252F823F0195900081D590008B6
:105900002159000825590008295900082D59000877
:1059100031590008355900080B4B0EE00B4B0CE0D9
:105920000B4B0AE00B4B08E00B4B06E00B4B04E083
:105930000B4B02E00B4B00E0002318460C37BD4632
:105940005DF8047B704700BF001001400044004038
:1059500000480040004C004000500040001401404E
:1059600000780040007C004090B587B000AF7860C0
:1059700039607B681B78002B03D07B681B78062B73
:1059800002D94FF0FF3363E03A687B689A607B6826
:105990005B69184601F054F87B681B78012B03D033
:1059A0007B681B78062B08D17868FFF7FFFE03465B
:1059B0001846012100F0CCFE07E07868FFF7F6FEFC
:1059C00003461846012100F0A5FE7B685C8B7868D1
:1059D000FFF726FF034622B210461946FDF7F8FAF4
:1059E0007B681C8B7868FFF71BFF034622B21046CA
:1059F0001946FDF7EDFA07F10803184601F064F9BE
:105A00003B68BB607B685A6907F10803104619467A
:105A100001F0A0F87B685B691846012101F070F97C
:105A20007B685B69184640F22551012201F0BCF900
:105A30007B685B69184640F22771012201F0B4F9D6
:105A40007868FFF721FF03461846FEF735FD00236F
:105A500018461C37BD4690BD80B582B000AF786057
:105A60007B68084A1A607B681846FBF7B3FB002383
:105A7000002B02D07868FCF799F97B681846083744
:105A8000BD4680BD78DA000880B582B000AF78608E
:105A90007868FFF7E1FF7868FCF788F97B681846BB
:105AA0000837BD4680BD00BF80B582B000AF7860CA
:105AB0007B68184600F030F97B68034A1A607B68FF
:105AC00018460837BD4680BD60DA000880B485B04E
:105AD00000AF786039607B68D3F80831FB607B6881
