:020000040800F2
:1000000000000220912500084140000849400008F6
:100010006D400008754000087D40000800000000A9
:10002000000000000000000000000000713900081E
:10003000FD2500080000000085390008C13C0008CB
:10004000FD250008FD250008FD250008FD25000808
:10005000FD250008FD2500089D300008C13000087E
:10006000E5300008093100082D310008FD250008A1
:10007000415B0008FD250008695A0008FD250008BD
:10008000F95A0008215A0008FD250008FD2500083E
:10009000FD250008FD250008FD2500085131000858
:1000A000FD250008FD250008713E0008FD2500081B
:1000B000FD250008FD250008FD250008FD25000898
:1000C000FD250008FD250008FD250008FD25000888
:1000D000FD250008495900086159000879590008B0
:1000E000AD310008FD250008FD250008FD250008AC
:1000F000FD250008FD250008FD250008FD25000858
:10010000FD250008FD2500087D3A0008FD250008B2
:1001100091590008A9590008FD250008FD2500088F
:10012000FD250008FD250008FD250008FD25000827
:10013000FD250008FD250008FD250008FD25000817
:10014000FD250008FD250008FD250008FD25000807
:10015000B15A0008FD250008D9590008C159000806
:10016000FD250008FD250008FD250008FD250008E7
:10017000FD250008FD250008FD250008FD250008D7
:0C018000FD250008FD2500080000000817
:1001900081F0004102E000BF83F0004330B54FEA38
:1001A00041044FEA430594EA050F08BF90EA020FA5
:1001B0001FBF54EA000C55EA020C7FEA645C7FEA38
:1001C000655C00F0E2804FEA5454D4EB5555B8BF5B
:1001D0006D420CDD2C4480EA020281EA030382EACC
:1001E000000083EA010180EA020281EA0303362D5E
:1001F00088BF30BD11F0004F4FEA01314FF4801C31
:100200004CEA113102D0404261EB410113F0004F42
:100210004FEA03334CEA133302D0524263EB4303F9
:1002200094EA050F00F0A780A4F10104D5F1200E97
:100230000DDB02FA0EFC22FA05F2801841F10001F2
:1002400003FA0EF2801843FA05F359410EE0A5F1C6
:1002500020050EF1200E012A03FA0EFC28BF4CF0F7
:10026000020C43FA05F3C01851EBE37101F00045AD
:1002700007D54FF0000EDCF1000C7EEB00006EEBBA
:100280000101B1F5801F1BD3B1F5001F0CD3490844
:100290005FEA30004FEA3C0C04F101044FEA44529B
:1002A00012F5800F80F09A80BCF1004F08BF5FEA22
:1002B000500C50F1000041EB045141EA050130BD02
:1002C0005FEA4C0C404141EB010111F4801FA4F1A5
:1002D0000104E9D191F0000F04BF01460020B1FAFA
:1002E00081F308BF2033A3F10B03B3F120020CDA32
:1002F0000C3208DD02F1140CC2F10C0201FA0CF010
:1003000021FA02F10CE002F11402D8BFC2F1200C74
:1003100001FA02F120FA0CFCDCBF41EA0C0190402A
:10032000E41AA2BF01EB0451294330BD6FEA040473
:100330001F3C1CDA0C340EDC04F11404C4F120025E
:1003400020FA04F001FA02F340EA030021FA04F370
:1003500045EA030130BDC4F10C04C4F1200220FAC7
:1003600002F001FA04F340EA0300294630BD21FA05
:1003700004F0294630BD94F0000F83F4801306BFCB
:1003800081F480110134013D4EE77FEA645C18BFBF
:100390007FEA655C29D094EA050F08BF90EA020F56
:1003A00005D054EA000C04BF1946104630BD91EA4E
:1003B000030F1EBF0021002030BD5FEA545C05D151
:1003C0004000494128BF41F0004130BD14F5800490
:1003D0003CBF01F5801130BD01F0004545F0FE4104
:1003E00041F470014FF0000030BD7FEA645C1ABF39
:1003F000194610467FEA655C1CBF0B46024650EA70
:10040000013406BF52EA033591EA030F41F400219B
:1004100030BD00BF90F0000F04BF0021704730B521
:100420004FF4806404F132044FF000054FF00001F6
:1004300050E700BF90F0000F04BF0021704730B5B7
:100440004FF4806404F1320410F0004548BF40428C
:100450004FF000013EE700BF42004FEAE2014FEAE1
:1004600031014FEA02701FBF12F07F4393F07F4FBC
:1004700081F06051704792F0000F14BF93F07F4FEE
:10048000704730B54FF4607401F0004521F0004131
:1004900020E700BF50EA010208BF704730B54FF0B7
:1004A00000050AE050EA010208BF704730B511F0BC
:1004B000004502D5404261EB41014FF4806404F1F4
:1004C00032045FEA915C3FF4DCAE4FF003025FEA76
:1004D000DC0C18BF03325FEADC0C18BF033202EBFE
:1004E000DC02C2F1200300FA03FC20FA02F001FA58
:1004F00003FE40EA0E0021FA02F11444C1E600BFF7
:1005000070B54FF0FF0C4CF4E06C1CEA11541DBFA9
:100510001CEA135594EA0C0F95EA0C0F00F0DEF874
:100520002C4481EA030621EA4C5123EA4C5350EA59
:10053000013518BF52EA033541F4801143F48013AA
:1005400038D0A0FB02CE4FF00005E1FB02E506F03B
:100550000042E0FB03E54FF00006E1FB03569CF090
:10056000000F18BF4EF0010EA4F1FF04B6F5007F96
:1005700064F5407404D25FEA4E0E6D4146EB060608
:1005800042EAC62141EA55514FEAC52040EA5E5091
:100590004FEACE2EB4F1FD0C88BFBCF5E06F1ED83B
:1005A000BEF1004F08BF5FEA500E50F1000041EB72
:1005B000045170BD06F0004646EA010140EA02001F
:1005C00081EA0301B4EB5C04C2BFD4EB0C0541EA41
:1005D000045170BD41F480114FF0000E013C00F356
:1005E000AB8014F1360FDEBF002001F0004170BD7A
:1005F000C4F10004203C35DA0C341BDC04F1140493
:10060000C4F1200500FA05F320FA04F001FA05F21E
:1006100040EA020001F0004221F0004110EBD370EB
:1006200021FA04F642EB06015EEA430E08BF20EA17
:10063000D37070BDC4F10C04C4F1200500FA04F3BA
:1006400020FA05F001FA04F240EA020001F000414C
:1006500010EBD37041F100015EEA430E08BF20EABF
:10066000D37070BDC4F1200500FA05F24EEA020E07
:1006700020FA04F301FA05F243EA020321FA04F036
:1006800001F0004121FA04F220EA020000EBD370ED
:100690005EEA430E08BF20EAD37070BD94F0000FED
:1006A0000FD101F00046400041EB010111F4801F21
:1006B00008BF013CF7D041EA060195F0000F18BFD2
:1006C000704703F00046520043EB030313F4801F0E
:1006D00008BF013DF7D043EA0603704794EA0C0FC8
:1006E0000CEA135518BF95EA0C0F0CD050EA4106DE
:1006F00018BF52EA4306D1D181EA030101F000415B
:100700004FF0000070BD50EA410606BF1046194682
:1007100052EA430619D094EA0C0F02D150EA01368E
:1007200013D195EA0C0F05D152EA03361CBF1046CF
:1007300019460AD181EA030101F0004141F0FE416E
:1007400041F470014FF0000070BD41F0FE4141F4F2
:10075000780170BD70B54FF0FF0C4CF4E06C1CEAF2
:1007600011541DBF1CEA135594EA0C0F95EA0C0FA7
:1007700000F0A7F8A4EB050481EA030E52EA033562
:100780004FEA013100F088804FEA03334FF0805583
:1007900045EA131343EA12634FEA022245EA1115B0
:1007A00045EA10654FEA00260EF000419D4208BF61
:1007B000964244F1FD0404F5407402D25B084FEA0E
:1007C0003202B61A65EB03055B084FEA32024FF4BA
:1007D00080104FF4002CB6EB020E75EB030E22BF17
:1007E000B61A754640EA0C005B084FEA3202B6EBD7
:1007F000020E75EB030E22BFB61A754640EA5C0086
:100800005B084FEA3202B6EB020E75EB030E22BF15
:10081000B61A754640EA9C005B084FEA3202B6EB16
:10082000020E75EB030E22BFB61A754640EADC00D5
:1008300055EA060E18D04FEA051545EA16754FEA37
:1008400006164FEAC30343EA52734FEAC2025FEA55
:100850001C1CC0D111F4801F0BD141EA00014FF0E4
:1008600000004FF0004CB6E711F4801F04BF0143B5
:100870000020B4F1FD0C88BFBCF5E06F3FF6AFAED1
:10088000B5EB030C04BFB6EB020C5FEA500C50F161
:10089000000041EB045170BD0EF0004E4EEA1131E4
:1008A00014EB5C04C2BFD4EB0C0541EA045170BDEB
:1008B00041F480114FF0000E013C90E645EA060E2F
:1008C0008DE60CEA135594EA0C0F08BF95EA0C0F5D
:1008D0003FF43BAF94EA0C0F0AD150EA01347FF4A5
:1008E00034AF95EA0C0F7FF425AF104619462CE77C
:1008F00095EA0C0F06D152EA03353FF4FDAE1046DF
:10090000194622E750EA410618BF52EA43067FF42F
:10091000C5AE50EA41047FF40DAF52EA43057FF4BF
:10092000EBAE12E74FF0FF3C06E000BF4FF0010CCA
:1009300002E000BF4FF0010C4DF804CD4FEA410C2E
:100940007FEA6C5C4FEA430C18BF7FEA6C5C1BD0FB
:1009500001B050EA410C0CBF52EA430C91EA030F7C
:1009600002BF90EA020F0020704710F1000F91EAD9
:10097000030F58BF994208BF90422CBFD8176FEAA7
:10098000E37040F0010070474FEA410C7FEA6C5C75
:1009900002D150EA013C07D14FEA430C7FEA6C5C7C
:1009A000D6D152EA033CD3D05DF8040B704700BFA8
:1009B0008446104662468C461946634600E000BFF6
:1009C00001B5FFF7B7FF002848BF10F1000F01BDC8
:1009D0004DF808EDFFF7F4FF0CBF012000205DF893
:1009E00008FB00BF4DF808EDFFF7EAFF34BF012018
:1009F00000205DF808FB00BF4DF808EDFFF7E0FFB1
:100A000094BF012000205DF808FB00BF4DF808ED01
:100A1000FFF7CEFF94BF012000205DF808FB00BF68
:100A20004DF808EDFFF7C4FF34BF012000205DF84A
:100A300008FB00BF4A0011D212F5001211D20DD5E9
:100A40006FF47873B3EB62520ED44FEAC12343F0D4
:100A5000004343EA505323FA02F070474FF000007E
:100A6000704750EA013002D14FF0FF3070474FF02D
:100A70000000704773B96AB9002908BF0028BCBFDD
:100A800000204FF00041C4BF6FF000414FF0FF3035
:100A900000F08CB882B0EC462DE9005000F056F81A
:100AA000DDF804E002B00CBC704700BF4BB942B99E
:100AB000002908BF002802D04FF0FF31084600F09F
:100AC00075B882B0EC462DE9005000F057F8DDF81B
:100AD00004E002B00CBC704738B500220023044685
:100AE0000D46FFF77FFF28B920462946BDE838406C
:100AF00000F00AB8204605F1004100F005F8404238
:100B000061EB410138BD00BF70B500220D4B0446BA
:100B10000D46FFF7F5FCFFF78DFF0646FFF77AFC61
:100B20000022094BFFF7ECFC02460B462046294603
:100B3000FFF732FBFFF77EFF002242EA0004204667
:100B4000314670BD0000F03D0000F0412DE97043DA
:100B5000069E14461D468046894600F029F804FB8F
:100B600001F300FB0533A4FB00451D44B8EB04046E
:100B700069EB0505C6E90045BDE870832DE97043C2
:100B8000069E1446804689461D4600F05DF900FB2E
:100B900005F504FB0153A0FB04451D44B8EB040418
:100BA00069EB0505C6E90045BDE87083704700BFE5
:100BB00000292DE9F00FC0F29F800024002BC0F225
:100BC0009680154606460F46002B3ED18A4257D9DD
:100BD000B2FA82F34BB1C3F1200201FA03F720FA13
:100BE00002F29D40174300FA03F6290CB7FBF1F21D
:100BF000330C01FB127CA8B243EA0C4700FB02F362
:100C0000BB4209D97F1902F1FF3C80F00181BB4250
:100C100040F2FE80023A2F44FF1AB7FBF1F3B6B25E
:100C200001FB137146EA014100FB03F0884208D939
:100C3000491903F1FF3780F0ED80884240F2EA80E5
:100C4000023B43EA0242002303E08B420AD900231D
:100C50001A461046194614B1404261EB4101BDE805
:100C6000F00F7047B3FA83F8B8F1000F40F08480BA
:100C70008B4202D3824200F2DE8000230122E8E7A9
:100C800012B90123B3FBF2F5B5FA85F2002A39D186
:100C90007F1B280C1FFA85FC0123B7FBF0F1320CF7
:100CA00000FB117742EA07470CFB01F2BA4207D971
:100CB0007F1901F1FF3802D2BA4200F2C1804146E9
:100CC000BF1AB7FBF0F2B6B200FB127046EA004062
:100CD0000CFB02FC844507D9401902F1FF3702D210
:100CE000844500F2AB803A4642EA0142B1E7E44370
:100CF000524263EB430364E7404261EB41014FF032
:100D0000FF345BE79540C2F1200327FA03F1280C7A
:100D100026FA03F39740B1FBF0F81F433B0C00FBAE
:100D200018111FFA85FC43EA01410CFB08F38B42C2
:100D300006FA02F608D9491908F1FF3279D28B4236
:100D400077D9A8F102082944C91AB1FBF0F3BFB260
:100D500000FB131147EA01470CFB03F2BA4207D923
:100D60007F1903F1FF3160D2BA425ED9023B2F44B2
:100D7000BF1A43EA084390E7C8F1200203FA08FCCF
:100D800025FA02F343EA0C0C4FEA1C4921FA02F35C
:100D900001FA08F720FA02F2B3FBF9F1174309FB55
:100DA00011333A0C1FFA8CFB42EA03430BFB01FAA6
:100DB0009A4505FA08F008D913EB0C0301F1FF324C
:100DC00035D29A4533D902396344CAEB0303B3FBE6
:100DD000F9F209FB1233BFB247EA03470BFB02F9F2
:100DE000B94508D917EB0C0702F1FF331BD2B945FF
:100DF00019D9023A674442EA0145A5FB0001C9EB53
:100E000007078F424FF000030AD305D02A4620E798
:100E1000624601E73B4614E706FA08F68642F5D239
:100E20006A1E002315E71A46E5E70B46A0E71146C0
:100E3000CBE7904688E7434642460AE7023A53E743
:100E400002392F443CE700BF2DE9F00F1446054658
:100E50000E46002B43D18A4253D9B2FA82F757B1DA
:100E6000C7F1200620FA06F601FA07F302FA07F4A2
:100E70001E4300FA07F5210CB6FBF1F22B0C01FB27
:100E80001267A0B243EA074600FB02F3B34209D956
:100E9000361902F1FF3780F0F680B34240F2F3805A
:100EA000023A2644F61AB6FBF1F3ADB201FB136128
:100EB00045EA014100FB03F0884208D9091903F112
:100EC000FF3680F0E280884240F2DF80023B43EA56
:100ED0000242002310461946BDE8F00F70478B42CE
:100EE0004AD8B3FA83F6002E4DD18B4202D3824208
:100EF00000F2D6800023012210461946BDE8F00F0B
:100F0000704712B90124B4FBF2F4B4FA84F2002A57
:100F10007CD1091B260CA7B20123B1FBF6F02A0CE9
:100F200006FB101142EA014107FB00F28A4207D991
:100F3000091900F1FF3C02D28A4200F2C3806046E8
:100F4000891AB1FBF6F2ADB206FB121145EA014572
:100F500007FB02F7AF4208D92C1902F1FF3180F0EC
:100F60009680A74240F29380023A42EA004210463D
:100F70001946BDE8F00F704700231A46104619467F
:100F8000BDE8F00F7047C6F1200522FA05F4B34022
:100F90001C434FEA144821FA05F301FA06F720FA38
:100FA00005F5B3FBF8FC2F4308FB1C333D0C1FFA7F
:100FB00084FA45EA03430AFB0CF9994502FA06FB59
:100FC00004D91B190CF1FF326DD39446C9EB03030E
:100FD000B3FBF8F508FB1533BFB247EA03470AFB3A
:100FE00005F8B84504D93F1905F1FF3361D31D4613
:100FF00045EA0C4CACFB0B23C8EB07079F424FF0B4
:10100000000549D345D062462B4663E79440C2F1C0
:10101000200321FA03FC260C20FA03F301FA02F55F
:10102000BCFBF6F843EA05010B0C06FB18CCA7B293
:1010300043EA0C4C07FB08F3634500FA02F509D9B3
:101040001CEB040C08F1FF323AD2634538D9A8F101
:101050000208A444C3EB0C0CBCFBF6F389B206FBFC
:1010600013CC41EA0C4107FB03F28A4207D9091964
:1010700003F1FF3022D28A4220D9023B2144891A4F
:1010800043EA084349E73A460CE733461FE70A4676
:101090006BE7B0409042B6D20CF1FF32002319E763
:1010A0003346324616E799458FD9ACF1020C2344FA
:1010B0008CE7B8459BD9023D274499E70346DEE714
:1010C0009046C7E7023821443AE700BF80B582B0B6
:1010D00000AF78607B680A4A1A600A4800F0CCFBCF
:1010E0007B680433184600F047FC0023002B02D035
:1010F000786800F06DFC7B6818460837BD4680BDF7
:10110000788900081C81000880B582B000AF786043
:101110007868FFF7DBFF786800F05AFC7B681846B8
:101120000837BD4680BD00BF80B582B000AF786093
:101130007B680A4A1A600A4800F09EFB7B68043309
:10114000184600F019FC0023002B02D0786800F04C
:101150003FFC7B6818460837BD4680BDC089000843
:101160002C81000880B582B000AF78607868FFF706
:10117000DBFF786800F02CFC7B6818460837BD461A
:1011800080BD00BF80B582B000AF78607B68064A42
:101190001A600023002B02D0786800F019FC7B68ED
:1011A00018460837BD4680BD6089000880B582B00A
:1011B00000AF78607868FFF7E5FF786800F008FC1A
:1011C0007B6818460837BD4680BD00BF80B584B037
:1011D00000AFF860B9607A603B60044800F04CFBF7
:1011E000002318461037BD4680BD00BF408100086F
:1011F00080B582B000AF786039607B681846396886
:1012000064224FF4FA6303F09BFA7B68034A1A6086
:101210007B6818460837BD4680BD00BF208900089E
:1012200080B582B000AF786004480121012200231C
:1012300001F0DEFC0837BD4680BD00BF7400002011
:1012400080B582B000AF78601B4801F023FE0346F2
:10125000DB431948194601F0D1FD00F09DFC024620
:101260000B4610461946FFF71DF902460B4610467D
:1012700019460DA3D3E90023FFF76CFA02460B468B
:101280000E4800F0B3FA00F087FC09A3D3E900236D
:10129000121843EB010310461946002203F0A0FB8D
:1012A000D2E700BFAFF300800000000065CDCD4164
:1012B00000CA9A3B0000000074000020C8810008AA
:1012C00080B584B000AFF860B9607A60FB681846FA
:1012D000B96801227B6800F0CBFCFB68034A1A6006
:1012E000FB6818461037BD4680BD00BF5089000816
:1012F00080B483B000AF78607B68044A1A607B6872
:1013000018460C37BD465DF8047B704760890008BD
:1013100080B582B000AF78607B681846FFF7E8FFC1
:101320007B68114A1A607B681A1D7B689A607B682B
:101330005A1D7B68DA607B689A1D7B681A617B683E
:1013400000221A7579684FF000024FF00003C1E9DE
:1013500008237B68D3E908237968C1E906237B6801
:1013600018460837BD4680BD3889000880B582B070
:1013700000AF78607B68084A1A607B68184603F003
:101380004DFA0023002B02D0786800F021FB7B6827
:1013900018460837BD4680BD2089000880B582B058
:1013A00000AF78607868FFF7E1FF786800F010FB25
:1013B0007B6818460837BD4680BD00BF80B582B047
:1013C00000AF78607B68084A1A607B681846FFF7B0
:1013D000D9FE0023002B02D0786800F0F9FA7B6870
:1013E00018460837BD4680BD3889000880B582B0F0
:1013F00000AF78607868FFF7E1FF786800F0E8FAFE
:101400007B6818460837BD4680BD00BF80B584B0F4
:1014100002AF786039607B68012B3CD13A684FF6A7
:10142000FF739A4237D11D481D4940F2D17200F036
:10143000F3F81A481B491C4A06F06AFE1B483C2177
:1014400001F0A2FB1A484FF0FF311A4AFFF738FFAC
:1014500017481949144A06F05BFE1848FFF758FF71
:1014600016481749104A06F053FE0023009315480A
:101470000F49124A144B00F0B5FA124813490A4AB0
:1014800006F046FE12481349FFF7B2FE1048124913
:10149000054A06F03DFE0837BD4680BD58000020D5
:1014A000EC81000859160008940200207400002006
:1014B00090000020F881000811150008B8000020F5
:1014C000BD130008E0000020048200082911000874
:1014D00010010020188200086D13000880B584B048
:1014E00000AFF860B9607A603B607B68012B04D97B
:1014F000064800F0C1F9002304E0F868396800F0FC
:1015000035F8012318461037BD4680BD24820008F7
:1015100080B582B000AF78607B680A4A1A600A48DA
:1015200000F0AAF97B681846FFF7D0FD0023002BD6
:1015300002D0786800F04CFA7B6818460837BD4640
:1015400080BD00BF508900083882000880B582B095
:1015500000AF78607868FFF7DBFF786800F038FA52
:101560007B6818460837BD4680BD00BF80B485B093
:1015700000AF786039607B68DB68FB607B689A68E5
:101580007B68DA607B68FA689A607B681B7DDBB2F7
:10159000002B09D07B689B68FB607B681A697B68BD
:1015A0009A607B68FA681A617B68D3E90623013286
:1015B00043F100037968C1E906231437BD465DF89D
:1015C000047B704780B500AF01204FF6FF71FFF735
:1015D0001DFF80BD80B483B000AF78607B681B685E
:1015E00018460C37BD465DF8047B704780B483B065
:1015F00000AF78607B685B6818460C37BD465DF8C5
:10160000047B704780B483B000AF78600C37BD4670
:101610005DF8047B704700BF80B584B000AFF86010
:10162000B9607A60FB68043318460949BA68002338
:1016300000F05AF9FB68074A1A60FB687A685A6139
:10164000FB6801221A76FB6818461037BD4680BD3C
:10165000600100208889000880B582B000AF786002
:101660007B680A4A1A600A4800F006F97B6804336E
:10167000184600F081F90023002B02D0786800F0B2
:10168000A7F97B6818460837BD4680BD88890008E1
:101690004882000880B582B000AF78607868FFF7B4
:1016A000DBFF786800F094F97B6818460837BD4680
:1016B00080BD00BF80B483B000AF78607B6801223A
:1016C0001A760C37BD465DF8047B704780B483B052
:1016D00000AF78607B6800221A760C37BD465DF853
:1016E000047B704780B485B000AFF860B9607A6061
:1016F0003B604FF0FF3318461437BD465DF8047B5E
:10170000704700BF90B583B000AF154B1B68002B2E
:1017100003D0134B1B68043B00E000237B6018E000
:101720007B685C697B6804331846FFF75FFF0346FC
:101730000C4821461A4600F059F87B6804331846D5
:10174000FFF748FF0346002B01D0043B00E00023D5
:101750007B607B68002BE3D10C37BD4690BD00BF9A
:10176000600100205C82000880B582B000AF786024
:101770007B68064A1A600023002B02D0786800F0CC
:1017800027F97B6818460837BD4680BDA889000840
:1017900080B582B000AF78607868FFF7E5FF7868C1
:1017A00000F016F97B6818460837BD4680BD00BFBB
:1017B00080B582B000AF78600B46FB7097F90330BC
:1017C000184602F063FC0837BD4680BD80B483B084
:1017D00000AF78607B68044A1A607B6818460C3753
:1017E000BD465DF8047B7047A88900080FB480B53A
:1017F00082B000AF1C4B1B68002B2FD03B46184615
:10180000FFF7E4FF07F114037B60184B1B68002B04
:1018100005D0164B1B681648194600F067FE02F00B
:101820008BFE034683F00103DBB2002B05D03B4661
:101830001846396900F0E8FB0AE00E4802F0CAFEDB
:101840003B461846396900F0DFFB0A4802F020FFEA
:1018500002F05EFC3B461846FFF786FF0837BD46A0
:10186000BDE8804004B070470400002064010020FF
:10187000788200086801002080B582B000AF7860EF
:10188000074B7A681A6007487968FFF7AFFF064B85
:101890001B685A1C044B1A600837BD4680BD00BF48
:1018A000000000208C8200086401002080B582B016
:1018B00000AF786039607B68012B07D13A684FF63A
:1018C000FF739A4202D1034802F06CFE0837BD460E
:1018D00080BD00BF6801002080B500AF01204FF639
:1018E000FF71FFF7E3FF80BD80B584B000AFF86003
:1018F000B9607A603B60FB683A68DA60FB687A68D6
:101900005A60084B1B68591C064A1160FA689360BC
:10191000F868B96800F008F8FB6818461037BD464B
:1019200080BD00BF7801002080B582B000AF786034
:1019300039603B681A687B681A603B687A681A608D
:101940000A4B1B68002B0CBF00230123DBB2002BCA
:1019500008D00748FFF790FF7B685B680548194689
:10196000FFF744FF0837BD4680BD00BFE0020020FE
:10197000B8820008EC82000880B582B000AF7860C1
:101980000348FFF779FF7B6818460837BD4680BDDE
:101990001083000880B485B000AF78600023FB603E
:1019A0007B68002B01D100230BE005E0FB680133CD
:1019B000FB607B6801337B607B681B78002BF5D173
:1019C000FB6818461437BD465DF8047B704700BFBE
:1019D00080B483B000AF78600C37BD465DF8047BFF
:1019E000704700BF80B584B000AFF860B9607A601E
:1019F0003B60FB68043318461049114A0023FFF787
:101A000073FFFB680F4A1A60FB68BA685A61FB688B
:101A10002033184602F0C6FDFB683A7E1A77FB6851
:101A200001225A77FB683A689A60FB687A689A6183
:101A3000FB6818461037BD4680BD00BFA8030020D4
:101A400038830008C089000880B485B000AFF86012
:101A5000B9607A603B60034B18461437BD465DF8A9
:101A6000047B704715CD5B0790B587B002AFF86077
:101A7000B9607A603B60FB685B7F83F00103DBB297
:101A8000002B01D000233DE0FB682033184602F014
:101A9000A1FDFB689B69002B0FD0FB689B691B684D
:101AA00008331C68FB689A697B68396A00911046A4
:101AB000B9681A463B68A04718E0FB681B681C68B9
:101AC0003B6A5B690093F868B9687A683B68A0472D
:101AD00002460E4B9A420CBF00230123DBB2002BBF
:101AE00004D00B48FFF7C8FE01230BE0FB6820334E
:101AF000184602F0CDFDFB689B69002B01D0012345
:101B000000E0002318461437BD4690BD15CD5B0795
:101B10004483000890B58DB002AFF860B9607A6078
:101B20003B60FB689B69002B0FD0FB689B691B68BF
:101B300008331C68FB689A693B6807F11001009143
:101B40001046B9681A467B68A0472C37BD4690BD41
:101B500080B483B000AF786079684FF000024FF036
:101B60000003C1E9002379684FF000024FF0000341
:101B7000C1E9022379684FF000024FF00003C1E988
:101B800004237B6811229A617B6818460C37BD4696
:101B90005DF8047B704700BF80B500AF02F0DCF950
:101BA00002460B461046194680BD00BF80B584B082
:101BB00000AFC7E90201C7E90023D7E90223D7E94B
:101BC0000601904271EB030C02DAD7E902232CE004
:101BD000D7E9002352EA030104D14FF0FF326FF03E
:101BE000004322E0D7E90601D7E90223821A61EB1C
:101BF000030310461946D7E90023FEF73BFF0246D0
:101C00000B46013243F10003396803FB01F07968A8
:101C100002FB01F101443868A0FB022319440B4682
:101C2000D7E90201121843EB010310461946103799
:101C3000BD4680BD80B582B000AF786039607B68FA
:101C4000012B07D13A684FF6FF739A4202D103483D
:101C5000FFF77EFF0837BD4680BD00BF8001002032
:101C600080B500AF01204FF6FF71FFF7E3FF80BDA5
:101C700080B586B000AFF860B9607A603B60FB6801
:101C8000043318462E493A680023FFF72DFEFB68FF
:101C90002C4A1A60FB6800225A61FB68BA68DA6154
:101CA000FB687A681A62FB6800229A61FB68DB694C
:101CB000B3F1FF3F11D1386803F060F903461A46CB
:101CC000FB68DA61FB68DB69B3F57A7F05DAFB68EC
:101CD000DB6903F57A72FB68DA61194B1B68002B2C
:101CE00003D0174B1B68043B00E000237B611EE020
:101CF0007B69DA69BB689A420DD17A69FB689A42BE
:101D000009D01148FFF7B8FD7B699B680F48B96897
:101D10003A68FFF76BFD7B6904331846FFF75AFCFE
:101D20000346002B01D0043B00E000237B617B696C
:101D3000002BDDD1FB6818461837BD4680BD00BFBB
:101D4000B803002078890008A4830008B88300083D
:101D500080B582B000AF78607B680A4A1A600A4892
:101D6000FFF78AFD7B681846FFF7B0F90023002BC8
:101D700002D07868FFF72CFE7B6818460837BD460E
:101D800080BD00BF008A00083084000880B582B0A2
:101D900000AF78607868FFF7DBFF7868FFF718FE20
:101DA0007B6818460837BD4680BD00BF80B584B04B
:101DB00000AFF860B9607A60FB681846B9680C2219
:101DC0007B68FFF755FFFB68034A1A60FB681846FB
:101DD0001037BD4680BD00BF008A000880B584B0C2
:101DE00000AFF860B9607A60FB681846B96840F2E5
:101DF0002E527B68FFF73CFFFB68034A1A60FB68C2
:101E000018461037BD4680BDF089000880B584B003
:101E100000AFF860B9607A60FB681846B9680422C0
:101E20007B68FFF725FFFB68034A1A60FB681846CA
:101E30001037BD4680BD00BFE089000880B582B084
:101E400000AF786039607B68012B4FD13A684FF65C
:101E5000FF739A424AD1274827490A22FFF7DCFB41
:101E600024482649264A06F053F926480021264AE6
:101E7000FFF79CFF23482549214A06F049F92448E9
:101E80004FF0FF31234AFFF7A9FF214822491C4A9E
:101E900006F03EF921484FF0FF31214AFFF7B6FF27
:101EA0001E482049164A06F033F91F484FF0FF310B
:101EB0001E4AFFF7ABFF1C481A49114A06F028F9E1
:101EC0001B484FF0FF311B4AFFF7A0FF1848154988
:101ED0000B4A06F01DF918484FF0FF31174AFFF77B
:101EE00065FF15480949064A06F012F90837BD464C
:101EF00080BD00BFA00100204084000859160008E2
:101F000094020020BC01002054840008511D0008E8
:101F1000E0010020648400089D1F000804020020E6
:101F200070840008411F00082802002080840008F7
:101F30004C0200209084000870020020A484000855
:101F400080B582B000AF78607B680A4A1A600A48A0
:101F5000FFF792FC7B681846FFF7B8F80023002BC8
:101F600002D07868FFF734FD7B6818460837BD4615
:101F700080BD00BFE08900083084000880B582B0D1
:101F800000AF78607868FFF7DBFF7868FFF720FD27
:101F90007B6818460837BD4680BD00BF80B582B05B
:101FA00000AF78607B680A4A1A600A48FFF764FC51
:101FB0007B681846FFF78AF80023002B02D0786868
:101FC000FFF706FD7B6818460837BD4680BD00BF99
:101FD000F08900083084000880B582B000AF7860D6
:101FE0007868FFF7DBFF7868FFF7F2FC7B6818463C
:101FF0000837BD4680BD00BF80B500AF01204FF659
:10200000FF71FFF71BFF80BD80B594B000AF786013
:10201000396056E2002387F84E30002387F84D30B0
:10202000002387F84C30002387F84B3097F84F3067
:10203000252B0AD07B681B6808331B6897F84F2054
:1020400052B27868114698473BE23B685A1C3A60A6
:102050001B7887F84F30002387F84330202387F818
:102060004230032387F8413097F84F30302B09D1A5
:1020700097F84F3087F842303B685A1C3A601B781B
:1020800087F84F3097F84F302F2B0ED997F84F30F5
:10209000392B0AD897F84F30303B87F843303B68EC
:1020A0005A1C3A601B7887F84F3097F84F302E2B28
:1020B00010D13B685A1C3A601B7887F84F3097F86C
:1020C0004F30303B87F841303B685A1C3A601B78F0
:1020D00087F84F3097F84F306C2B08D1012387F8E1
:1020E0004D303B685A1C3A601B7887F84F3097F8A0
:1020F0004F306C2B08D1012387F84C303B685A1CB9
:102100003A601B7887F84F3097F84F30623B162BB8
:1021100038D801A151F823F01122000875210008D8
:10212000FB21000885210008F52100088521000811
:1021300085210008852100088521000885210008E7
:10214000852100088521000885210008DF2100087D
:102150008521000885210008852100089B210008B1
:10216000852100080122000885210008852100083A
:10217000092200087B685B68191D7A6851601B683A
:1021800087F84F307B681B6808331B6897F84F202F
:1021900052B278681146984793E17B685B68191DD5
:1021A0007A6851601B687B6409E07B681B680833B0
:1021B0001B6897F84F2052B27868114698477B6C9D
:1021C0005A1C7A641B7887F84F3097F84F30002BF1
:1021D0000CBF00230123DBB2002BE6D171E1082301
:1021E000A7F848307B681B6808331B687868302183
:1021F000984711E0012387F84B30012387F84E30D0
:102200000A23A7F8483007E01023A7F8483003E076
:102210000223A7F8483000BF4FF000024FF0000340
:10222000C7E90C234FF000024FF00003C7E90A236F
:1022300097F84B30002B15D07B685B68073323F091
:10224000070303F108017A685160D3E90023C7E965
:102250000A23D7E90A01FEF73FFC02460B46C7E90D
:102260000C232CE097F84C30002B0DD07B685B687A
:10227000073323F0070303F108017A685160D3E9BB
:102280000023C7E90C231AE097F84D30002B0BD040
:102290007B685B68191D7A6851601B681A464FEAB3
:1022A000E273C7E90C230AE07B685B68191D7A6852
:1022B00051601B681A464FEAE273C7E90C2397F88E
:1022C0004E30002B2DD0D7E90C23002A73F10001EA
:1022D0000ADBD7E90A014FF000024FF00003FEF7D6
:1022E00081FB0346002B1CD0D7E90C23524263EB41
:1022F0004303C7E90C23BB6ABB62FB6A83F000435C
:10230000FB627B681B6808331B6878682D2198473F
:1023100097F84330002B04D097F84330013B87F8FF
:10232000433097F84C30002B04D0D7E90C23C7E991
:102330000E2310E097F84D30002B06D03B6B1A4669
:102340004FF00003C7E90E2305E03B6B1A464FF040
:102350000003C7E90E2307F10C031A337B647B6C7F
:10236000013B7B647B6C00221A70B7F848204FF069
:102370000003D7E90E01FEF799FBD3B23033DBB28D
:1023800087F8273097F92730392B05DD97F8273064
:102390000733DBB287F827307B6C013B7B6497F80F
:1023A00027207B6C1A70B7F848204FF00003D7E95C
:1023B0000E01FEF77BFB02460B46C7E90E2397F89A
:1023C0004330002B04D097F84330013B87F843306B
:1023D000D7E90E2352EA0301C7D106E07B6C013B2B
:1023E0007B647B6C97F842201A7097F843305A1E32
:1023F00087F84320002B0CBF00230123DBB2002B06
:10240000ECD109E07B681B6808331B6897F84F2004
:1024100052B27868114698477B6C5A1C7A641B78D4
:1024200087F84F3097F84F30002B0CBF0023012363
:10243000DBB2002BE6D197F84B30002B41D07B6804
:102440001B6808331B6878682E2198472DE0D7E970
:102450000C01FEF727F802460B46D7E90A01FDF703
:102460009BFE02460B46C7E90A23D7E90A014FF053
:1024700000021D4BFEF744F802460B46C7E90A234B
:10248000D7E90A01FEF728FB02460B46C7E90C23F1
:102490007B681B6808331B6897F830203032D2B253
:1024A000D2B252B278681146984797F841305A1E16
:1024B00087F84120002B0CBF00230123DBB2002B47
:1024C000C5D13B685A1C3A601B7887F84F3097F8A3
:1024D0004F30002B0CBF00230123DBB2002B7FF415
:1024E00099AD5037BD4680BD000024400FB480B583
:1024F00082B000AF0C4B1B68002B0FD03B46184638
:10250000FFF764F907F114037B603B46184639690D
:10251000FFF77AFD3B461846FFF726F90837BD4618
:10252000BDE8804004B070470400002080B582B050
:1025300000AF0C4B7B6008E07B681B6898473B68EA
:1025400001333B607B6804337B607A68064B9A42B8
:10255000F2D13B6801333B603B68013B3B6008378D
:10256000BD4680BD608B0008808B000880B485B0BC
:1025700000AFF860B9607A60002318461437BD4692
:102580005DF8047B704700BF80B400AFFEE700BF7A
:10259000002100F004B8124B5B584350043111483D
:1025A000114B42189A42FFF4F6AF104A00F003B8FC
:1025B000002342F8043B0E4B9A42FFF4F9AF0D4A58
:1025C00000F003B8002342F8043B0B4B9A42FFF49F
:1025D000F9AF01F0A3FDFFF7A9FF02F0EBFE704792
:1025E000808B0008000000205800002058000020C8
:1025F0003CB40020000000100000001001F042FD7B
:10260000FFF7FCBF80B483B000AF786039603B68EF
:1026100018460C37BD465DF8047B70470FB480B494
:1026200000AF00231846BD465DF8047B04B0704738
:102630000FB480B400AF00231846BD465DF8047B9C
:1026400004B070470FB480B400AF00231846BD46F5
:102650005DF8047B04B070470FB480B400AF002372
:102660001846BD465DF8047B04B070470FB480B4D3
:1026700000AF00231846BD465DF8047B04B07047E8
:102680000FB480B400AF00231846BD465DF8047B4C
:1026900004B0704780B483B000AF7860012318465F
:1026A0000C37BD465DF8047B704700BF80B483B033
:1026B00000AF7860012318460C37BD465DF8047BF7
:1026C000704700BF80B483B000AF0346FB71084B76
:1026D00097F907205209F97901F01F01012000FA4A
:1026E00001F143F822100C37BD465DF8047B7047BA
:1026F00000E100E080B483B000AF0346FB71094BFA
:1027000097F907205209F97901F01F01012000FA19
:1027100001F1603243F822100C37BD465DF8047BAE
:10272000704700BF00E100E080B500AF124B1B789E
:1027300083F00103DBB2002B1CD00F4B01221A7077
:102740004FF48040012100F06DFF0620FFF7BAFF33
:102750000720FFF7B7FF0820FFF7B4FF0920FFF7B6
:10276000B1FF0A20FFF7AEFF1720FFF7ABFF2820CD
:10277000FFF7A8FF80BD00BFD802002080B582B05F
:1027800000AF786079807A703B707B687A881A80B5
:102790007B687A781A727B683A785A72786800F0A7
:1027A00023F8B7F90230184600F008F902467B68B2
:1027B0005A617B680C33184600F0B4FD7B685B8976
:1027C0001A467B68DA607B6802225A747B680022B2
:1027D0001A747B6800221A767B6800225A767B681E
:1027E00018460837BD4680BD80B483B000AF78601E
:1027F0007B681B7A1A467B681B889BB203F00F0329
:102800001344102B0CDD7B681B889BB203F00F0375
:102810004FF6FF7202FA03F39AB27B685A8117E00F
:102820007B681B7AC3F110034FF6FF7242FA03F381
:102830009AB27B685A817B685B891A467B681B88E1
:102840009BB203F00F0302FA03F39AB27B685A813A
:102850000C37BD465DF8047B704700BF80B582B081
:1028600000AF78607B6801225A767B685B681B68E2
:1028700030331B687A685268104698470A4A7B686A
:102880001B8819B2094B0B40002B03DA013B63F0A4
:102890000F0301339BB21BB2012101FA03F3536111
:1028A0000837BD4680BD00BF003C01400F000080DE
:1028B00080B485B000AF78600023FB6002E0FB6865
:1028C0000133FB607B685B087B607B68002B0CBF7F
:1028D00000230123DBB2002BF1D1FB68184614372B
:1028E000BD465DF8047B704780B483B000AF78606C
:1028F0007B68274A934234D0254A934213D8254A0D
:10290000934228D0234A934206D8234A93421ED0AA
:10291000224A93421DD033E0214A93421DD0214ADE
:1029200093421CD02CE0204A934220D01E4A93426E
:1029300006D81E4A934216D01D4A934215D01FE076
:102940001C4A934216D01C4A934216D018E0012329
:1029500017E0022315E0042313E0082311E01023FD
:102960000FE020230DE040230BE0802309E04FF42B
:10297000807306E04FF4007303E04FF4806300E0DF
:10298000002318460C37BD465DF8047B704700BF36
:10299000001402400008024000000240000402400F
:1029A000000C0240001002400020024000180240CB
:1029B000001C0240002402400028024080B483B082
:1029C00000AF0346FB80B7F906300F2B01DC1C4B30
:1029D00030E0B7F906301F2B01DC1A4B2AE0B7F9BB
:1029E00006302F2B01DC184B24E0B7F906303F2BC3
:1029F00001DC164B1EE0B7F906304F2B01DC144BFF
:102A000018E0B7F906305F2B01DC124B12E0B7F982
:102A100006306F2B01DC104B0CE0B7F906307F2B32
:102A200001DC0E4B06E0B7F906308B2B01DC0C4BBA
:102A300000E0002318460C37BD465DF8047B704764
:102A4000000002400004024000080240000C024066
:102A5000001002400014024000180240001C024016
:102A60000020024080B483B000AF0346FB80FB88A7
:102A700003F00F03012202FA03F39BB218460C374E
:102A8000BD465DF8047B704780B586B000AF024656
:102A90000B46FA807B71B7F90630002B03DBB7F9E0
:102AA00006308B2B02DD4FF0FF3338E0B7F90630EC
:102AB0001846FFF783FF7861B7F906301846FFF72D
:102AC000D1FF03467B827869FFF70EFF0346184665
:102AD000012100F06BFD7869FFF706FF03461846F9
:102AE000002100F0BDFD7B8A1846FFF7E1FE03469A
:102AF0009AB27B79786911461A4600F057FC07F1C3
:102B00000803184600F00EFC02233B737B8ABB606F
:102B100007F108037869194600F076FB0023184690
:102B20001837BD4680BD00BF80B584B000AF0346F6
:102B3000FB80B7F90630002B03DBB7F906308B2B8F
:102B400002DD4FF0FF331AE007F10803184600F0EA
:102B5000E9FB00233B73B7F906301846FFF782FF05
:102B60000346BB60B7F906301846FFF727FF024659
:102B700007F108031046194600F046FB00231846EB
:102B80001037BD4680BD00BF90B583B000AF786000
:102B90000B467B807B68184602F05AFA7B68134A22
:102BA0001A601C2002F074FC02467B689A617B6804
:102BB0009B691C201946FFF725FD0446002C09D00F
:102BC000B7F902302046194601220023FFF7D6FD4F
:102BD000234600E023467A6893617B689B697A68A4
:102BE0005A607B6818460C37BD4690BD108A0008B5
:102BF00080B584B000AFF8607A603B600B46FB7232
:102C00007B68002B04D0FB689B697A68D2B21A7289
:102C1000FB689B69FA7A5A72FB689B691846FFF752
:102C2000E3FDFB689B695B69002B02D14FF0FF332A
:102C300021E0FB689B695B691846FFF755FE034678
:102C40001846012100F0B2FCFB689B695B7A002BFF
:102C500009D0F8680021012200F012F8F8683968FC
:102C600000F0CCF804E0F8680021002200F008F839
:102C7000FFF75AFD002318461037BD4680BD00BF40
:102C800080B584B000AFF8600B467A60FB72FB7AC7
:102C9000042B00F29B8001A252F823F0B12C000813
:102CA000F12C00083B2D0008772D0008B32D0008FB
:102CB0007B68002B08D0FB689B6901225A72FB6875
:102CC0009B6901221A7407E0FB689B6900225A7213
:102CD000FB689B6900221A74FB689B695A69FB6850
:102CE0009B690C331046194600F08EFA00236FE002
:102CF0007B68002B1ED07B68FF2B1BD8FB689B6971
:102D00007A68D2B21A72FB689B691846FFF76CFDAD
:102D1000FB689B69FA6892695289DA60FB689B6973
:102D20005A69FB689B690C331046194600F06CFA2F
:102D300000234DE04FF0FF334AE07B68002B17D0B3
:102D40007B68002B04D0FB689B690122DA7403E0E6
:102D5000FB689B690022DA74FB689B695A69FB680F
:102D60009B690C331046194600F04EFA00232FE001
:102D70004FF0FF332CE07B68002B17D07B68002BD3
:102D800004D0FB689B690222DA7403E0FB689B694C
:102D90000022DA74FB689B695A69FB689B690C33F3
:102DA0001046194600F030FA002311E04FF0FF33CF
:102DB0000EE07B68022B06D8FB689B697A68D2B26A
:102DC0001A76002304E04FF0FF3301E04FF0FF33A9
:102DD00018461037BD4680BD80B582B000AF786020
:102DE0007868002100F09EF87B689B691B881BB205
:102DF0001846FFF799FE0837BD4680BD80B584B000
:102E000000AF7860396000237B817B689B695B7AC7
:102E1000002B3CD040F2EB3002F0CCFB03460133F8
:102E2000FB6031E07B689B695B69184600F0A2FAA1
:102E300003469AB27B689B695B899BB2DB439BB27A
:102E400013409BB27B817B689B691B889BB203F01C
:102E50000F033A6802FA03F39AB27B689B695B89B5
:102E600013409AB27B8913437B817B689B695A69C3
:102E70007B891046194600F08BFAFB68013B184627
:102E800002F098FB0023FB60FB68002BCAD11037CF
:102E9000BD4680BD80B582B000AF78607B689B691D
:102EA0005B7A002B16D07B689B695B69184600F043
:102EB00061FA03461A467B689B695B8913409BB2A3
:102EC0001A467B689B691B889BB203F00F0342FA8A
:102ED00003F315E07B689B695B69184600F03CFAD8
:102EE00003461A467B689B695B8913409BB21A466E
:102EF0007B689B691B889BB203F00F0342FA03F3C4
:102F000018460837BD4680BD80B483B000AF7860F6
:102F10007B689B695B7E18460C37BD465DF8047B79
:102F2000704700BF80B586B000AF78600B46FB707D
:102F30007B689B691B881BB2002B00DA0F331B11C7
:102F40009BB21BB27B617B689B691B881AB24E4B9C
:102F50001340002B03DA013B63F00F0301339BB2F4
:102F60001BB23B613B69FB60FB78002B5DD0474B9C
:102F7000FA6853F822207B689B699A4200D17FE06F
:102F8000424BFA6853F82230002B4AD17B689B6988
:102F90001B7A012B03D93E48FEF76EFC70E07B697B
:102FA000DAB23B69DBB21046194600F0EDFB7B68F4
:102FB0009B691B7E012B04D07B689B691B7E002BC9
:102FC00008D1344B334A916801203A6900FA02F281
:102FD0000A439A607B689B691B7E022B04D07B6846
:102FE0009B691B7E002B08D12A4B2A4AD1680120FD
:102FF0003A6900FA02F20A43DA607B689969234B66
:10300000FA6843F822107B689B6900225A76214BAC
:10301000204A116801203A6900FA02F20A431A6054
:103020002EE01D48FEF728FC2AE0184BFA6853F8FA
:1030300022207B689B699A4222D1164B154A11685F
:1030400001203A6900FA02F2D2430A401A60114B99
:10305000104A916801203A6900FA02F2D2430A400C
:103060009A600C4B0B4AD16801203A6900FA02F2CF
:10307000D2430A40DA60054BFA68002143F8221077
:103080001837BD4680BD00BF0F00008098020020A9
:10309000B0840008003C0140D484000880B500AF33
:1030A000064B1B68002B04D0044B1B681846FFF727
:1030B000D5FB0620FFF71EFB80BD00BF9802002055
:1030C00080B500AF064B5B68002B04D0044B5B68F7
:1030D0001846FFF7C3FB0720FFF70CFB80BD00BFBE
:1030E0009802002080B500AF064B9B68002B04D0EF
:1030F000044B9B681846FFF7B1FB0820FFF7FAFA6C
:1031000080BD00BF9802002080B500AF064BDB6891
:10311000002B04D0044BDB681846FFF79FFB092007
:10312000FFF7E8FA80BD00BF9802002080B500AF2D
:10313000064B1B69002B04D0044B1B691846FFF794
:103140008DFB0A20FFF7D6FA80BD00BF9802002051
:1031500080B582B000AF134B5B693B6005237B6099
:1031600017E03A687B6822FA03F303F00103002BAF
:103170000CD00D4B7A6853F82230002B06D00A4B46
:103180007A6853F822301846FFF768FB7B680133F2
:103190007B607B68092BE4DD1720FFF7ABFA08376B
:1031A000BD4680BD003C01409802002080B582B041
:1031B00000AF134B5B693B600A237B6017E03A6802
:1031C0007B6822FA03F303F00103002B0CD00D4BB4
:1031D0007A6853F82230002B06D00A4B7A6853F8ED
:1031E00022301846FFF73AFB7B6801337B607B682F
:1031F0000F2BE4DD2820FFF77DFA0837BD4680BDA0
:10320000003C01409802002080B487B000AF786095
:10321000396000237B6100233B610023FB600023B6
:103220007B6176E07B69012202FA03F33B613B6834
:103230001A683B691340FB60FA683B699A4265D1A2
:103240007B681A687B695B00032101FA03F3DB43A7
:103250001A407B681A607B681A683B681B791946BC
:103260007B695B0001FA03F31A437B681A603B68D1
:103270001B79012B03D03B681B79022B2ED17B6875
:103280009A687B695B00032101FA03F3DB431A4070
:103290007B689A607B689A683B685B7919467B69B2
:1032A0005B0001FA03F31A437B689A607B685A68F3
:1032B0007B699BB2012101FA03F3DB431A407B686F
:1032C0005A607B685A683B689B7919467B699BB258
:1032D00001FA03F39BB21A437B685A607B68DA6891
:1032E0007B699BB25B00032101FA03F3DB431A40C5
:1032F0007B68DA607B68DA683B68DB7919467B6952
:103300005B0001FA03F31A437B68DA607B690133DF
:103310007B617B690F2B85D91C37BD465DF8047B2B
:10332000704700BF80B483B000AF78607B684FF611
:10333000FF721A607B6800221A717B6800225A7142
:103340007B6800229A717B680022DA710C37BD46D7
:103350005DF8047B704700BF80B483B000AF786035
:103360007B681B699BB218460C37BD465DF8047B31
:10337000704700BF80B483B000AF78607B685B6942
:103380009BB218460C37BD465DF8047B704700BF02
:1033900080B483B000AF78600B467B807A887B680E
:1033A0005A610C37BD465DF8047B704780B485B028
:1033B00000AF786013460A467A807B700023FB607A
:1033C0000023BB607A787B8803F007039B0002FA36
:1033D00003F3FB607B88DB089BB21A467B88DB0823
:1033E0009BB219467B68083153F821107B8803F0A3
:1033F00007039B000F2000FA03F3DB4319407B68AF
:10340000083243F822107B88DB089BB21A467B689F
:10341000083253F82220FB681343BB607B88DB082B
:103420009BB21A467B680832B96843F822101437F9
:10343000BD465DF8047B704780B483B000AF03469F
:10344000FB71044BFA791A600C37BD465DF8047BBA
:10345000704700BF800E474280B489B000AF7860EB
:103460000023BB6100237B610023FB6102233B61DE
:103470000023FB600223BB60484B9B6803F00C03F6
:10348000BB61BB69042B07D0082B09D0002B3FD1AF
:103490007B68434A1A603FE07B68424A1A603BE01F
:1034A0003E4B5B6803F480039B0DFB603B4B5B680A
:1034B00003F03F03BB60FB68002B0DD0394ABB68AB
:1034C000B2FBF3F2354B596847F6C0730B409B09CA
:1034D00003FB02F3FB610CE0314ABB68B2FBF3F281
:1034E0002E4B596847F6C0730B409B0903FB02F350
:1034F000FB612A4B5B6803F440331B0C01335B0018
:103500003B61FA693B69B2FBF3F27B681A6003E046
:103510007B68234A1A6000BF204B9B6803F0F003CE
:10352000BB61BB691B09BB611F4ABB6913441B78A4
:10353000DBB27B617B681A687B69DA407B685A6022
:10354000164B9B6803F4E053BB61BB699B0ABB61EC
:10355000154ABB6913441B78DBB27B617B685A68F0
:103560007B69DA407B689A600C4B9B6803F460438C
:10357000BB61BB695B0BBB610B4ABB6913441B7826
:10358000DBB27B617B685A687B69DA407B68DA6012
:103590002437BD465DF8047B704700BF0038024009
:1035A0000024F40000127A000800002080B483B0E8
:1035B00000AF78600B46FB70FB78002B06D0094B00
:1035C000084A116B7A680A431A6306E0054B054AFC
:1035D000116B7A68D2430A401A630C37BD465DF816
:1035E000047B70470038024080B483B000AF78603D
:1035F0000B46FB70FB78002B06D0094B084A116C78
:103600007A680A431A6406E0054B054A116C7A6829
:10361000D2430A401A640C37BD465DF8047B7047FC
:103620000038024080B483B000AF78600B46FB7076
:10363000FB78002B06D0094B084A516C7A680A4384
:103640005A6406E0054B054A516C7A68D2430A4039
:103650005A640C37BD465DF8047B70470038024061
:1036600080B483B000AF78600B46FB70FB78002B12
:1036700006D0094B084A11697A680A431A6106E0C4
:10368000054B054A11697A68D2430A401A610C3722
:10369000BD465DF8047B70470038024080B483B0BB
:1036A00000AF78600B46FB70FB78002B06D0094B0F
:1036B000084A116A7A680A431A6206E0054B054A0D
:1036C000116A7A68D2430A401A620C37BD465DF827
:1036D000047B70470038024080B483B000AF78604C
:1036E0000B46FB70FB78002B06D0094B084A516A49
:1036F0007A680A435A6206E0054B054A516A7A68BD
:10370000D2430A405A620C37BD465DF8047B7047CD
:103710000038024080B487B000AF0346FB7100233D
:10372000FB6000237B610023FB74FB795B09DBB248
:10373000FB60FB68012B03D1124B1B687B6109E026
:10374000FB68022B03D10F4B1B6F7B6102E00D4B1B
:103750005B6F7B61FB7903F01F03FB60FB687A6999
:1037600022FA03F303F00103002B02D00123FB74C0
:1037700001E00023FB74FB7C18461C37BD465DF856
:10378000047B70470038024090B484B000AF02461A
:103790000B46FA71BB710023FB60BB7903F0030396
:1037A0009B000F2202FA03F3FB60154BBA799208D3
:1037B000D2B21349B8798008C0B2023051F8200063
:1037C000F968C9430140023243F822100C4BBA7920
:1037D0009208D2B20A49B8798008C0B2023051F8D2
:1037E0002000FC79B97901F00301890004FA01F1A4
:1037F0000143023243F822101037BD4690BC704797
:103800000038014080B483B000AF03463960FB71DB
:1038100097F90730002B0BDA0D49FB7903F00F0302
:10382000043B3A68D2B21201D2B20B441A7609E0D4
:10383000084997F907303A68D2B21201D2B20B4464
:1038400083F800230C37BD465DF8047B704700BF4A
:1038500000ED00E000E100E080B584B000AF174B60
:1038600000221A606FF00100FF21FFF7CBFF4FF03D
:10387000FF30FF21FFF7C6FF00F08CFC00F00CF9D1
:1038800002460F4B1A600F4B1A680F4B1A600F4815
:103890004FF4E13102F078F900F006FB3B461846A0
:1038A000FFF7DAFD3A680A4BA3FB02139B0C0948A9
:1038B0001946FDF79BFF1037BD4680BDE002002092
:1038C00000030020107AFF1F3C000020E4020020CB
:1038D00083DE1B430885000880B400AF72B6BD4686
:1038E0005DF8047B704700BF80B400AF62B6BD4690
:1038F0005DF8047B704700BF80B483B000AF786090
:1039000039607B68043B7B607B684FF080721A6093
:103910007B68043B7B60104A7B681A607B68043BD1
:103920007B607B6800221A607B68143B7B603A688E
:103930007B681A607B68043B7B607B686FF00202E7
:103940001A607B68203B7B607B6818460C37BD465D
:103950005DF8047B704700BF254B000803480068F2
:10396000006880F3088862B600DF00BF08ED00E061
:1039700003490868B0E8F04F80F30988704700BF3A
:10398000DC02002071B6EFF309801EF0100F08BFB3
:1039900020ED108A20E9F04F00F05CFD0649086830
:1039A000B0E8F04F1EF0100F08BFB0EC108A80F3A3
:1039B000098861B6704700BFDC02002080B483B084
:1039C00000AF7860034B7A681A600C37BD465DF82B
:1039D000047B7047DC02002080B400AF044B044A33
:1039E000526842F080525A60BD465DF8047B7047D1
:1039F00000ED00E098B500AF1848102103F08EFFED
:103A00000346002B0CBF00230123DBB2002B24D084
:103A1000134B1B681C46621C114B1A600F4803F0C5
:103A2000D9FE03469AB20F4B23F814200B481021FD
:103A300003F09EFF0A4B1B68012B0ED9094B5A88D5
:103A4000084B1B88D31A9BB21A46074B1A60044BCB
:103A500000221A60054B01221A7098BD000C00402C
:103A60000C030020100300200403002008030020A2
:103A700080B400AFBD465DF8047B704780B500AFF1
:103A8000044B1B68002B02D1FFF7B4FF01E0FFF7E6
:103A9000EFFF80BD0003002080B588B000AF414B30
:103AA0001B68002B02D03F4B1B6876E03E4B002288
:103AB0001A603E4B00221A703D4B00221A60012012
:103AC000FFF7BAFC00BF6120FFF724FE0346002B7E
:103AD00014BF00230123DBB2002BF4D10820012105
:103AE000FFF782FD3348402103F052FF31480021A7
:103AF000012203F0DBFD0C233B8200237B820123A8
:103B0000BB820C23FB8200233B8307F1100329486F
:103B1000194603F00BFE32233B7700237B7700230B
:103B2000BB770123FB7707F11C03184603F018FC51
:103B30002048012103F0DAFD1E4B00221A821D48A5
:103B40001021012203F0C6FE00BF184B1B78DBB228
:103B500083F00103DBB2002BF7D1164803F05EFCC3
:103B60003B461846FFF778FC134B9B6803F4E05381
:103B7000002B14BF00230123DBB2002B06D0BA6850
:103B8000094B1B68B2FBF3F3DB0006E0BB685A008D
:103B9000054B1B68B2FBF3F3DB0018462037BD462C
:103BA00080BD00BF000300200403002008030020A4
:103BB0000C030020000C00400038024080B584B0A7
:103BC00002AF786039607B68012B10D13A684FF6FC
:103BD000FF739A420BD14FF0FF3300934FF0FF3346
:103BE0000193044803213822392301F06DFE083780
:103BF000BD4680BDE402002080B500AF01204FF635
:103C0000FF71FFF7DBFF80BD80B483B000AF0346D8
:103C1000FB71084B97F907205209F97901F01F0150
:103C2000012000FA01F143F822100C37BD465DF87F
:103C3000047B704700E100E080B483B000AF03462E
:103C4000FB71094B97F907205209F97901F01F011F
:103C5000012000FA01F1603243F822100C37BD4612
:103C60005DF8047B704700BF00E100E080B483B0E2
:103C700000AF03463960FB7197F90730002B0BDA70
:103C80000D49FB7903F00F03043B3A68D2B21201ED
:103C9000D2B20B441A7609E0084997F907303A681E
:103CA000D2B21201D2B20B4483F800230C37BD46C6
:103CB0005DF8047B704700BF00ED00E000E100E02C
:103CC00080B582B000AF144B1B7883F00103DBB2E8
:103CD000002B00D01CE0FDF75FFFC7E90001D7E92A
:103CE000000101F07BFCFDF757FF0C4BD3E90023EB
:103CF000904271EB030CACBF00230123DBB2002B1D
:103D000000D005E0064B064A526842F080525A60E5
:103D10000837BD4680BD00BF3400002040030020AE
:103D200000ED00E080B582B000AF78607B68B3F151
:103D3000807F01D301230EE0094B7A6822F07F4295
:103D4000013A5A604FF0FF300F21FFF78FFF044B0D
:103D500000229A60002318460837BD4680BD00BF88
:103D600010E000E080B400AF044B03221A6000238F
:103D70001846BD465DF8047B704700BF10E000E0C8
:103D800080B400AF044B00221A6000231846BD46E1
:103D90005DF8047B704700BF10E000E0B0B500AFF5
:103DA0000F4B1B68DB0818464FF000010D4BD3E9A1
:103DB000002302FB01F500FB03F42C44A0FB0223CB
:103DC000E1180B4610461946074A4FF00003FCF76E
:103DD00051FE02460B4613461846FFF7A3FFB0BD3F
:103DE000200000201800002040420F00B0B500AFB6
:103DF000104B1B68DB0818464FF000010E4BD3E94F
:103E0000002302FB01F500FB03F42C44A0FB02237A
:103E1000E1180B4610461946084A4FF00003FCF71C
:103E200029FE02460B4613461846FFF77BFFFFF7B5
:103E300099FFB0BD200000201800002040420F0074
:103E400080B500AFFFF79CFF80BD00BF80B483B09A
:103E500000AFC7E900010549D7E90023C1E9002304
:103E60000C37BD465DF8047B704700BF180000208A
:103E700080B500AF0948012103F07AFD1A20FFF751
:103E8000DBFE074BD3E90001064A4FF0000312188E
:103E900043EB01030249C1E9002380BD0048014012
:103EA000180300208096980080B588B000AF0023EA
:103EB000FB774FF480200121FFF7B4FB4FF4802003
:103EC0000021FFF709FC3B461846FFF7C5FA2048DA
:103ED00003F0A4FA7A68FB68B2FBF3F3012B02D972
:103EE0000223FB7701E00123FB774EF660237B6121
:103EF000FB68FA7F02FB03F2164BA3FB0213DB0CF9
:103F00009BB2013B9BB23B8200237B8200233B831D
:103F10000023BB7607F110030D48194603F05CFB44
:103F20000B480121012203F0D5FC4FF48020012130
:103F300003F06AF80648012103F0D8FB1A20FF219C
:103F4000FFF794FE1A20FFF75FFE2037BD4680BDC5
:103F500000480140819F5E1680B586B000AF002307
:103F60007B614FF000024FF00003C7E90223284BAA
:103F7000D3E90023C7E90223264803F0ABFB03463D
:103F80007B61234BD3E90023D7E90201994208BFA3
:103F90009042ECD14FF000024FF00003C7E900233C
:103FA00019A3D3E90023C7E900237B691A464FEA26
:103FB000E273796802FB01F0396803FB01F1014407
:103FC0003868A0FB022319440B46C7E90023C7E960
:103FD0000023D7E90023104619460F4A4FF000038B
:103FE000FCF748FD02460B46C7E90023D7E900016C
:103FF000D7E90223121843EB01031046194618377C
:10400000BD4680BDAFF30080AA21EF09000000008B
:10401000180300200048014040420F00AFF3008029
:1040200080B400AF05494FF000024FF00003C1E932
:104030000023BD465DF8047B704700BF18030020D5
:1040400080B400AFFEE700BF80B400AF04205FEA99
:104050000E01084200F00480EFF3098000F002B87E
:10406000EFF30880416900BEFEE700BF80B400AFF7
:10407000FEE700BF80B400AFFEE700BF80B400AF32
:10408000FEE700BF80B400AFFEE700BF80B584B09C
:1040900000AF78607B68FB7397F90F300A2B02D171
:1040A0000D20FFF7F3FF16E000F046FA0346002B61
:1040B00007D013484FF0FF326FF0004300F0E4FFE9
:1040C00009E000BF0E4802F079F8034683F00103CF
:1040D000DBB2002BF6D197F90F300948194601F0F1
:1040E000E7FF0346B3F1FF3F14BF00230123DBB218
:1040F000002BD9D197F90F3018461037BD4680BD37
:10410000E402002080B400AFBD465DF8047B704738
:1041100080B400AFBD465DF8047B704780B500AF4A
:10412000184B184A526822F080425A60164B164AC1
:10413000D2F8882042F47002C3F88820134B134A47
:10414000126842F001021A60104B00229A600F4A76
:104150000E4B1B6823F0847323F4803313600B4BE6
:104160000B4A5A60094B094A126822F480221A60ED
:10417000064B0022DA6000F089F8034B4FF0006232
:104180009A6080BD30EF00E000ED00E000380240B2
:104190001030002480B487B000AF00233B610023BF
:1041A0007B610223FB600023BB6002237B60324BF8
:1041B0009B6803F00C033B613B69042B07D0082B81
:1041C00009D0002B3FD12D4B2D4A1A603FE02B4BDD
:1041D0002C4A1A603BE0284B5B6803F480039B0D7C
:1041E000BB60254B5B6803F03F037B60BB68002B23
:1041F0000DD0244A7B68B2FBF3F21F4B596847F697
:10420000C0730B409B0903FB02F37B610CE01C4A6B
:104210007B68B2FBF3F2184B596847F6C0730B404A
:104220009B0903FB02F37B61134B5B6803F4403390
:104230001B0C01335B00FB607A69FB68B2FBF3F295
:104240000E4B1A6003E00D4B0D4A1A6000BF0A4B7B
:104250009B6803F0F0031B090B4AD35CDBB23B61A4
:10426000064B1A683B69DA40044B1A601C37BD469E
:104270005DF8047B704700BF00380240200000203A
:104280000024F40000127A002400002080B483B0DF
:1042900000AF00237B6000233B60694B684A1268D3
:1042A00042F480321A60664B1B6803F400333B60B3
:1042B0007B6801337B603B68002B03D17B68B3F5DF
:1042C000A04FF0D15E4B1B6803F40033002B02D0EB
:1042D00001233B6001E000233B603B68012B43D19D
:1042E000574B574A126C42F080521A64554B554A4C
:1042F000126842F440421A60514B514A92689A60E7
:104300004F4B4F4A926842F400429A604C4B4C4AE1
:10431000926842F4A0529A60494B4B4A5A60484B0B
:10432000474A126842F080721A6000BF444B1B6813
:1043300003F00073002BF9D0444B40F205721A6071
:104340003F4B3F4A926822F003029A603C4B3C4A42
:10435000926842F002029A6000BF394B9B6803F0FA
:104360000C03082BF9D165E0354B354A126C42F04D
:1043700080521A64334B334A126842F400421A6086
:104380002F4B2F4A126C42F080521A6400BF2C4B04
:104390001B6803F00203002BF9D02A4B294A12684C
:1043A00042F080021A60264B254A126822F0807281
:1043B0001A6000BF224B1B6803F00073002BF9D179
:1043C0001F4B234A5A601E4B1D4A126842F08072EE
:1043D0001A6000BF1A4B1B6803F00073002BF9D062
:1043E0001A4B40F202721A60184B1B6803F00F035D
:1043F000022B00D0FEE7124B114A926842F00202F3
:104400009A6000BF0E4B9B6803F00803002BF9D0A5
:104410000B4B0B4A926822F0F0029A60084B084A54
:10442000926842F480529A60054B054A926822F4E1
:1044300060429A600C37BD465DF8047B704700BF50
:10444000003802400070004008544027003C024001
:104450001054002780B582B000AF7860044B1B6811
:104460007A681A6200F026F80837BD4680BD00BFA2
:104470009803002080B500AF0B4B19684FF0000285
:104480004FF00003C1E90A23074B1A68074B1A6073
:10449000074B01221A60044B1B68184600F038FADB
:1044A000FFF75CFA80BD00BF3800002098030020B1
:1044B000E002002080B584B000AF1C4BD3E900239C
:1044C000013243F100031949C1E90023184BD3E934
:1044D0000023C7E90223D7E9022352EA030103D1EB
:1044E000FDF75AFBC7E9020111494FF000024FF0F6
:1044F0000003C1E900230F4B1B687B607B68002B26
:1045000004D1D7E9020100F06BFB7860094B00226F
:104510001A60064BD3E900237968C1E91223786851
:1045200000F0F6F91037BD4680BD00BF280300201B
:10453000380300203003002080B400AF054B1B6817
:10454000002BD4BF00230123DBB21846BD465DF823
:10455000047B7047E002002080B483B000AF786035
:1045600039607B68012B0CD13A684FF6FF739A4291
:1045700007D16FF00302054B134423F00702044BED
:104580001A600C37BD465DF8047B7047200300209D
:104590002003002080B500AF01204FF6FF71FFF728
:1045A000DBFF80BD80B483B000AF78607B68002201
:1045B0001A607B6800225A607B6800229A607B68E0
:1045C0000022DA607B6818460C37BD465DF8047B34
:1045D000704700BF80B586B000AF786000F0D8F9B2
:1045E0003861386900F0BAF9F86040F2EB3000F059
:1045F000E1FF034601337B6142E07B681B68002BCF
:104600002CD07B681A683B699A4227D07B681B686C
:10461000184600F0A3F90246FB689A42ACBF00239B
:104620000123DBB2002B05D07B681B681846F968B4
:1046300000F0A0F906E04FF0FF306FF000417A681B
:1046400000F0CEF97B681B68002B04D07B681A68E9
:104650003B699A42EFD17B680022DA607B683A6955
:104660001A607B68FA685A607B68DB685A1C7B6852
:10467000DA607B69013B184600F09CFF00237B61F8
:104680007B69002BB9D100F00DF91837BD4680BD0C
:1046900080B586B000AF786000F07AF9F86000234A
:1046A0007B617B681A68FB689A4200D03BE07B68BC
:1046B000DB685A1E7B68DA607B68DB68002B00DDF4
:1046C00031E040F2EB3000F075FF034601333B610F
:1046D0001DE07B685B6801333B617B6800225A60A8
:1046E0007B6800221A60786800F052FB78617B6971
:1046F000002B05D07B687A691A60786900F054F95C
:104700003B69013B184600F055FF00233B613B69C4
:10471000002BDED17B69002B05D07B685B68002B0A
:1047200001D100F0BFF81837BD4680BD80B483B01A
:1047300000AF78600C37BD465DF8047B704700BF62
:1047400080B586B000AFF860B9607A603B60FB6806
:10475000043318462E49BA680023FDF7C5F8FB68F4
:104760002C4A1A60FB683A685A61FB685B69184614
:1047700000F08EFE0246FB68DA61FB68DA69FB68CE
:104780005B69043B134423F007031A46FB689A61F4
:10479000FB689B697B6105E07B691F4A1A607B6946
:1047A000043B7B617A69FB68DB699A42F4D2FB685F
:1047B0009B691846F968FFF79FF80246FB681A6282
:1047C000F9684FF000024FF00003C1E91223FB68C3
:1047D0007A685A62F9684FF000024FF00003C1E9AD
:1047E0000A23FB6800221A63F9684FF0FF326FF06A
:1047F0000043C1E90E23F9684FF000024FF00003B7
:10480000C1E91023FB6818461837BD4680BD00BFBC
:104810009C030020688A0008EFBEADDE80B582B040
:1048200000AF78607B680F4A1A607B6804331846D3
:10483000FCF7DCFE03460C481946FCF7D7FF0B4893
:10484000FDF71AF87B6804331846FDF795F8002346
:10485000002B02D07868FDF7BBF87B681846083754
:10486000BD4680BD688A0008188500081C850008C0
:1048700080B582B000AF78607868FFF7CFFF7868C6
:10488000FDF7A6F87B6818460837BD4680BD00BF17
:1048900080B483B000AF78600C37BD465DF8047B10
:1048A000704700BF80B584B000AF164B1B7883F013
:1048B0000103DBB2002B00D020E0FDF76DF9C7E962
:1048C0000201D7E9020100F08BF9786000F060F88E
:1048D00002467B689A4214BF00230123DBB2002BFF
:1048E00000D00BE0084B7A681A600849D7E9022328
:1048F000C1E90023FFF7A4FAFFF76EF81037BD46B1
:1049000080BD00BF340000203003002038030020A9
:1049100080B582B000AF78600D4B7A681A600D4B9D
:104920001A680D4B9A42CCBF00230123DBB2002B47
:1049300004D0084B1B685A1C064B1A60FFF756FA46
:104940007B681B6A1846FFF739F80837BD4680BDFB
:1049500098030020E0020020FEFF0F0080B483B027
:1049600000AF78607B685B6A18460C37BD465DF81F
:10497000047B704780B483B000AF786039607B6897
:104980003A685A620C37BD465DF8047B704700BF39
:1049900080B400AF034B1B681846BD465DF8047B2E
:1049A000704700BF9803002080B483B000AF7860E8
:1049B0000A494FF000024FF00003C1E900237B6871
:1049C00000221A6379684FF000024FF00003C1E93A
:1049D0000A230C37BD465DF8047B70474003002076
:1049E00080B586B000AFC7E902017A60FFF7D0FF5B
:1049F000386140F2EB3000F0DDFD034601337B61AE
:104A00000EE03B697A681A633969D7E90223C1E984
:104A10000A237B69013B184600F0CCFD00237B6133
:104A20007B69002BEDD1FFF73DFF3B6900221A6344
:104A30003B69D3E90A231343002B14BF002301234E
:104A4000DBB2002B01D0012300E000231846183709
:104A5000BD4680BDB0B582B000AF2E48FDF746FD23
:104A60002D4B1B68002B03D02B4B1B68043B00E035
:104A700000237B6027E07B685D6A7B685C697B68FC
:104A800004331846FCF7B2FD034624482946224663
:104A9000FDF72CFD7B681B680C331B687868984712
:104AA00079684FF000024FF00003C1E90A237B68E8
:104AB00004331846FCF78EFD0346002B01D0043B5F
:104AC00000E000237B607B68002BD4D11448FDF705
:104AD0000DFD114B1B68002B03D00F4B1B68043BD3
:104AE00000E000233B600EE03868FFF7D1FE3B6832
:104AF00004331846FCF76EFD0346002B01D0043B3F
:104B000000E000233B603B68002BEDD10837BD4639
:104B1000B0BD00BF2C8500089C0300204085000824
:104B20006485000880B582B000AF78600C4B7A686D
:104B30001A6079684FF000024FF00003C1E90A23C0
:104B40007B681B6808331B687868984779684FF062
:104B5000FF326FF00043C1E90A23FFF7A3FEF5E738
:104B60009803002080B582B000AF78607B6818465B
:104B7000064900224FF4FA63FFF7E2FD7B68044A1E
:104B80001A607B6818460837BD4680BD68850008F6
:104B9000508A000880B582B000AF7860094BD3E935
:104BA0000023013243F100030649C1E900237B6879
:104BB00018460021FFF7DEFEFFF7A4FAFFF772FEAA
:104BC000ECE700BFB003002080B582B000AF786092
:104BD0000248FDF78BFC0837BD4680BD7485000890
:104BE00090B585B000AFC7E90001634BFB60D7E922
:104BF00000015FA3D3E90023121843EB01035F49CF
:104C0000C1E900235E4B1B68002B03D05C4B1B6883
:104C1000043B00E00023BB606EE0BB68D3E90A01FF
:104C2000D7E90023904271EB030CACBF00230123B2
:104C3000DBB2002B31D0B868FFF790FE0446F8686D
:104C4000FFF78CFE03469C42D4BF00230123DBB256
:104C5000002B01D0BB68FB60B868FFF77FFE0446FD
:104C6000F868FFF77BFE03469C4214BF0023012334
:104C7000DBB2002B34D0BB68D3E91201FB68D3E967
:104C80001223994208BF90422CBF00230123DBB2BC
:104C9000002B25D0BB68FB6022E0B868FFF75EFE02
:104CA0000446F868FFF75AFE03469C42B4BF00234F
:104CB0000123DBB2002B13D0BB68D3E90A232F49B1
:104CC000D1E90001904271EB030C03DBBB68D3E92F
:104CD0000A2302E0294BD3E900232849C1E9002334
:104CE000BB6804331846FCF775FC0346002B01D063
:104CF000043B00E00023BB60BB68002B8DD1FB6848
:104D00001B6A1A46FB68DB69D31AB3F5967F14DA7F
:104D1000FA68FB681B6A1946FB68DB69CB1A1948FD
:104D200011461A46FDF7E2FBF9684FF0FF326FF0CB
:104D30000043C1E90A23104BFB60FB68DB691A687A
:104D4000114B9A420DD0FB6810481946FDF7CEFB77
:104D5000F9684FF0FF326FF00043C1E90A23064BB8
:104D6000FB60FB6818461437BD4690BDAFF300806A
:104D700000E1F5050000000048030020400300208A
:104D80009C03002088850008EFBEADDEB4850008D6
:104D900090B585B000AF78602E4BFB602E4B1B6842
:104DA000002B03D02C4B1B68043B00E00023BB60AE
:104DB00042E0BB681A6B7B689A4231D1B868FFF752
:104DC000CDFD0446F868FFF7C9FD03469C42D4BFF9
:104DD00000230123DBB2002B02D0BB68FB601FE085
:104DE000B868FFF7BBFD0446F868FFF7B7FD034658
:104DF0009C4214BF00230123DBB2002B10D0BB6800
:104E0000D3E91201FB68D3E91223994208BF90420B
:104E10002CBF00230123DBB2002B01D0BB68FB6059
:104E2000BB6804331846FCF7D5FB0346002B01D0C2
:104E3000043B00E00023BB60BB68002BB9D1FA68DB
:104E4000044B9A4201D1002300E0FB681846143756
:104E5000BD4690BD480300209C03002080B582B071
:104E600000AF78607B68084A1A607B681846FFF7D5
:104E7000D5FC0023002B02D07868FCF7A9FD7B68E5
:104E800018460837BD4680BD508A000880B582B0FC
:104E900000AF78607868FFF7E1FF7868FCF798FD6D
:104EA0007B6818460837BD4680BD00BF80B582B01C
:104EB00000AF786039607B68012B0CD13A684FF6FF
:104EC000FF739A4207D10548FFF74CFE0348044997
:104ED000044A03F01DF90837BD4680BD4803002091
:104EE0005D4E00089402002080B500AF01204FF60F
:104EF000FF71FFF7DBFF80BD80B489B000AFF860C1
:104F0000B9607A607B68FB610023BB612BE0BB6901
:104F1000FA6813441B78FB7500233B611DE097F989
:104F2000173003F08002FB6903F400431B129A421E
:104F300008D0FB695B0083F4815383F001039BB2CB
:104F4000FB6103E0FB695B009BB2FB6197F91730E3
:104F50005B00FB753B6901333B613B69072BDEDD81
:104F6000BB690133BB61BA69BB689A42CFDBFB699D
:104F700018462437BD465DF8047B704780B586B07F
:104F800000AF78607B683B617868FCF703FD0346FF
:104F9000386919464FF6FF72FFF7AEFF0346FB81F3
:104FA000FB891B0A9BB2FB75FB89BB755E23BB604B
:104FB000FB7D202B02D9FB7D7D2B0AD9FB7DBA68B6
:104FC000B3FBF2F2B96801FB02F29B1ADBB22033A9
:104FD000FB75BB7D202B02D9BB7D7D2B0AD9BB7D08
:104FE000BA68B3FBF2F2B96801FB02F29B1ADBB2BA
:104FF0002033BB75FB7D1B029AB2BB7D9BB2134372
:105000009BB29BB218461837BD4680BD80B483B0B2
:1050100000AF78600C37BD465DF8047B704700BF79
:1050200080B483B000AF7860002318460C37BD46CB
:105030005DF8047B704700BF80B483B000AF786038
:10504000002318460C37BD465DF8047B704700BF4F
:1050500080B483B000AF78607B680A4A1A607B68CE
:1050600000221A617B6800225A607B6800229A60E5
:105070007B680022DA607B6818460C37BD465DF815
:10508000047B7047808A000880B584B000AFF86068
:10509000C7E90023FEF720FCFB681B6810331B6880
:1050A000F86898470346002B02D0FEF71DFC0EE07F
:1050B000FFF76EFC0246FB689A60FB689968D7E9C7
:1050C0000023C1E90A23FEF70FFCFFF7EBFB1037C3
:1050D000BD4680BD80B582B000AF78607B689B68BC
:1050E000002B04D07B689B681846FFF75DFC7B684B
:1050F00000229A607B681B69002B07D07B681B69C4
:105100001B681B687A681269104698470837BD46C5
:1051100080BD00BF80B582B000AF78607B685B68FF
:10512000002B04D07B685B681846FFF73DFC7B686A
:1051300000225A607B681B69002B08D07B681B69C2
:105140001B6804331B687A68126910469847083751
:10515000BD4680BD80B582B000AF78607B68DB68FB
:10516000002B04D07B68DB681846FFF71DFC7B68CA
:105170000022DA607B681B69002B08D07B681B6902
:105180001B6808331B687A6812691046984708370D
:10519000BD4680BD80B400AF034B1B681846BD46BA
:1051A0005DF8047B704700BF3C00002080B588B0EC
:1051B00000AF01233B60FB785BB2012B14BF0023DF
:1051C0000123DAB26E4B1A70FEF72AFF6D48FDF725
:1051D0008DF96D4B1B68002B03D06B4B1B68043B98
:1051E00000E00023FB6110E0FB691B681B68F869A5
:1051F0009847FB6904331846FCF7ECF90346002B8B
:1052000001D0043B00E00023FB61FB69002BEBD1E4
:105210005E4B1B68002B03D05C4B1B68043B00E01B
:105220000023BB6111E0BB691B6808331B68B869C8
:105230009847BB6904331846FCF7CCF90346002BAA
:1052400001D0043B00E00023BB61BB69002BEAD125
:105250004F48FDF74BF94F4B1B68002B03D04D4BCC
:105260001B68043B00E000237B6121E07B69043381
:105270001846FCF7AFF90346002B01D0043B00E0D1
:105280000023BB607B691B7F002B06D07B69043346
:1052900018464149FCF748FB08E07B691A1D7B6909
:1052A0005B69143310461946FCF73EFBBB687B6113
:1052B0007B69002BDAD1394B1B68002B4DD0384865
:1052C000FDF714F9354B1B68002B03D0334B1B68DB
:1052D000043B00E000233B613CE03B69043318469B
:1052E000FCF784F901463B69DA693B691B6A2D4882
:1052F000FDF7FCF83B695B69002B03D03B695B69F8
:10530000043B00E00023FB6015E0FB680433184613
:10531000FCF76CF9034624481946FDF7E7F8FB68EB
:1053200004331846FCF756F90346002B01D0043B22
:1053300000E00023FB60FB68002BE6D13B690433EF
:105340001846FCF747F90346002B01D0043B00E068
:1053500000233B613B69002BBFD11448FDF7C6F821
:1053600000F0AAF978607B68002B03D010487968B8
:10537000FDF7BCF8FFF76EFB2037BD4680BD00BFD0
:10538000BC030020DC850008A4030020600100208D
:105390000C860008A8030020D0010020B8030020DC
:1053A000308600084C86000878860008848600084D
:1053B000988600082DE9F04184B002AF786039602A
:1053C000264B7A681A60264B3A681A60FEF744FA50
:1053D00024482549254AFDF789F8FCF793F9FFF79A
:1053E000E5FE02F061FE03461E4602F07DFE054624
:1053F00002F084FE044602F063FE804602F06AFE7C
:105400000346CDF800800193194831462A462346C9
:10541000FDF76CF8FFF7BEFE0446FFF7BBFE034640
:10542000144821461A46FDF761F81348FDF75EF867
:1054300000F026F842F210704FF00001FEF706FD72
:10544000FEF7ACFC0D48FDF751F8FFF713F8002309
:1054500018460837BD46BDE8F08100BFC0030020F4
:10546000C4030020B4860008E4860008F086000823
:10547000088700086C8700088C870008C48700082C
:1054800080B500AF0148FDF731F880BDF88700080E
:1054900080B584B000AF78607B68002B01DA002310
:1054A00031E07B68073323F007037B607B68B3F54B
:1054B000204F04DD1648FCF7DFF9002323E0154BED
:1054C0001B68002B0CBF00230123DBB2002B02D092
:1054D0001148FCF7D1F9114B1A687B681344B3F5F6
:1054E000204F04DB0A48FCF7C7F900230BE00B4B05
:1054F0001A680B4B1344FB60084B1A687B681A440C
:10550000064B1A60FB6818461037BD4680BD00BFC9
:1055100010880008E002002024880008C8A30020AA
:10552000C803002080B485B000AFF860C7E900234D
:10553000F968D7E90023C1E90E23F968D7E9062302
:10554000C1E910231437BD465DF8047B704700BFE6
:10555000B0B586B002AF786006E04FF0FF306FF074
:1055600000410022FFF73CFA7B68D3E9102352EA9E
:105570000301F2D07B68D3E90E23104619460022BE
:10558000FFF72EFAFCF708FBC7E902017B68D3E9B5
:105590000E017B68D3E91023D7E90245CDE9004528
:1055A000FCF704FB02460B467968C1E90E2310376D
:1055B000BD46B0BD80B584B000AF7860FFF7E8F9B4
:1055C000F860F868FFF7CAF9B860F8687968FFF71B
:1055D000D1F9BB6818461037BD4680BDB0B586B05E
:1055E00002AFC7E900010023FB60324B1B68002BB0
:1055F00003D0304B1B68043B00E00023BB6051E04C
:10560000BB68D3E90601D7E90023904271EB030C94
:105610003CDABB68D3E9082352EA030107D1B96831
:105620004FF0FF326FF00043C1E9062325E0BB686D
:10563000D3E90601BB68D3E90823121843EB010341
:10564000B968C1E90623BB68D3E90601D7E900239D
:10565000904271EB030C10DABB68D3E90601BB681A
:10566000D3E90823D7E90045CDE90045FCF79EFAC8
:1056700002460B46B968C1E90623BB681B680833BC
:105680001B68B8689847FB680133FB60BB6804334C
:105690001846FBF79FFF0346002B01D0043B00E0B8
:1056A0000023BB60BB68002BAAD1FB6818461037EB
:1056B000BD46B0BDA003002080B582B000AF00237E
:1056C0007B60144B1B68002B03D0124B1B68043B00
:1056D00000E000233B6014E03B681B680C331B6850
:1056E000386898477B6801337B603B680433184611
:1056F000FBF770FF0346002B01D0043B00E00023C2
:105700003B603B68002BE7D17B6818460837BD46F5
:1057100080BD00BFA003002080B483B000AF03466B
:10572000FB71084B97F907205209F97901F01F0125
:10573000012000FA01F143F822100C37BD465DF854
:10574000047B704700E100E080B483B000AF034603
:10575000FB71094B97F907205209F97901F01F01F4
:10576000012000FA01F1203243F822100C37BD4627
:105770005DF8047B704700BF00E100E080B483B0B7
:1057800000AF0346FB71094B97F907205209F979DD
:1057900001F01F01012000FA01F1603243F82210EC
:1057A0000C37BD465DF8047B704700BF00E100E0A8
:1057B00080B582B000AF78607B68184606496422E5
:1057C0004FF4FA63FEF7BCFF7B68044A1A607B68FB
:1057D00018460837BD4680BDD4880008F08A000806
:1057E00080B582B000AF78607B683433184601F032
:1057F000BDF97B6803F5A073184601F0B7F97B6823
:1058000018460837BD4680BD80B586B002AF7860C7
:105810000CE0FCF7C1F929A3D3E90023121843EBEC
:105820000103104619460022FFF7DAF81E4B1B78D9
:10583000DBB283F00103DBB2002BEAD179681B4AAB
:105840004FF00003CDE900230846194A4FF000034A
:10585000FFF768FE1CE00123FB6016E0154AFB68B9
:105860004FF4137101FB03F3134420331B78002B17
:1058700008D0FB685A1E104B53F8223018460021FE
:1058800001F06CFCFB680133FB60FB68032BE5DD7A
:105890007B681846FFF75CFE0123002BDBD1103735
:1058A000BD4680BDAFF30080E0B300208096980035
:1058B00040420F00CCA300204C00002000E40B5419
:1058C00002000000AFF3008080B588B004AFF8603C
:1058D000F9723A81FB80FB681846FFF7B9FBFB6859
:1058E000174A1A60FB7A002B02D0FB7A062B07D9E5
:1058F000FB68144A9A61FB689B69FA7A1A701AE08D
:10590000FB7A4FF4137202FB03F20E4B1A44FB684E
:105910009A61FB689969FA7AB7F90830B7F9060015
:105920000090B7F918000190B7F91C0002900846E2
:10593000F96800F08DFCFB6818461037BD4680BD45
:10594000088B0008CCA3002080B500AF034800F00E
:10595000C5FE2520FFF712FF80BD00BF18A600205E
:1059600080B500AF034800F0B9FE2620FFF706FF20
:1059700080BD00BF64A8002080B500AF034800F0E0
:10598000ADFE2720FFF7FAFE80BD00BFB0AA0020C1
:1059900080B500AF034800F0A1FE3420FFF7EEFE13
:1059A00080BD00BFFCAC002080B500AF034800F014
:1059B00095FE3520FFF7E2FE80BD00BF48AF002016
:1059C00080B500AF034800F089FE4720FFF7D6FE00
:1059D00080BD00BF94B1002080B500AF0D480E49D6
:1059E00001F038FC0346002B0CBF00230123DBB27F
:1059F000002B0AD00748084901F084FC4620FFF735
:105A0000BDFE064800F080FD02E04620FFF7B6FE2E
:105A100080BD00BFB86402400080002818A60020A6
:105A200080B500AF0D480E4901F014FC0346002B71
:105A30000CBF00230123DBB2002B0AD00748084922
:105A400001F060FC1120FFF799FE064800F05CFDB4
:105A500002E01120FFF792FE80BD00BFA06002406F
:105A60000080202064A8002080B500AF0D480E49BA
:105A700001F0F0FB0346002B0CBF00230123DBB237
:105A8000002B0AD00748084901F03CFC0E20FFF724
:105A900075FE064800F038FD02E00E20FFF76EFEAE
:105AA00080BD00BF5860024000800018B0AA0020EE
:105AB00080B500AF0D480E4901F0CCFB0346002B2A
:105AC0000CBF00230123DBB2002B0AD00748084992
:105AD00001F018FC4420FFF751FE064800F058FD85
