:020000040800F2
:10000000000002202D020108717D0108797D0108A0
:100010009D7D0108A57D0108AD7D0108000000005F
:100020000000000000000000000000009D760108B4
:100030009902010800000000B1760108ED7901087D
:100040009902010899020108990201089902010820
:100050009902010899020108350C0108590C0108A0
:100060007D0C0108A10C0108C50C010899020108CA
:10007000653E0108990201088D3D010899020108B9
:100080001D3E0108453D0108990201089902010839
:10009000990201089902010899020108E90C010876
:1000A00099020108990201089D7B01089902010843
:1000B00099020108990201089902010899020108B0
:1000C00099020108990201089902010899020108A0
:1000D000990201086D3C0108853C01089D3C01081E
:1000E000450D0108990201089902010899020108C9
:1000F0009902010899020108990201089902010870
:100100009902010899020108A977010899020108DA
:10011000B53C0108CD3C010899020108990201088B
:10012000990201089902010899020108990201083F
:10013000990201089902010899020108990201082F
:10014000990201089902010899020108990201081F
:10015000D53D010899020108FD3C0108E53C010874
:1001600099020108990201089902010899020108FF
:1001700099020108990201089902010899020108EF
:0C01800099020108990201080000000823
:1001900070B44C1E4A2C2CD8DFE804F03C3C3C3CAC
:1001A0002B2B2B2B26263C262626262626262626C5
:1001B0002626262B27272727272727273C262626BC
:1001C00026262B26273D3C2B3C27273D2B2B26265E
:1001D0003C3C3C3C3C263C3C263C2B2B2626262B00
:1001E0002B2B2626263C3C00CAB144698569AC42CB
:1001F00002DB002070BC704704EB44050669013443
:10020000AD00446174190CD071556260A360204642
:1002100070BC70471AB1002BE7D11846EAE71046C8
:10022000E8E72046E6E700BF30B443698469A342AB
:1002300009DA03EB430405690133A40043612B1978
:1002400001D001B112B9002030BC70470020285500
:1002500059609A60184630BC704700BF2DE9F041E4
:10026000C5680446884617462B780E4617E0562B7D
:1002700022D04B2B2DD1236B0135002F03F1060328
:10028000E56023630CBF1B211E210022134620467C
:10029000FFF77EFF3060D0B1E5682B78061D722B2A
:1002A000E5D1236B0135002F03F10903E5602363DA
:1002B0000CBF19211C21E8E7236B0135002F03F146
:1002C0000903E56023630CBF1A211D21DDE7BDE8AA
:1002D000F081BFB9462B15D1464513D01D241E20F1
:1002E0001C2108E01B2A10D0192A00D1197003F133
:1002F0000408464506D0D8F800301A781A2AF1D1F9
:100300001C70F4E73046BDE8F0811870EFE700BFDD
:1003100010B4C4682378522B0A4610D04F2B03D058
:1003200008465DF8044B7047036B033303632021D9
:100330000134C46000235DF8044BFFF729BF036B51
:10034000023303631F21F3E72DE9F0410F46C16833
:100350000C782E2C804627D00B462E2C14D15C789E
:10036000303C092C10D89C78A4F13002092A03F102
:10037000020017D8DD1C2B4601351C78A4F130068D
:10038000092EF8D92E2CEAD05A1AC8F80C3040465B
:10039000FFF74AFF3A4603464B214046BDE8F0418D
:1003A000FFF7F6BE0346D8E74B78A3F16102192A9E
:1003B0000AD88A1C134601321C78A4F1610019285E
:1003C000F8D95F2CF6D0C8E75F2BC5D1F1E700BFA5
:1003D0002DE9F003C2681378532B03D00020BDE849
:1003E000F0037047531CC3605378ABB1931CC360D8
:1003F00053785F2B52D10021036A9942EED2836A6F
:10040000C26901338362BDE8F00352F821007047EE
:10041000A3F14102192A46D9826812076AD4002939
:100420006AD13F4A02F1C40502E01C32AA42D5D08B
:1004300014789C42F9D15569002D6AD043698469CA
:10044000D2F81880A34262DA03EB4307D0F810C059
:10045000BF0001331CEB070643615FD04FF0180962
:100460000CF8079037467560C6F80880C762002907
:100470004AD0D5681269016BA34211440163ADDA19
:1004800003EB43010469013389004361631843D0DE
:100490001820605418465D609A60A0E7A3F130050B
:1004A000EAB2092AB4D8002212E002EBC20103EB3F
:1004B0008103A3F130018A4290D8C2681378541C9A
:1004C0001BB1C46013785F2B12D0A3F130050A462C
:1004D000E9B2A3F141040929E4B2E6D9192C3FF6A7
:1004E0007DAF02EBC20103EB8103A3F13701E2E729
:1004F000013181E7012194E7C2681178433901296C
:100500008CBF002101218CE755689268B3E7002772
:10051000ACE784694369AAE7184660E73746A5E770
:100520001CE5030870B50D46D0F80011FF290446FC
:1005300006D04A1CC4F80021655484F8045170BDEB
:100540000026D0F80831D0F80C2180F8FF609847D9
:10055000D4F8203131465A1CC4F820210122C4F8B5
:100560000021655484F8045170BD00BF70B4026866
:1005700013786E2B054618D00026A3F13002092A05
:1005800018D82A680020013200EB80042A6003EBAF
:10059000440412F8013BA3F130010929A4F1300011
:1005A000F2D906B1404270BC7047531C03605378C7
:1005B0000126E2E70020F4E743698269934210B51F
:1005C00013DA03EB43020169920001338C18436193
:1005D00008D040238B540C30FFF7C8FF23466060DF
:1005E000184610BD2346184610BD0023184610BDFE
:1005F00010B5C3681A785F2A04460BD06E2A06D05D
:100600000C30FFF7B3FFE3681A785F2A06D04FF08B
:10061000FF3010BD00200133E36010BD0130FAE768
:1006200038B5C3681A78542A044601D0002038BD72
:100630000133C360FFF7DCFF051EF7DBA16A6369C6
:10064000A26901319342A162F0DA03EB430221690E
:100650000133920063618B18E8D005248C545D60EF
:10066000184638BD08B5C3681A785F2A01D0012042
:1006700008BD013340F80C3FFFF778FFC043C00FBF
:1006800008BD00BF70B504460C30FFF76FFF061EB3
:1006900032DDE56863685B1B9E422FDCA268AB1904
:1006A0005207E36015D4092E0CDD284614490822B0
:1006B0000EF0C8FD30B92B7A2E2B10D05F2B0ED048
:1006C000242B0CD0294632462046FFF7ADFDE062D0
:1006D00070BDAA5D242A04BF0133E360E3E76B7AAF
:1006E0004E2BEFD1236B074916339E1B2663204602
:1006F0001522FFF799FDEAE7002070BD0020E6E72C
:10070000840C0408900C040838B5044629B9C36861
:100710001A7832B15A1CC2601978682912D0762929
:1007200001D0002038BD04F10C052846FFF71EFF5C
:10073000E3681A785F2AF4D10133E3602846FFF7B3
:1007400015FF03E004F10C00FFF710FFE3681A78CF
:100750005F2AE6D10133E360012038BDD0F81031C3
:100760000246C3B15A680B68906870B102782F2AAC
:100770000DD1002B04DC09E002782F2A07D143B108
:100780008068013B0028F7D17047704701D00020F6
:1007900070474068704701211846C2F81811704729
:1007A00038B50C46054691B323784A2B27D8DFE8A5
:1007B00003F02E26262626302E2B2B26262626260E
:1007C000262626262626262626262E2626262626C1
:1007D0002626262626262626262E262626262626B1
:1007E0002626262E2B26262626262626262626269C
:1007F000262E262626262E262E26262E2E00284675
:100800006168FFF7CDFF18B9A468002CCCD1002097
:1008100038BD2846211DFFF7A1FF0028F7D0037837
:100820002F2BF4D138BD00BFF0B553689468013365
:100830000B44A34283B015460E46074613D8EC6816
:100840000CB103B0F0BD95E80900324639461844B2
:100850000EF0CEFC95E80C003244D4546B681E4474
:100860006E6003B0F0BDD268002AEAD11CB9022B39
:100870004FF0020402D96400A342FCD82868214644
:1008800031F022FE034610B12860AC60D7E728683B
:10089000019331F029FA019B2B6001226B60AB6060
:1008A000EA60CEE72DE9F041C3681A784C2A054684
:1008B00002D00020BDE8F0815A1CC26059785F293F
:1008C0003AD05A290DD10132EA602846002100F0C1
:1008D000F3FDEA681378452BEBD10132EA60BDE8FD
:1008E000F08100F003FA07460028E2D00378272BB6
:1008F00033D0E9680B786E2B28D04FF03B08452B9E
:1009000034D0002BD5D04B1C01E0002CD1D0EB60B3
:100910001E4613F8014B452CF7D1721A2846FFF7F3
:1009200083FC3A46034641462846FFF731FCEA6815
:100930001378452BBDD1D0E79A1CC2609B785A2B07
:10094000C1D0452B4FF00000B3D1C6E74A1CEA6086
:100950004B784FF03C081146D1E743681A7C002AD7
:10096000C7D05A682B6B9B1A2B63C2E70022D5E7CE
:10097000F0B5C168C76A0B78493B012B83B00446C8
:100980001ED84A1CC2604B78452B45D002AE0021D0
:1009900046F8041D493B0F2B35D8DFE803F02F2F15
:1009A0003414343434343434343434343408013288
:1009B000E260204601F06CFAE3681A78452A27D0F5
:1009C000002003B0F0BD2046FFF76CFF054620462F
:1009D0002F212A460023002DF2D0FFF7D9FB3060EB
:1009E00000F108060028EBD0E2681378452BD1D13E
:1009F0000198E7620132E26003B0F0BD2046FFF7E4
:100A0000B7FF0546E3E7204600F070F90546DEE74C
:100A10000133E3600546DAE702310022C160134684
:100A20002F2103B0BDE8F040FFF7B2BB2DE9F04144
:100A3000C26813784C3B82B005460E2B6DD8DFE8B8
:100A400003F02C6C316C6C6C6C176C2C6C6C6C6CDB
:100A5000080001320021C26000F02EFDEB68197819
:100A60004529064600F0D180002002B0BDE8F081A3
:100A70005378742B69D00021FFF7AAFCEB681B7830
:100A8000492B044650D12846FFF772FF2246034601
:100A900004212846FFF77CFB01E001F0BBF802B01F
:100AA000BDE8F0810132C26001A90122FFF7D6FB47
:100AB00007460028D8D028460021FFF729FCEB681C
:100AC0001C7880460026002C00F08E80442C00F01C
:100AD0008280A4F13002D2B2092A5CD9A4F1610269
:100AE000D2B2192A57D9432C55D0552C53D04C2C5F
:100AF00051D0532C00F08480492C7AD0542C00F033
:100B0000B380452C00F0D8804D2C6DD1002E6BD0D9
:100B10005A1CEA605C781346D5E701F07BF8EB6875
:100B20001B78492B044603D0204602B0BDE8F08173
:100B3000002899D02B6A6A6A934295DAEA69591CAF
:100B400042F82300284629629EE702326549C260C6
:100B50000322FFF769FB0446284601F05BF82246B2
:100B6000034601212846FFF713FB2A6BEB6803328B
:100B70002A631B78492B0446D6D100283FF474AF72
:100B80002B6A6A6A9342BFF66FAFEA69591C42F852
:100B90002300296277E7284601F03CF8CEB1012115
:100BA000324603462846FFF7F3FA0646EB68532C15
:100BB0001C7888D0452C8CD0B6B12B6A6A6A9342D7
:100BC00012DAEA6942F823605A1CEB682A621C7840
:100BD00079E70646EAE75B7803F0DF03542BDAD1C6
:100BE000284600F083F8D9E70020386002B0BDE85D
:100BF000F081002EF8D02846FFF7BAFE0421CFE797
:100C000028460121FFF7E4FBC8E75A1CEA605A783E
:100C1000732A3DD0642A2BD04FF0FF372846FFF7C8
:100C200005FF044620B10378442B01D0462B29D17F
:100C30007B1C25D06B69AA69934213DA03EB43024C
:100C40002969013392006B618B1803D045208854C9
:100C50009F605C60284632460221FFF799FA02B095
:100C6000BDE8F0810023F5E72846FFF7D9FC95E7BA
:100C70000233EB602846FFF7BBFC071ECEDAF3E633
:100C80002346E7E72846FFF7EDFC0028D0D1EBE646
:100C90000233EB602846FFF7E5FC00283FF4E4AEA2
:100CA000284611490E22FFF7BFFA324603460221B9
:100CB0002846FFF76DFAF2E63E60002E3FF4D4AE10
:100CC000B8F1000F04D0019BC8F80430CDF80480BF
:100CD000EB681A78452A7FF4C7AE0133EB600198C0
:100CE000DDE600BFB80C0408A80C0408F0B5C26823
:100CF0001378722B83B0044654D0562B52D04B2B12
:100D000050D0A3F130014A297DD8DFE811F0A200CC
:100D1000A200A200A200A200A200A200A200A200C3
:100D2000A2007C007C007C007C007C007C007C00BD
:100D3000A7007C00CF00FF007C00DC00F2007C00FC
:100D40007C007C007C007C007101A200C101A70135
:100D50007C00B401CE01EF0107027C007C007C0026
:100D60007C00A2007C007C007C007C007C007C007D
:100D700018021802180218021802180218021802A3
:100D8000180218027C0018021802180218027C00CF
:100D90007C007C0018021802890018021802180250
:100DA00018021802204601A90022FFF757FA05464B
:100DB00048B32046FFF79AFF286020B302781F3A15
:100DC000012A23D9019AF2B1236A616A8B421ADAA5
:100DD000E16941F8232001985D1C256203B0F0BD54
:100DE000204601F055F84121024600232046FFF736
:100DF000CFF9019038B1E3681A7822B15A1CE26049
:100E00001B78452B1AD0002003B0F0BD019A416831
:100E100042602B6801932960019A002AD4D1F2E73D
:100E20000132E2602046FFF72DFC28210246002314
:100E30002046FFF7ADF901900028E4D0236A626AEA
:100E40009342E0DAE269591C42F8230001982162DA
:100E5000DAE72046FFF7EAFD0190EDE7511CE1607B
:100E600053785F2B00F07982303B092B00F27E82B1
:100E70000A460132E2601378303B092BF9D9521A45
:100E80002046FFF7D1F90546002830D0E1680B78FD
:100E90005F2B2CD10131E1602046FFF727FF2A4666
:100EA00003462A212046FFF773F9D5E70132E260B5
:100EB0002046FFF71BFF2521024600232046FFF7AF
:100EC00067F90190B8E7531CE3605378592B04BFCE
:100ED0000232E2600121204600F0D0FA01462046AD
:100EE000FFF716FAE3681A78452A00F03C820020E2
:100EF000B2E70132E2602046FFF7F8FE2621024603
:100F000000232046FFF744F9019095E7531CE36066
:100F10005378002B3FF477AF931CE3605378463B44
:100F2000302B3FF670AF01A151F823F045120008B5
:100F3000070E0008070E0008070E0008070E00083D
:100F4000070E0008070E0008070E0008070E00082D
:100F5000070E0008070E0008070E0008070E00081D
:100F6000070E0008E10D0008070E0008070E000834
:100F7000070E0008070E0008070E0008070E0008FD
:100F8000070E0008070E0008070E0008070E0008ED
:100F9000070E0008070E000839120008070E0008A7
:100FA000070E000811120008E9110008C11100081D
:100FB000070E00089911000869110008070E0008C3
:100FC000070E0008070E0008070E00081D13000892
:100FD000070E000807130008070E0008070E000898
:100FE000E3120008E10D0008070E0008AB1200082C
:100FF0000132E2602046FFF779FE01AE0746314636
:1010000020460122FFF72AF9054600283FF46FAF7A
:101010002046FFF76BFE286000283FF468AFB5421A
:1010200015D00178A1F11F02012A40F2A7812929D8
:101030000DD0019A002A3FF45AAF236A616A8B42AD
:10104000BFF655AFE169581C41F8232020623A46AB
:1010500020462B21019BFFF79BF8FDE60132E26061
:101060002046FFF743FE2221024600232046FFF7D9
:101070008FF80190E0E60132E2602046FFF736FE8D
:101080002321024600232046FFF782F80190D3E691
:101090000132E2602046FFF729FE242102460023A8
:1010A0002046FFF775F80190C6E65378A3F13002A9
:1010B000092A05D95F2B03D0413B192B00F2668129
:1010C00020460021FFF784F9E36801901B78492B43
:1010D00005467FF499AE2046FFF74AFC2A460346B0
:1010E00004212046FFF754F80190A5E62046FFF7BB
:1010F00097FAE36801901B78492B7FF49DAE002896
:101100003FF481AE236A626A9342BFF67CAEE26925
:10111000591C42F82300019D2162DCE70132E260A4
:101120002046FFF7AFFA01902046FFF7DFFD2121AF
:101130000246019B2046FFF72BF801907CE661698F
:10114000A069A34D613B03EB8303814205EB83035D
:10115000C0F2F680002318465B685968236B0132A1
:101160000B44E26023634FE66369A269934280F215
:10117000F68003EB43022169920001338818636112
:1011800000F02181934D27238B542B4645605A68EC
:10119000236B1344236337E66369A269934280F2A9
:1011A000DE8003EB430221699200013388186361FA
:1011B00000F00981884D27238B542B464560E6E7D4
:1011C0006369A269934280F2CA8003EB43022169FA
:1011D000920001338818636100F0F5807F4D27236A
:1011E0008B542B464560D2E76369A269934280F233
:1011F000B68003EB430221699200013388186361D2
:1012000000F0E180764D27238B542B464560BEE7E6
:101210006369A269934280F2A28003EB43022169D1
:10122000920001338818636100F0CD806D4D272353
:101230008B542B464560AAE720466B490422FEF7F3
:10124000F3FFE1E56369A1698B4280F2AB8021691C
:1012500003EB4305013301EB850563612C23019505
:101260002B709378303B092B8CBF002301232B81FB
:10127000002B40F099802046FFF738FD6860019B05
:101280005B68002B3FF4BFAD04F10C00FFF76EF973
:10129000E3681A7832B15A1CE2601A78B2F173032B
:1012A0005A425A4101984281AEE593785F2B00F093
:1012B00081802046FFF780F90546002D00F08180EF
:1012C000E3681A785F2A7FF412AE0133E3602046A8
:1012D000FFF70CFD2A4603462D212046FEF758FF56
:1012E000BAE56369A269934239DA03EB43022169E3
:1012F000920001338818636165D03C4D27238B54DD
:101300002B46456043E72046FFF7F0FC49210246A3
:1013100000232046FEF73CFF01908DE56369A2693A
:1013200093421CDA03EB43022169920001338818CF
:10133000636148D02E4D27238B542B46456026E70A
:1013400001EB4100256901318000616129183CD021
:1013500027262E5408464B60FFE600259AE5002319
:1013600018465B6813E70133E36075E5204600F03B
:101370008FFD054600287FF489ADB8E501994268E4
:1013800041602B68019311782A6050E62046FFF7F0
:101390004DFB019000283FF436AD0378182B7FF405
:1013A0004DAD31E5002559E704F10C00FFF7DEF8FB
:1013B000019D60E70332E260204600F069FD0546CA
:1013C0007BE7284648E54368E1E64B680846C4E603
:1013D000E0E503084CE8030824E80308E8E703080D
:1013E00010E80308FCE70308BC0C040838E803080D
:1013F00060E8030870B582B00023C16801930B78E0
:1014000004464BB3452B27D02E2B25D001AE17E039
:101410004F2B17D02046FFF769FC05462E212046AA
:101420002A460023C5B1FEF7B3FE3060A0B1E168E3
:101430000B7800F1080643B1452B06D02E2B04D0C3
:10144000522BE5D14B78452BE4D1019B23B19A680F
:101450002AB1184602B070BD002002B070BD5968B4
:1014600008782728F5D14968087C0928F1D148680F
:10147000216B091A216318465A60EBE770B5C368FF
:101480001A784A2A04460DD071B90D462046FFF756
:10149000B1FF034670B120462A462921BDE87040BD
:1014A000FEF776BE0133C3602046FFF71FFC0546FA
:1014B0000028EBD1002070BD2DE9F047C3681A78F1
:1014C000472A05460E4634D0542A32D0FFF7AEFAEA
:1014D000044658B316B1AB68DB071FD5EB681B7821
:1014E00023B3452B22D021460B78042BA3F11C02F9
:1014F00000F0A480C0F0A080042A00F29D8049681A
:101500000029F1D12846FFF7B9FF224603460321FF
:101510002846BDE8F047FEF73BBE64682378A3F198
:101520001C02042AF9D9022B00F06E812046BDE886
:10153000F087296B01F114022A631A78542A05D026
:10154000472A00F0ED800020BDE8F0875A1CEA60D1
:101550005A78002AF7D09A1CEA605B78433B332B19
:10156000F1D801A252F823F0751A000847150008B7
:10157000471500085F1A000847150008491A0008B7
:10158000331A00081D1A00084715000847150008FF
:1015900047150008471500084715000847150008BB
:1015A0004715000847150008071A0008ED1900083C
:1015B00047150008D31900089719000847150008B7
:1015C000471500084715000847150008471500088B
:1015D000471500084715000847150008471500087B
:1015E000471500084715000863190008471500084B
:1015F000471500084715000847150008AD190008F1
:10160000471500084715000847150008471500084A
:10161000471500084715000847150008471500083A
:10162000471500084715000847150008471500082A
:10163000471500083D190008002163E74B68002B9F
:1016400000F0F4801A78013A322A00F2EF8001A10A
:1016500051F822F025180008251800082D18000858
:101660002D1800082D1800082D180008391600083C
:10167000391600082D1800082D1800082D1800082C
:101680002D1800082D1800082D1800082D18000826
:101690002D1800082D1800082D1800082D18000816
:1016A0002D1800082D1800082D1800082D18000806
:1016B0002D1800082D1800082D1800082D180008F6
:1016C0002D1800082D1800082D1800082D180008E6
:1016D0002D1800082D1800082D1800082D180008D6
:1016E0002D1800082D1800082D1800082D180008C6
:1016F0002D1800082D1800082D1800082D180008B6
:101700002D1800082D1800082D1800082D180008A5
:101710002D1800082D1800082D180008391600088B
:101720005A1CEA605A78002A3FF40DAF9A1CEA600E
:101730005A78413A312A3FF606AF01A151F822F01A
:10174000F918000847150008471500084715000854
:1017500047150008471500084715000847150008F9
:1017600047150008471500084715000847150008E9
:1017700047150008471500084715000847150008D9
:1017800047150008DB180008471500081119000864
:1017900047150008C5180008471500084715000838
:1017A00047150008471500084715000847150008A9
:1017B0004715000847150008471500084715000899
:1017C0004715000847150008471500084715000889
:1017D0004715000847150008471500084715000879
:1017E0004715000847150008471500084715000869
:1017F0004715000847150008471500084715000859
:101800004715000831180008A3681A781C3A042A02
:1018100004D85B681A781C3A042AFAD9A3602046D7
:10182000BDE8F0879B68002B7FF40CAF012169E6CF
:1018300005F10C00FEF79AFE01287FF784AEEB68F5
:101840001A78002A3FF47FAE5E1CEE601B785F2B97
:101850007FF479AE471E4FF000084FF03F09337810
:10186000002B3FF470AE242B00F024810024335D64
:1018700023B1242B02D00134BC42F8DB3146284688
:101880002246FEF7D1FCEE6826443F1BEE6000289E
:101890003FF459AEB8F1000F00F0298142460346EB
:1018A0003E212846FEF774FC804600283FF44BAEEC
:1018B000002FD4DC284642463D210023BDE8F047F6
:1018C000FEF766BC2846FFF7B1F813210246002355
:1018D0002846BDE8F047FEF75BBC2846FFF7A6F8B0
:1018E00004462846FEF768FE22460346162128468F
:1018F000BDE8F047FEF74CBC28460021FFF7DCFDB1
:101900001721024600232846BDE8F047FEF740BCF9
:101910009A7828460021002A00F0EB80DA1CEA6061
:101920009B786E2B40F0E580FFF7C6FD482102460C
:1019300000232846BDE8F047FEF72ABC284676215A
:10194000FEF7E2FE00283FF4FEAD28460021FFF737
:10195000B3FD1021024600232846BDE8F047FEF7FC
:1019600017BC28460021FEF7CFFE00283FF4EBAD60
:1019700028460021FEF7C8FE00283FF4E4AD2846C3
:101980000021FFF799FD1121024600232846BDE8FA
:10199000F047FEF7FDBB2846FFF748F81521024641
:1019A00000232846BDE8F047FEF7F2BB2846682131
:1019B000FEF7AAFE00283FF4C6AD28460021FFF737
:1019C0007BFD0F21024600232846BDE8F047FEF7C5
:1019D000DFBB0F3129632846FFF788F9092102464A
:1019E00000232846BDE8F047FEF7D2BB0A31296341
:1019F0002846FFF77BF90A21024600232846BDE866
:101A0000F047FEF7C5BB2846FFF770F90D210246E7
:101A100000232846BDE8F047FEF7BABB2846FFF78B
:101A200065F91221024600232846BDE8F047FEF77B
:101A3000AFBB2846FFF75AF90C210246002328467F
:101A4000BDE8F047FEF7A4BB2846FEF7EFFF1421E0
:101A5000024600232846BDE8F047FEF799BB28461A
:101A6000FFF744F90E21024600232846BDE8F0475F
:101A7000FEF78EBB2846FFF739F9044605F10C0046
:101A8000FEF774FD0028FFF65EADEA6811785F2965
:101A90007FF459AD0132EA602846FFF727F92B6B36
:101AA000591D29630246234628460B21BDE8F0470D
:101AB000FEF76EBB7378532B27D05F2B23D0242BDC
:101AC0007FF441AD1C466B69AA6993421FDA2A690B
:101AD000581C03EB4301686112EB810017D002F838
:101AE00021904460EE680236023FEE60D2E6804606
:101AF000DEE6FFF7E1FC4721024600232846BDE869
:101B0000F047FEF745BB2E24DDE72F24DBE7EB682B
:101B10000233EB6017E500BF2DE9F041C3681F7881
:101B200080465FB35A1CC26058781F7818B19A1C5F
:101B3000C8F80C205878762F41D1A0F13004E3B2D8
:101B4000092B1CD84046FEF79DFDD8F81430D8F874
:101B50001820934201462FDA03EB4302D8F8100015
:101B600001339200C8F81430831825D021B33225F0
:101B700085545C6099601846BDE8F0813846244E73
:101B80003D24002304E0BA4213D90C46A34213D0EB
:101B9000E21A02EBD27203EB62010A0106EB020CBD
:101BA000B5582A789742EED16A78904216D0824290
:101BB000EBD84B1CA342EBD10020BDE8F081632F92
:101BC000DDD17628DBD14046FFF790F8332102467D
:101BD00000234046BDE8F041FEF7DABAD8F81430E9
:101BE000D8F818209342E7DA03EB4302D8F8101034
:101BF00001339200C8F814308B1806D03120885475
:101C0000C3F804C01846BDE8F0811846BDE8F0816D
:101C100074E80308F8B5C2681378A3F13001092904
:101C200004462ED9A3F16101192933D9A3F1430147
:101C3000012971D94C2B00F08780552B40F08F8003
:101C400053786C2B30D0742B40F08980531CC360C8
:101C50005178742900F0C38042294FF0000517D154
:101C60000133E3602046FEF70DFD2A4603464A2174
:101C70002046FEF78DFAE3681A78422A0546EFD02F
:101C800006E0FEF7FFFCE368197805464229E7D035
:101C90002846F8BDFFF740FF054610B10378312B09
:101CA0005FD0E3681978F1E7531CC36051786C2961
:101CB000D2D10232C260FFF79DFBE36806460028DE
:101CC00000F0E18019784529C6D10133E360204650
:101CD000FEF78EFC0028C0F29C806369A2699342E3
:101CE00080F2978003EB43022169920001338D1843
:101CF000636100F08E8044238B546E60A860236A79
:101D0000626A934280F28580E26942F823505A1C4D
:101D1000E36822621978B9E7C06A00283CD00178EC
:101D2000002937D1216B83680B4423631178432941
:101D300078D0442973D15378303B052B4DD8DFE858
:101D400003F0482D464C4C4A0132C260FEF79AFC23
:101D5000054620B12046FEF785FC0028A1D10020D1
:101D6000F8BD4368226B9E681868484932440732C0
:101D700022630DF097FA002893D12046FEF782FCEB
:101D80002A46034635212046FEF702FAE368054657
:101D900019787BE71829C5D01946C8E70227616979
:101DA000A569931CA942E36037DA01EB4105266976
:101DB0000131AD00616171192FD070B34FF0080C83
:101DC00006F805C00D460F71886091785EE703271D
:101DD000E5E70127E3E70427E1E7002558E70232BA
:101DE000C260FEF705FC002813DB6369A269934219
:101DF0000FDA03EB43022169920001338D1863610E
:101E000007D046238B546860236A626A9342FFF6C8
:101E10007BAFE3680025197838E70025D5E713463E
:101E2000002533E75378313B042BD6D801A151F874
:101E300023F000BF7B1E0008491E0008831E000817
:101E4000DB1D00087F1E000802276169A569931C3D
:101E5000A942E360E1DA01EB410526690131AD00F9
:101E600061617119D9D00028D7D04FF0070C06F85E
:101E700005C00D460F718860A7E70127E5E7042735
:101E8000E3E70327E1E705461978FFE6C40C0408F9
:101E90002DE9F041C1680B784C2B044600F09E8080
:101EA000542B00F09F80732B57D0662B2DD0A3F1BD
:101EB0003002092A0DD82046FFF7ACFE054600285F
:101EC00000F08380E3681B78492B00F0A380BDE815
:101ED000F0816F2B7CD0692B00F0A780742B17D179
:101EE0004B786C2B14D1FEF701FFE16805460231F7
:101EF000E1602046452100F0A9F92A460346302139
:101F00002046BDE8F041FEF743B94B78702B40D036
:101F10002046FFF701FE0546002856D00678312EF0
:101F200064D0322E2BD0332E4FD10027E3681A789D
:101F30005F2A00F00D812046FFF7AAFF03462FB16C
:101F40001A4620463721FEF723F9034620462A4643
:101F50003521BDE8F041FEF71BB94B78722B00F03C
:101F6000DE80702BD4D10231C160FFF791FF49218F
:101F7000024600232046BDE8F041FEF709B9436858
:101F80000027032B21D8DFE813F056003F019A0009
:101F90005E008B1CC3608B78542B00F0D580FEF75D
:101FA00027FB451C11D06369A26993420DDA03EB4C
:101FB000430221690133920063618B1805D006202A
:101FC00088545D601846BDE8F0810020BDE8F081CE
:101FD0004B786E2B9CD10231C1606CE7BDE8F041BB
:101FE000FEF760BCBDE8F041FEF71ABBD0F80480F4
:101FF000236BD8F80820D8F800708F49023A1344B0
:10200000236338460DF04EF9002800F0A980D8F877
:102010000C30B6E72046FEF7ABFC2A460346042107
:102020002046BDE8F041FEF7B3B84B786C2B7FF447
:102030006FAF00255BE720462A4634210023BDE828
:10204000F041FEF7A5B838467C490DF02BF9002881
:1020500000F08A803B786E2BB7D17B78772B01D04C
:10206000612BB2D15F21204600F0F0F806462046F1
:10207000FEF73CFEE1680B78452B074600F0A9808F
:10208000702B00F0B580692B9FD14B786C2B9CD1C5
:102090002046FFF7FDFE03463A4620463A21FEF76A
:1020A00077F83246034639212046FEF771F82A4672
:1020B000034638212046BDE8F041FEF769B86B6859
:1020C0001B685A78632A62D02046FFF7E1FE8046FB
:1020D00038465B490DF0E6F8002852D03846594999
:1020E0000DF0E0F828B1384657490DF0DBF800282C
:1020F0006AD12046FFF78EFDE3681B78492B064620
:102100006BD04246334620463721FEF741F82A4637
:10211000034636212046BDE8F041FEF739B80231CA
:10212000C160FEF7E3FD05462046FFF773FDE16859
:10213000097849290646204636D02A4633460121E9
:10214000BDE8F041FEF724B80331C16000252AE75D
:102150000133E3602046452100F078F80346EEE6BF
:102160002046FEF7C3FDF0E62046FFF791FE064647
:102170002046FFF78DFE07462046FFF789FE0346FF
:102180008AE72046452100F061F80646B9E71B784A
:10219000A3F16302012A02D9723B012B94D8204695
:1021A000FEF7A4FD804693E7FEF7E2FB32460346C6
:1021B00004212046FDF7ECFF2A4603460121204674
:1021C000BDE8F041FDF7E4BF2046FFF761FE06469B
:1021D00097E70131E16000235EE72046FEF7C8FB88
:1021E0003246034604212046FDF7D2FF064688E723
:1021F0004B78692B7FF4E9AE0231E160204645213E
:1022000000F024F8034647E72FB13B78702B06D047
:102210006D2B04D00027332E7FF48DAE86E67A78BE
:102220009A42F7D1E3681A785F2A01D00127F2E7D2
:102230000133E3600027EEE770110408D40C0408B2
:10224000C80C0408CC0C0408D00C0408F0B5C36812
:102250000F46197883B00022B9420446019218BF94
:1022600001AE0AD11BE0FDF793FF306000F10806D4
:1022700068B1E3681A78BA420CD02046FFF708FE2E
:1022800005462E2120462A460023002DEBD10020B2
:1022900003B0F0BD01980133E36003B0F0BD01333A
:1022A000C3602E21134603B0BDE8F040FDF770BFB8
:1022B0002DE9F041044608460D460CF031FF48B3C5
:1022C000D4F800112F184FF0000809E00B46BD426A
:1022D00001F10101C4F80011E65484F8046119D039
:1022E000FF2915F8016BF1D1D4F8083184F8FF808B
:1022F000D4F80C2120469847D4F820310133C4F893
:10230000203100230121BD42C4F80011E65484F8B5
:102310000461E5D1BDE8F0812DE9F04F137897B065
:10232000154604460E464B2B01F28C81DFE813F074
:102330008804A803A8031F03F804E00461051A0336
:102340000803E102BA0293026C022E020702E001C6
:10235000B90192016B0144011D01F600CF00A800F4
:1023600080006B006B006B004C004C004C004C007C
:102370004C004C004C00ED08ED084C004C00BF0830
:102380000F09B30742072507E2062507AE06AE068A
:10239000650915093E0998085B0547053B053605A3
:1023A00075067006700631063106FA05EF05E1057F
:1023B000B0058905710823084A088A09C807EE078D
:1023C00061040C04D503B504D4F8142116AB002124
:1023D00043F8402DD4F810210795C4F81431089122
:1023E00009926A682046314602F02CFA089B23B90C
:1023F00031462A46204602F031FA069BC4F81431D1
:1024000017B0BDE8F08FD0F814713A46002FDDD038
:10241000916841B951680978A1F11900022805D8DD
:102420008B4201F04F851268002AF1D13A46CDE780
:102430009768D2F80490002FE2D00025D0F8001160
:10244000A84609E00B4601310135AF42C4F800113E
:10245000E65484F80461D3D0FF2919F80560F1D15E
:10246000D4F8083184F8FF80D4F80C21204698472E
:10247000D4F820310133C4F8203101210023E3E7EF
:10248000D64FD0F8001107F1110A4FF000090AE009
:102490000B4601315745C4F8001104F8038084F855
:1024A000048101F00882FF2917F8018FF0D1D4F8D8
:1024B000083184F8FF90D4F80C2120469847D4F8CE
:1024C00020310133C4F8203101210023E2E7C44F59
:1024D000D0F8001107F1150A4FF000090AE00B4689
:1024E00001315745C4F8001104F8038084F80481D1
:1024F00001F0EC80FF2917F8018FF0D1D4F80831F2
:1025000084F8FF90D4F80C2120469847D4F8203165
:102510000133C4F8203101210023E2E7B14FD0F8A4
:10252000001107F1190A4FF000090AE00B460131CA
:102530005745C4F8001104F8038084F8048101F0C1
:10254000B480FF2917F8018FF0D1D4F8083184F84E
:10255000FF90D4F80C2120469847D4F8203101335D
:10256000C4F8203101210023E2E79F4FD0F8001189
:1025700007F1160A4FF000090AE00B4601315745F2
:10258000C4F8001104F8038084F8048101F0D780B6
:10259000FF2917F8018FF0D1D4F8083184F8FF90A3
:1025A000D4F80C2120469847D4F820310133C4F8E0
:1025B000203101210023E2E78C4FD0F8001107F110
:1025C000130A4FF000090AE00B4601315745C4F8E1
:1025D000001104F8038084F8048101F0A980FF2928
:1025E00017F8018FF0D1D4F8083184F8FF90D4F8AF
:1025F0000C2120469847D4F820310133C4F820310B
:1026000001210023E2E77A4FD0F8001107F10F0A09
:102610004FF000090AE00B4601315745C4F800119C
:1026200004F8038084F8048101F09080FF2917F8F2
:10263000018FF0D1D4F8083184F8FF90D4F80C2140
:1026400020469847D4F820310133C4F820310121C5
:102650000023E2E7674FD0F8001107F11A0A4FF0A4
:1026600000090AE00B4601315745C4F8001104F88F
:10267000038084F8048101F01180FF2917F8018F8D
:10268000F0D1D4F8083184F8FF90D4F80C2120461A
:102690009847D4F820310133C4F8203101210023B8
:1026A000E2E7554FD0F8001107F1110A4FF0000989
:1026B0000AE00B4601315745C4F8001104F80380C5
:1026C00084F8048101F0A580FF2917F8018FF0D16B
:1026D000D4F8083184F8FF90D4F80C2120469847AC
:1026E000D4F820310133C4F8203101210023E2E77E
:1026F000424FD0F8001107F1150A4FF000090AE027
:102700000B4601315745C4F8001104F8038084F8E2
:10271000048101F07780FF2917F8018FF0D1D4F8F8
:10272000083184F8FF90D4F80C2120469847D4F85B
:1027300020310133C4F8203101210023E2E7304F7A
:10274000D0F8001107F1100A4FF000090AE00B461B
:1027500001315745C4F8001104F8038084F804815E
:1027600001F04980FF2917F8018FF0D1D4F8083122
:1027700084F8FF90D4F80C2120469847D4F82031F3
:102780000133C4F8203101210023E2E71D4FD0F8C6
:10279000001107F1120A4FF000090AE00B4601315F
:1027A0005745C4F8001104F8038084F8048101F04F
:1027B0001B80FF2917F8018FF0D1D4F8083184F875
:1027C000FF90D4F80C2120469847D4F820310133EB
:1027D000C4F8203101210023E2E700BF1F0E0408E6
:1027E000070E0408EB0D0408D30D0408BF0D040800
:1027F000AF0D0408930D04087F0D04087B0D040839
:10280000670D0408530D0408C94FD0F8001107F1F3
:102810000D0A4FF000090AE00B4601315745C4F894
:10282000001104F8038084F8048100F0CF87FF29A9
:1028300017F8018FF0D1D4F8083184F8FF90D4F85C
:102840000C2120469847D4F820310133C4F82031B8
:1028500001210023E2E7B74FD0F8001107F1180A71
:102860004FF000090AE00B4601315745C4F800114A
:1028700004F8038084F8048100F07D87FF2917F8AD
:10288000018FF0D1D4F8083184F8FF90D4F80C21EE
:1028900020469847D4F820310133C4F82031012173
:1028A0000023E2E7A44FD0F8001107F1080A4FF027
:1028B00000090AE00B4601315745C4F8001104F83D
:1028C000038084F8048100F04F87FF2917F8018FF7
:1028D000F0D1D4F8083184F8FF90D4F80C212046C8
:1028E0009847D4F820310133C4F820310121002366
:1028F000E2E7924FD0F8001107F10B0A4FF0000900
:102900000AE00B4601315745C4F8001104F8038072
:1029100084F8048100F02187FF2917F8018FF0D196
:10292000D4F8083184F8FF90D4F80C212046984759
:10293000D4F820310133C4F8203101210023E2E72B
:10294000D0F80011FF2901F0C4824A1C7E23C4F88C
:102950000021635484F804313146AA68204601F00E
:1029600071FF4DE53146926801F06CFF48E50022A9
:10297000D0F81431C0F814216F680293002F01F0D1
:10298000038506A9D0F810A10191904694460B4604
:1029900039781A60A1F11C000428C4F814315F6072
:1029A000C3F808C0C3F80CA01A4608F1010803F1E7
:1029B000100340F24C86042901F0338602293DD1F0
:1029C000D7F808B09BF80030452B08BFDBF804B0FF
:1029D0009BF800301C3B042B30D8B8F1040F01F0F9
:1029E0007986019A234602EB081C294632465D4649
:1029F000564664468B469246994603E0B8F1040F6A
:102A000001F067861CE90F0084E80F00A4F11003B1
:102A1000236000230CE94800C9F814414CF80C5C11
:102A20006D682B781C3B042B08F101080CF1100C8D
:102A300004F11004E2D94C4656465D46AA68204689
:102A4000314601F0FFFE3B78042B04BF049BC4F821
:102A50001031B8F1000F0FD0019A474602EB08156C
:102A60004FF02009B04655F8086C013F002E01F0E8
:102A70007784103D002FF6D10299C4F81411BFE4F9
:102A80003146526801F0DEFE16F0040940F0EC8594
:102A90002B4FD4F8001107F1020A0AE00B4601316E
:102AA0005745C4F8001104F8038084F8048100F04D
:102AB000E785FF2917F8018FF0D1D4F8083184F8A1
:102AC000FF90D4F80C2120469847D4F820310133E8
:102AD000C4F8203101210023E2E71A4F5268314641
:102AE00001F0B0FE07F1050AD4F800114FF000091B
:102AF0000AE00B4601315745C4F8001104F8038081
:102B000084F8048100F0B287FF2917F8018FF0D113
:102B1000D4F8083184F8FF90D4F80C212046984767
:102B2000D4F820310133C4F8203101210023E2E739
:102B3000430D04081F0D0408130D0408070D0408B5
:102B4000DF0C0408D70C04085168FDF729FE0028A3
:102B500001F06F854FF0000803782F2B40F0CA87F3
:102B60004368002B00F0C687806808F10108002840
:102B7000F2D16D680195002708F1FF33DFF8CCA38F
:102B80000293B946C4F81C7120463146019A01F0FF
:102B900059FE029BBB4228DDD4F80011DFF8B0B328
:102BA00009E00B46D34501F10101C4F80011E554D9
:102BB00084F8045119D0FF291BF8015FF1D1D4F832
:102BC000083184F8FF90D4F80C2120469847D4F8B7
:102BD00020310133C4F8203100230121D345C4F84A
:102BE0000011E55484F80451E5D101374745C9D1B6
:102BF00006E4D04FD0F8001107F11A0A4FF000098F
:102C00000AE00B4601315745C4F8001104F803806F
:102C100084F8048100F00486FF2917F8018FF0D1B1
:102C2000D4F8083184F8FF90D4F80C212046984756
:102C3000D4F820310133C4F8203101210023E2E728
:102C400016F0040641F0AE819768D2F80490002F88
:102C50003FF4D6ABD0F80011B0460AE00B46013184
:102C60000136B742C4F80011E55484F804513FF42A
:102C7000C7ABFF2919F80650F0D1D4F8083184F811
:102C8000FF80D4F80C2120469847D4F82031013336
:102C9000C4F8203101210023E2E7A74F52683146F2
:102CA00001F0D0FD07F1080AD4F800114FF0000937
:102CB0000AE00B4601315745C4F8001104F80380BF
:102CC00084F8048100F0E586FF2917F8018FF0D120
:102CD000D4F8083184F8FF90D4F80C2120469847A6
:102CE000D4F820310133C4F8203101210023E2E778
:102CF000111DFDF733FD002801F0138003782F2B01
:102D000001F00280D4F810512B68C4F8103102464B
:102D10003146204601F096FDC4F81051FFF770BB14
:102D20000023D0F81481C0F814315768720705D514
:102D30003B781BB9BA68062A01F0BB833A462046A5
:102D4000314601F07FFD94F804313C2B01F02F83D4
:102D5000D4F80031FF2B01F02A82591C3C22C4F820
:102D60000011E25484F804213146AA68204601F09B
:102D700069FD94F804313E2B01F00B83D4F8003147
:102D8000FF2B01F00182591C3E22C4F80011E254CD
:102D900084F80421C4F81481FFF732BB0123C0F882
:102DA0001831FFF72DBBD2F8088098F80030372B88
:102DB00000F05D870123C4F81831FFF721BB576885
:102DC00095683B78312B01F00380332B01F046806E
:102DD0003A46314602F098FB204631462A4602F038
:102DE000CDFBFFF70DBB3146526802F08DFBFFF7BC
:102DF00007BB5768002F40F0D486504DD0F8001123
:102E000005F1040809E00B4601314545C4F80011FD
:102E1000E65484F804613FF4F3AAFF2915F8016F22
:102E2000F1D1D4F8083184F8FF70D4F80C21204691
:102E30009847D4F820310133C4F820310121002310
:102E4000E3E73F4FD0F8001107F10A0A4FF00009FD
:102E50000AE00B4601315745C4F8001104F803801D
:102E600084F8048100F0E885FF2917F8018FF0D17C
:102E7000D4F8083184F8FF90D4F80C212046984704
:102E8000D4F820310133C4F8203101210023E2E7D6
:102E900052682C4906A82FF005FD06A80CF040F951
:102EA00000283FF4ADAA0DF11705D4F800112F1832
:102EB0004FF0000809E00B460131BD42C4F8001193
:102EC000E65484F804613FF49BAAFF2915F8016FCA
:102ED000F1D1D4F8083184F8FF80D4F80C212046D1
:102EE0009847D4F820310133C4F820310121002360
:102EF000E3E7D0F800111579FF2901F0AE804B1CF3
:102F0000C4F80031655484F80451FFF779BA3146AA
:102F1000526801F097FC20463146AA6801F092FC05
:102F2000FFF76EBA084FD0F8001107F10E0A4FF004
:102F300000091AE0330E0408470F0408D70E0408EE
:102F4000C70E0408F40C0408B70E0408690E040840
:102F5000670E04080B4601315745C4F8001104F808
:102F6000038084F8048100F06085FF2917F8018F41
:102F7000F0D1D4F8083184F8FF90D4F80C21204621
:102F80009847D4F820310133C4F8203101210023BF
:102F9000E2E752681178272940F0B4855268177C1F
:102FA0005FB1062F41F27881072F06D1AA68117808
:102FB00019B99168012901F0AD83D4F80011FF29F6
:102FC00001F050814A1C2823C4F80021635484F87E
:102FD00004316A682046314601F034FCD4F80031EF
:102FE000FF2B01F01C81591C2922C4F80011E25466
:102FF00084F804212B783C2B01F00682082F01F085
:10300000E48120463146AA6801F01CFCFFF7F8B9BC
:103010000123C0F81831FFF7F3B993681A78392AF9
:103020007FF4C8AE9F683A783A2A7FF4C3AED5F8E9
:1030300004A0BA49DAF80420D3F804801068D7F85D
:103040000490BD680CF02EF9002801F09082204613
:10305000B349FFF72DF9D8F8043043B12046314683
:10306000424602F08BFA20462021FDF75BFA4A46E1
:103070002046314601F0E6FB002D3FF4C1A9204671
:1030800031462A4602F07AFAFFF7BAB9526812B10D
:10309000314601F0D7FBAB68002B3FF4B1A9D4F85F
:1030A0000071FD2F00F2F986DFF888824FF0000AE8
:1030B00008F1020B394609E00B460131D845C4F846
:1030C0000011E75484F8047100F0FD84FF2918F81A
:1030D000017FF1D1D4F8083184F8FFA0D4F80C2195
:1030E00020469847D4F820310133C4F8203101211B
:1030F0000023E3E7B2F90A30002B40F029866A6822
:10310000884953688B4200F0FB853146204601F028
:1031100099FBD4F80031FF2B01F0F480591C2022D8
:10312000C4F80011E25484F80421B5F90830002BEA
:1031300000F0EB847C4D4FF00008AF1D09E00B461A
:103140000131BD42C4F80011E65484F804613FF433
:1031500057A9FF2915F8016FF1D1D4F8083184F887
:10316000FF80D4F80C2120469847D4F82031013351
:10317000C4F8203101210023E3E716ABD0F8142175
:1031800043F8402DC0F81431AA68D0F810310993E3
:10319000002731460795089701F054FB089B23B997
:1031A00031462A46204601F059FB069BC4F81431EB
:1031B000FFF726B9D0F814B1D0F81031CDF808B027
:1031C00016A9002241F840BD0993029B0191C0F865
:1031D000141107950892002B01F01D835B681B7882
:1031E000193B022B01F21783AB464FF00108029FF7
:1031F00003968A460D4604E07B681B78193B022B38
:103200001DD84FEA081C0DF15809BB68E144A9F12B
:1032100040068BB9B8F1030F00F2DC8797E80F0086
:1032200086E80F0049F8405C01210AEB0C05C4F860
:10323000145108F10108B9603F68002FDCD1039EEA
:10324000DBF808202046314601F0FCFA089B029A80
:10325000C4F814215D46002B7FF4D2A8B8F1010F09
:1032600001F03981019B03EB081757F80C2C08F18A
:10327000FF382046314601F0F1FAB8F1010FA7F10D
:103280001007F2D1D4F81431204631462A1D01F03E
:10329000BBFEFFF7B5B8B30600F1488553681BB114
:1032A00016F0400300F09B8726F06006204631466A
:1032B00005F10802D4F8143101F076FFFFF7A0B849
:1032C0001A4ED0F8001106F10E094FF0000809E07F
:1032D0000B4601314E45C4F80011E75484F80471DF
:1032E00000F0F782FF2916F8017FF1D1D4F80831F8
:1032F00084F8FF80D4F80C2120469847D4F8203178
:103300000133C4F8203101210023E3E7084FD0F84E
:10331000001107F1160A4FF0000918E0D40C040858
:10332000940E040880E60308570E0408370F0408BB
:10333000370E0408670E04080B4601315745C4F8E0
:10334000001104F8038084F8048100F0BB82FF2997
:1033500017F8018FF0D1D4F8083184F8FF90D4F831
:103360000C2120469847D4F820310133C4F820318D
:1033700001210023E2E7D04FD0F8001107F11C0A29
:103380004FF000090AE00B4601315745C4F800111F
:1033900004F8038084F8048100F06183FF2917F8A2
:1033A000018FF0D1D4F8083184F8FF90D4F80C21C3
:1033B00020469847D4F820310133C4F82031012148
:1033C0000023E2E7BD4FD0F8001107F1080A4FF0E3
:1033D00000090AE00B4601315745C4F8001104F812
:1033E000038084F8048100F0B182FF2917F8018F6F
:1033F000F0D1D4F8083184F8FF90D4F80C2120469D
:103400009847D4F820310133C4F82031012100233A
:10341000E2E7AB4FD0F8001107F11D0A4FF00009A9
:103420000AE00B4601315745C4F8001104F8038047
:1034300084F8048100F04083FF2917F8018FF0D150
:10344000D4F8083184F8FF90D4F80C21204698472E
:10345000D4F820310133C4F8203101210023E2E700
:10346000984FD0F8001107F1090A4FF000090AE05F
:103470000B4601315745C4F8001104F8038084F865
:10348000048100F0D481FF2917F8018FF0D1D4F81E
:10349000083184F8FF90D4F80C2120469847D4F8DE
:1034A00020310133C4F8203101210023E2E716F076
:1034B0000406536840F04B835F68D3F80090002FF8
:1034C0003EF49EAFD0F80011B0460AE00B46013141
:1034D0000136B742C4F80011E55484F804513EF4B3
:1034E0008FAFFF2919F80650F0D1D4F8083184F8CD
:1034F000FF80D4F80C2120469847D4F820310133BE
:10350000C4F8203101210023E2E750680378052B3D
:1035100000F00B87232B00F0A5832A789A4200F055
:10352000A183242B7EF450AF16ABD4F8141142685B
:1035300043F8401D0020D4F810110795C4F8143149
:1035400008900991002A7EF44DAFFEF74ABF31463C
:10355000526801F077F9FEF753BF57685A4DD7F814
:103560000890D0F8001105F1080A4FF0000809E0B2
:103570000B4601315545C4F80011E65484F8046146
:1035800000F06381FF2915F8016FF1D1D4F80831FB
:1035900084F8FF80D4F80C2120469847D4F82031D5
:1035A0000133C4F8203101210023E3E7454FD0F86F
:1035B000001107F1090A4FF000090AE00B4601313A
:1035C0005745C4F8001104F8038084F8048100F022
:1035D0003581FF2917F8018FF0D1D4F8083184F82C
:1035E000FF90D4F80C2120469847D4F820310133BD
:1035F000C4F8203101210023E2E75268AF6812B11C
:10360000314601F01FF9D4F80031FF2B00F084841B
:103610005A1C7B25C4F800213146E5543A46204621
:1036200084F8045101F00EF9D4F80011FF2900F0DC
:1036300061844A1C7D23C4F80021635484F804315A
:10364000FEF7DEBE0123C0F81831FEF7D9BE7F6851
:10365000002F00F09986B8F1040F7FF499A9012397
:10366000C4F81831FEF7CCBED4F80011FF2900F0E1
:103670000E874A1C2E23C4F80021635484F80431B9
:10368000D5F8088098F80030452B00F0C18420461A
:103690003146424601F0D6F8FEF7B2BE204631462A
:1036A0006A6801F0CFF8FEF7ABBE204631466A6883
:1036B00001F0C8F8FEF7A4BE070F0408270F04089E
:1036C000E70E0408770E04086B0E0408BD4FAA68C5
:1036D0003146204601F0B6F807F1050AD4F800118A
:1036E0004FF0000909E00B4601315745C4F80011BD
:1036F00004F8038084F8048113D0FF2917F8018FA0
:10370000F1D1D4F8083184F8FF90D4F80C21204688
:103710009847D4F820310133C4F820310121002327
:10372000E3E7204631466A6801F08CF8FEF768BE90
:10373000204631466A6801F085F8FEF761BE2046F2
:1037400031466A6801F07EF8FEF75ABE20463146DF
:103750006A6801F077F8FEF753BE204631466A6882
:1037600001F070F8FEF74CBE204631466A6801F061
:1037700069F8FEF745BE944F6A683146204601F06D
:1037800061F807F1040AD4F800114FF0000909E0CC
:103790000B4601315745C4F8001104F8038084F842
:1037A00004811AD0FF2917F8018FF1D1D4F808311C
:1037B00084F8FF90D4F80C2120469847D4F82031A3
:1037C0000133C4F8203101210023E3E720463146CC
:1037D0006A6801F037F8FEF713BE20463146AA6842
:1037E00001F030F8FEF70CBE204631466A6801F061
:1037F00029F8FEF705BE204631466A6801F022F836
:10380000FEF7FEBD204631466A6801F01BF8FEF760
:10381000F7BD204631466A6801F014F8FEF7F0BDA6
:10382000204631466A6801F00DF8FEF7E9BD2046F2
:1038300031462A1D01F0A4FDFEF7E2BD20463146C7
:10384000AA6800F0FFFFFEF7DBBD7D682B78613BC7
:10385000192B40F2A48205EB090313F8013C202B3D
:103860000CBF09F1FF374F46002F3EF4C9ADD4F825
:1038700000112F444FF0000809E00B460131BD4212
:10388000C4F80011E65484F804613EF4B9ADFF2990
:1038900015F8016BF1D1D4F8083184F8FF80D4F821
:1038A0000C2120469847D4F820310133C4F8203148
:1038B00001210023E3E7204631466A6800F0C2FF99
:1038C000FEF79EBD204631466A6800F0BBFFFEF75A
:1038D00097BD6A683D49013206A82EF0E3FF06A8AD
:1038E0000BF01EFC20B30DF11705D4F800112F18B2
:1038F0004FF0000808E00B460131BD42C4F800114A
:10390000E65484F8046115D0FF2915F8016FF2D14F
:10391000D4F8083184F8FF80D4F80C212046984769
:10392000D4F820310133C4F8203101210023E4E729
:10393000D4F80011FF2900F002834A1C7D23C4F84B
:103940000021635484F80431FEF75ABD3146204EFD
:103950006A68204600F076FF06F10209D4F80011EB
:103960004FF0000808E00B4601314E45C4F8001145
:10397000E75484F8047113D0FF2916F8017FF2D1BF
:10398000D4F8083184F8FF80D4F80C2120469847F9
:10399000D4F820310133C4F8203101210023E4E7B9
:1039A000AA680A49013206A82EF07CFF06A80BF08F
:1039B000B7FB60B30DF11705D4F800112F184FF0C5
:1039C000000810E0FF0D04083B0D0408F40C040887
:1039D000330F04080B460131BD42C4F80011E65410
:1039E00084F8046115D0FF2915F8016FF2D1D4F8DD
:1039F000083184F8FF80D4F80C2120469847D4F889
:103A000020310133C4F8203101210023E4E7D4F848
:103A10000011FF2900F032834A1C7D23C4F80021E5
:103A2000635484F80431FEF7EBBC204631466A68E3
:103A300000F008FFFEF7E4BC31466A68204600F05B
:103A400001FFD4F80011FF2900F08A824A1C2923C3
:103A5000C4F80021635484F80431FEF7D1BC204639
:103A600031466A6800F0EEFEFEF7CABC3146AA682D
:103A7000204600F0E7FED4F80011FF2900F00F8384
:103A80004A1C5D23C4F80021635484F80431FEF716
:103A9000B7BC3146AA68204600F0D4FED4F8001125
:103AA000FF2900F06E824A1C5D23C4F80021635494
:103AB00084F80431FEF7A4BC204631466A6800F061
:103AC000C1FEFEF79DBCAA68D4F820510F462046DF
:103AD000314600F0B7FED4F820319D427EF490AC20
:103AE000D4F80031BB427EF48BAC023FC4F80071C5
:103AF000FEF786BC6D680195B8F1000F7FF43BA816
:103B0000FEF77EBC0027FFF758BAAB4D9846AF1DB5
:103B100009E00B460131BD42C4F80011E65484F8B7
:103B200004613EF46DACFF2915F8016FF1D1D4F8B2
:103B3000083184F8FF80D4F80C2120469847D4F847
:103B400020310133C4F8203101210023E3E7DF688D
:103B5000D3F80890002F3EF453AC0025D0F80011A4
:103B6000A8460AE00B4601310135AF42C4F8001106
:103B7000E65484F804613EF443ACFF2919F805606B
:103B8000F0D1D4F8083184F8FF80D4F80C21204615
:103B90009847D4F820310133C4F8203101210023A3
:103BA000E2E7864DD0F8001105F106094FF0000854
:103BB00008E00B4601314D45C4F80011E65484F885
:103BC000046113D0FF2915F8016FF2D1D4F8083140
:103BD00084F8FF80D4F80C2120469847D4F820318F
:103BE0000133C4F8203101210023E4E73A4606A856
:103BF00073492EF057FE06A80BF092FA20B30DF190
:103C00001705D4F800112F184FF0000808E00B46F4
:103C10000131BD42C4F80011E65484F8046115D0A6
:103C2000FF2915F8016FF2D1D4F8083184F8FF802C
:103C3000D4F80C2120469847D4F820310133C4F839
:103C4000203101210023E4E7D4F80011FF2900F01E
:103C500045844A1C7D23C4F80021635484F8043150
:103C6000FEF7CEBB0546D4F81421FEF7AFBB526871
:103C7000536819684878632800F0E2831178312985
:103C800000F04E8453684F4918680BF00BFBD8F8CE
:103C9000042018B91378032B00F05B8420463146CA
:103CA00001F06CFCD5F804804749D8F804301F684F
:103CB00038460BF0F7FA002800F0228438464149D4
:103CC0000BF0F0FA002840F03D84AB6831469A686A
:103CD000204601F053FC6B681A78312A7EF490ABD1
:103CE0005B689A68012A7EF48BAB5B681B783E2B7D
:103CF0007EF486AB20462921FCF714FCFEF780BB3E
:103D0000D4F80011FFF711BAD4F81C3102E00278A0
:103D10002F2A06D1002B40F376858068013B0028CE
:103D2000F5D10123C4F81831FEF76ABB26F060060E
:103D300008323146D4F8143101F036FA6A68002AA4
:103D40003EF45EAB2046314600F07CFDFEF758BBEA
:103D50001E4FD0F8001107F1050A4FF000090AE0E4
:103D60000B4601315745C4F8001104F8038084F86C
:103D700004813FF4C4A9FF2917F8018FF0D1D4F8CA
:103D8000083184F8FF90D4F80C2120469847D4F8E5
:103D900020310133C4F8203101210023E2E7FF295B
:103DA00000F021844A1C2023C4F80021635484F8C5
:103DB00004317D684FE500BF5F0E0408DF0E040884
:103DC000F40C0408C80C04088C0E04084F0E0408F8
:103DD0007B68C549D3F8008040460BF063FA2B7826
:103DE00010B9032B00F01184372B00F087843A467A
:103DF0002046314601F088FBB8F1000F3EF4ECAFED
:103E00004046BA490BF04EFA002800F03E82404688
:103E1000B7490BF047FA074600287EF4DDAFD4F827
:103E20000031FF2B00F02184581C2827C4F8000122
:103E30003146E7542A46204684F8047100F002FD1A
:103E4000D4F80011FF2900F0FF8329234A1CC4F88D
:103E50000021635484F80431FEF7D2BAD0F800117F
:103E6000FF2900F0AF834A1C2823C4F80021204614
:103E700063543A1D314684F8043101F081FAD4F8D4
:103E80000011FF2900F08D834A1C2923C4F800216A
:103E9000635484F80431FEF79FBF4FF0000804F824
:103EA00007803946D4F80831D4F80C2120469847C9
:103EB000D4F82031C4F8008101334746C4F82031DA
:103EC000FFF7F2B8204631466A6800F0BBFCFEF707
:103ED00097BA0027D0F80831D0F80C2180F8FF708D
:103EE0009847D4F8203101333946C4F820310122F3
:103EF000FEF72CBD0025D4F80831D4F80C2184F845
:103F0000FF5020469847D4F8203101332946C4F8A1
:103F100020310122FFF78EBB00251946D4F80C2171
:103F2000D4F8083184F8FF5020469847D4F820315F
:103F30005A1CC4F820212B460122FFF76ABB00253A
:103F4000D4F80831D4F80C2184F8FF502046984763
:103F5000D4F8203101332946C4F820310122EDE4A0
:103F60000025D4F80831D4F80C2184F8FF502046FD
:103F70009847D4F8203101332946C4F82031012272
:103F800065E50025D4F80831D4F80C2184F8FF50F9
:103F900020469847D4F8203101332946C4F820310F
:103FA000012281E5566897683744BE42BEF428AACC
:103FB0004FF000080DE0D4F80011FF2918D04B1C79
:103FC000C4F80031655484F804510136B7427EF6D6
:103FD00017AABB1B032B3578EDDD5F2DEBD1727873
:103FE0005F2AE8D1B378552B00F050831546E2E7FD
:103FF000D4F8083184F8FF80D4F80C212046984783
:10400000D4F820310133C4F8203100210123D7E74F
:10401000384DD4F8001105F10D0A4FF0000908E001
:104020000B4601315545C4F80011E75484F804717A
:1040300046D0FF2915F8017FF2D1D4F8083184F871
:10404000FF90D4F80C2120469847D4F82031013352
:10405000C4F8203101210023E4E70026D0F808311C
:1040600080F8FF60D0F80C219847D4F82031013354
:10407000C4F8203131460123FEF742BF0025D4F8B1
:104080000831D4F80C2184F8FF5020469847D4F822
:10409000203101332946C4F820310122BDE4002536
:1040A000D4F80831D4F80C2184F8FF502046984702
:1040B000D4F8203101332946C4F820310122E0E44C
:1040C000D8F808200C49013206A82EF0EBFB06A810
:1040D0000BF026F878B30DF11705D4F8001105EBB5
:1040E000000A4FF0000912E0840E0408880E04084C
:1040F00070110408E30C0408F40C04080B460131A9
:104100005545C4F80011E75484F8047115D0FF290F
:1041100015F8017FF2D1D4F8083184F8FF90D4F873
:104120000C2120469847D4F820310133C4F82031BF
:1041300001210023E4E7D4F80011BD4D4FF0000940
:1041400005F1030A08E00B4601315545C4F800119A
:10415000E75484F8047113D0FF2915F8017FF2D1D8
:10416000D4F8083184F8FF90D4F80C212046984701
:10417000D4F820310133C4F8203101210023E4E7D1
:10418000D8F80480FFF783BA00251946D4F80C212B
:10419000D4F8083184F8FF5020469847D4F82031ED
:1041A0005A1CC4F820212B460121FEF7EDBD002743
:1041B0001946D4F80C21D4F8083184F8FF70204651
:1041C0009847D4F820315A1CC4F820213B460121DD
:1041D000FEF7C4BD0123C4F81831FEF711B916AAC1
:1041E000D4F8141142F8401D26F06006C4F81421DA
:1041F0006A68D4F8107108933146204607950997EC
:1042000000F020FB089B069AC4F81421002B7EF4D2
:10421000F7A820462021FCF785F9FFF747B80022D0
:10422000194684F8FF20D4F80831D4F80C21204630
:1042300098472923237084F804312A78D4F8203150
:10424000012101333C2AC4F82031C4F800117EF466
:10425000D5AE2D234A1CC4F80021635484F80431E0
:10426000FEF7CCBE4FF00008D4F80831D4F80C218A
:1042700084F8FF8020469847D4F820310133414626
:10428000C4F820310122FEF79EBE204631462A4660
:1042900000F0D8FAFEF7B4B8D5F8088098F80020F6
:1042A000002A7EF48AAE3C2B00F0908231464246D2
:1042B0002046023F00F0C6FA042F3EF6A1A8DFE830
:1042C00007F01B150F09030020465A49FDF7F0FFC0
:1042D000FEF796B820465849FDF7EAFFFEF790B87A
:1042E00020465649FDF7E4FFFEF78AB820466C21C8
:1042F000FCF718F9FEF784B820467521FCF712F98F
:10430000FEF77EB800261946D4F80C21D4F80831FF
:1043100084F8FF6020469847D4F820315A1CC4F82E
:10432000202133460121FEF7FABE011D2046FCF78D
:1043300015FA80B103782F2B7FF4ECA8D4F81C3148
:1043400005E08068013B30B102782F2A03D1002BB1
:10435000F7DC00F051820123C4F81831FEF750B8A1
:10436000D4F80011FF2900F0BA814B1CC4F80031C9
:10437000204604F8019055F80C2C84F8049141462D
:1043800000F06CFAFEF775BB0123C4F81831FEF794
:1043900037B8D4F80011FF2900F0DC8120224B1C33
:1043A000C4F80031625484F80421FEF7E9BCD4F863
:1043B0000011FF2900F0EA8120224B1CC4F80031D3
:1043C000625484F80421FEF7C5BCD4F80011FF291B
:1043D00000F0EC814A1C5B23C4F80021635484F88C
:1043E00004313146AA68204600F02CFAD4F80011B6
:1043F000FF2900F09F815D234A1CC4F8002163540B
:1044000084F80431FDF7FCBFFF297FF422AF4FF0A1
:104410000008D4F8083184F8FF80D4F80C21204635
:104420009847D4F8203101334146C4F8203110E7D1
:10443000F70C0408A40E0408A00E04089C0E04083F
:104440000978A1F16300012803D9723901293FF6E7
:1044500015AC2046314601F057F820463C21FCF7C8
:1044600061F8AB6820465A68314600F0EBF9204607
:10447000C049FDF71DFFAB68314620469A6800F041
:10448000E1F920462921FCF74DF8FDF7B9BF0027D7
:10449000D4F80831D4F80C2184F8FF7020469847EE
:1044A000D4F8203101333946C4F820310122FFF716
:1044B000E1B87868B0490AF02BFF00287EF43EACE2
:1044C00031462046AA6800F0BDF92046AB49FDF709
:1044D000EFFEFEF75FBC029BFEF7D6BE0025D4F8C8
:1044E0000831D4F80C2184F8FF5020469847D4F8BE
:1044F000203101332946C4F820310122FFF7AABB3D
:1045000020465B21FCF70EF8AB68314620469A68DE
:1045100000F098F920465D21FCF704F8FFF7DBBBBB
:10452000996801297FF4AEAB5B681B783E2B7FF462
:10453000A9AB20462821FBF7F5FF6A68D5F808806B
:10454000FFF7A0BB42462046314600F0DDFFFFF7F3
:10455000BCBB93681B78292B1CBF0123C4F81831FE
:1045600052682046314601F009F8FFF79BBB4246EE
:104570002046314601F002F820463146524600F00E
:10458000C3FF4A462046314600F0F8FF20467C49EA
:10459000FDF78EFE204631462A4600F0EFFFFDF77C
:1045A0002FBF0027D4F80831D4F80C2184F8FF700D
:1045B00020469847D4F8203101333946C4F82031D9
:1045C000012262E44FF00008D0F80831D0F80C2145
:1045D00080F8FF809847D4F8203101334146C4F871
:1045E0002031012240E40025D4F80831D4F80C2110
:1045F00084F8FF5020469847D4F8203101332946EB
:10460000C4F820310122FFF7CEBB6B681A78012A6B
:104610007FF4EDABAA681278292A08BF1D46FFF780
:10462000E6BB16AB059743F848ADC4F81031FEF76A
:1046300005BA314620466A6800F0A0FF204651497D
:10464000FDF736FEFDF7DCBE0025D4F8083184F80E
:10465000FF50D4F80C2120469847D4F8203101337C
:104660002946C4F82031FFF7F0BB84F8FF00194653
:10467000D4F80C21D4F8083120469847D4F82031DA
:104680005A1CC4F820213B46FFF7CEBBF31C9F42C7
:104690007FF6ACAC002104E01546BB4205EB0111EE
:1046A00015D09C4613F8015BA5F13002D0B2092861
:1046B000A5F14109F0D9B9F1050FA5F1610201D8C1
:1046C000373DEAE7052A00F28780573DE5E75F2599
:1046D00071E44C460123C4F81831FDF791BED4F8BB
:1046E000083184F8FF60D4F80C2120469847D4F8AC
:1046F000203101333146C4F8203136E66A6820465D
:10470000314600F03BFF204631463A4600F0FCFEC1
:10471000FDF776BE3B2B7EF450AC53681B78302BF4
:1047200000F08880312B7EF448AC1749FDF7C0FDBE
:10473000FDF766BE0025D4F8083184F8FF50D4F8A0
:104740000C2120469847D4F8203101332946C4F87B
:10475000203150E60025D4F8083184F8FF50D4F811
:104760000C2120469847D4F8203101332946C4F85B
:10477000203113E6540F0408FC0C0408040D04084F
:10478000900E0408D40E0408B00E04080027D4F8D4
:10479000083184F8FF70D4F80C2120469847D4F8EB
:1047A000203101333946C4F8203105E60027D4F81A
:1047B000083184F8FF70D4F80C2120469847D4F8CB
:1047C000203101333946C4F8203103E62D21FBF7AF
:1047D000A9FED5F8088069E567457FF678AF5F2DBB
:1047E0007FF475AFFF293FF6E6ABC9B220466646B7
:1047F000FBF798FEFFF7E9BB406800283FF4ABAD3C
:104800000378FEF787BE7FF48CAA406800287EF408
:1048100079AAFFF786BA31462046AA6800F012F856
:10482000089B0299C4F81411002B7DF4E9AD0B46E6
:10483000FEF72ABD0249FDF73BFDFDF7E1BD00BFD4
:10484000A80E04082AB1D0F818310BB9FDF764BDE1
:1048500070470122C0F81821704700BF1378033B4E
:104860002DE9F0471546044689462A2B00F2D381EC
:10487000DFE813F05200D101D101D101D101D10102
:10488000D101D101D101D101D101D101D101D10198
:10489000D101D101D101D101D101D101D101D10188
:1048A0005D008300A9005D008300A900CE00E60042
:1048B0001D013201440147014A017001D101D101BA
:1048C000D101D1019501D1012B00D94ED0F8003191
:1048D00006F10A0A4FF0000809E01A46013356456E
:1048E000C4F80031A75484F8047100F0B981FF2B9B
:1048F00016F8017FF1D11946D4F80C21D4F808310B
:1049000084F8FF8020469847D4F820310133C4F85A
:10491000203100220123E2E76A68002A00F0D780F4
:10492000D4F81831002B00F0BA81BDE8F087C14DF2
:10493000D0F8001105F109074FF0000809E00B4617
:104940000131BD42C4F80011E65484F8046100F05E
:104950008381FF2915F8016FF1D1D4F8083184F86B
:10496000FF80D4F80C2120469847D4F82031013339
:10497000C4F8203101210023E3E7AF4DD0F8001146
:1049800005F109074FF0000809E00B460131BD426F
:10499000C4F80011E65484F8046100F05F81FF2937
:1049A00015F8016FF1D1D4F8083184F8FF80D4F8FC
:1049B0000C2120469847D4F820310133C4F8203127
:1049C00001210023E3E79D4DD0F80011AF1D4FF00A
:1049D000000809E00B460131BD42C4F80011E6545D
:1049E00084F8046100F02181FF2915F8016FF1D1ED
:1049F000D4F8083184F8FF80D4F80C212046984779
:104A0000D4F820310133C4F8203101210023E3E739
:104A1000D0F80031FF2B00F05981591C2022C4F836
:104A20000011E25484F80421FF2900F03E814A1C61
:104A30002623C4F80021635484F80431BDE8F087CC
:104A4000D0F80031FF2B00F06281591C2022C4F8FD
:104A50000011E25484F80421794D4FF00008AF1C96
:104A600009E00B46BD4201F10101C4F80011E65412
:104A700084F8046119D0FF2915F8016FF1D1D4F839
:104A8000083184F8FF80D4F80C2120469847D4F8E8
:104A900020310133C4F8203100230121BD42C4F884
:104AA0000011E65484F80461E5D1BDE8F087D0F840
:104AB0000011FF2900F01B814A1C2023C4F80021AB
:104AC000635484F80431AA68002A7FF429AF0123D3
:104AD000C4F81831BDE8F08711F004097FF425AF60
:104AE000D0F80011FF2900F04D814A1C2A23C4F898
:104AF0000021635484F80431BDE8F087D0F8001138
:104B000092E7D0F80011A7E74E4DD0F8001105F15B
:104B100008074FF0000809E00B460131BD42C4F818
:104B20000011E65484F8046100F09480FF2915F820
:104B3000016FF1D1D4F8083184F8FF80D4F80C214A
:104B400020469847D4F820310133C4F820310121A0
:104B50000023E3E73C4DD0F8001105F10A074FF0C0
:104B6000000808E00B460131BD42C4F80011E654CC
:104B700084F804616CD0FF2915F8016FF2D1D4F8E4
:104B8000083184F8FF80D4F80C2120469847D4F8E7
:104B900020310133C4F8203101210023E4E790F8EB
:104BA0000431282B0BD0D0F80011FF2900F0DA8057
:104BB0004A1C2023C4F80021635484F804316A6835
:104BC000002A00F0C780D4F81831002B62D01F4DA6
:104BD000D4F80011EF1C4FF0000808E00B4601313B
:104BE000BD42C4F80011E65484F8046149D0FF299D
:104BF00015F8016FF2D1D4F8083184F8FF80D4F8A9
:104C00000C2120469847D4F820310133C4F82031D4
:104C100001210023E4E7D0F81831002B7FF485AEA2
:104C20002A46BDE8F047FDF777BBBDE8F08700BF37
:104C3000970F0408570F0408630F04086F0F040848
:104C4000770F04087B0F0408870F0408930F0408EC
:104C5000BDE8F087BDE8F087BDE8F087BDE8F087E4
:104C60006A68002A7AD0D4F8181161B1FF2B5FD09E
:104C7000591C2922C4F80011E25484F80421BDE82B
:104C8000F087BDE8F08749462046FDF745FBD4F89C
:104C90000031EBE749462046FDF73EFB97E720460B
:104CA0004946BDE8F047FDF737BB0025D4F8083189
:104CB000D4F80C2184F8FF5020469847D4F82031CE
:104CC00001332946C4F820310122B1E600251946F6
:104CD000D0F80C21D0F8083180F8FF509847D4F86C
:104CE00020315A1CC4F820212B46012196E60026CB
:104CF000D0F80831D0F80C2180F8FF609847D4F83C
:104D0000203101333146C4F820310122D5E6002597
:104D10001946D0F80C21D0F8083180F8FF50984798
:104D2000D4F820315A1CC4F820212B4601218DE6ED
:104D300000251946D4F80C21D4F8083184F8FF5026
:104D400020469847D4F820315A1CC4F820212B461D
:104D500001218EE70123C4F8183138E70122C4F895
:104D6000182183E70026D0F80831D0F80C2180F80C
:104D7000FF609847D4F8203101333146C4F8203120
:104D8000012216E7D0F80831D0F80C2180F8FF9006
:104D90009847D4F8203101334946C4F82031012224
:104DA000A4E600BF2DE9F04F144689B005460F4632
:104DB0001E463AB3D0F8183123BB4FF0010802E089
:104DC000D5F81821F2B9A268CAB9626810781EB97C
:104DD000A0F11C03042B12D9E368C4F80880292829
:104DE000D5F81091C5F810310FD02A2818D0022814
:104DF00021D028463946FFF731FDC5F810912468C7
:104E0000002CDDD109B0BDE8F08F394608322368A7
:104E1000284600F0C9F9C5F8109109B0BDE8F08F37
:104E2000394604322368284600F0EEF8C5F81091A0
:104E300009B0BDE8F08F0026D5F81481C5F81461DB
:104E4000526828463946FFF7FDFCC5F8148117F073
:104E5000040823D1684ED5F8001106F1020B09E0D1
:104E60000B4601315E45C5F8001105F803A085F831
:104E700004A11ED0FF2916F801AFF1D1D5F80831F1
:104E800085F8FF80D5F80C2128469847D5F82031C1
:104E90000133C5F8203101210023E3E7D5F80011E3
:104EA000FF291BD04A1C2E23C5F800216B5485F81E
:104EB000043163689C682378452B02D11EE0646846
:104EC00023781C3B042BFAD9394622462846FFF7A3
:104ED000B9FCC5F8109109B0BDE8F08FD5F80831DC
:104EE000D5F80C2185F8FF6028469847D5F8203181
:104EF00001333146C5F820310122D4E73F4ED5F8C1
:104F0000001106F10D0A4FF0000B09E00B460131CC
:104F10005645C5F8001105F8038085F8048113D0C3
:104F2000FF2916F8018FF1D1D5F8083185F8FFB0C7
:104F3000D5F80C2128469847D5F820310133C5F81B
:104F4000203101210023E3E7A2682D49013201A8A5
:104F50002DF0A8FC01A80AF0E3F830B30DF1030628
:104F6000D5F8001106EB000A4FF0000B09E00B46E4
:104F700001315645C5F8001105F8038085F8048114
:104F800015D0FF2916F8018FF1D1D5F8083185F831
:104F9000FFB0D5F80C2128469847D5F820310133C9
:104FA000C5F8203101210023E3E7D5F80011154EA3
:104FB0004FF0000B06F1030A0AE00B46013156459B
:104FC000C5F8001105F8038085F804813FF477AF38
:104FD000FF2916F8018FF0D1D5F8083185F8FFB018
:104FE000D5F80C2128469847D5F820310133C5F86B
:104FF000203101210023E2E7DF0C0408E30C040860
:10500000F40C0408F70C04082DE9F84F99460546FE
:105010000F4690464BB1986880B31B68002BFAD1BD
:105020004A4628463946FFF7BDFED5F80031FF2B2A
:1050300069D0591C2022C5F80011EA5485F80421D2
:10504000FF2900F095804B1C5B22C5F800316A54A3
:1050500085F80421D8F800202AB139462846FFF700
:10506000F1FBD5F80031FF2B70D0591C5D22C5F83B
:105070000011EA5485F80421BDE8F88F5B681B78BD
:105080002A2B00F08680474ED5F8001106F1020A5F
:105090000AE00A46564501F10101C5F8001105F87C
:1050A00002B085F804B11CD0FF2916F801BFF0D179
:1050B0004FF00003D5F80C2185F8FF30D5F80841F2
:1050C0002846A047D5F820210132C5F8202100222A
:1050D00001215645C5F8001105F802B085F804B164
:1050E000E2D139464A4628460023FFF75BFED5F851
:1050F0000011FF2919D04B1C2922C5F800316A5430
:1051000085F8042193E700241946D5F80C21D5F839
:10511000083185F8FF4028469847D5F820315A1CB9
:10512000C5F820212346012184E70024D5F8083161
:1051300085F8FF40D5F80C2128469847D5F820314E
:105140000133C5F8203121460123D5E70024194653
:10515000D5F80C21D5F8083185F8FF402846984746
:10516000D5F820315A1CC5F82021234601217DE7BE
:105170000024D5F8083185F8FF40D5F80C212846E1
:105180009847D5F820310133C5F820312146012355
:105190005AE7034639464A462846FFF703FED5F844
:1051A00000114DE7CF0E04082DE9F0479A46074657
:1051B00088469146002B3BD09B68002B38D1544643
:1051C000012206E016F4606F7AD1246884B3A368E4
:1051D00073BB6068694D0678193EF6B2122EF4D89A
:1051E00002FA06F63540002DECD097F80431202B5A
:1051F0006CD0D7F80031FF2B00F0AD80591C202275
:10520000FF29C7F80011FA5487F8042162D100245D
:10521000D7F8083187F8FF40D7F80C21384698476F
:10522000D7F820310133C7F820312146012352E05D
:105230000023D7F81451C7F8143141463846524676
:10524000FFF7B0FDD7F80011FF2962D04B1C2822D0
:10525000C7F800317A5487F80421D9F8002012B138
:10526000D7F8181191B1FF2B18D05A1C2924C7F870
:1052700000214146FC545246384687F80441012338
:10528000FFF790FDC7F81451BDE8F0873846414656
:10529000FDF742F8D7F80031FF2BE6D1002419467C
:1052A000D7F80C21D7F8083187F8FF4038469847DF
:1052B000D7F820315A1CC7F8202123460122D5E710
:1052C00097F8043103F0FD02282A90D1D7F8001195
:1052D000FF299CD04B1C28220024C7F80031D7F8A6
:1052E00014517A54234687F80421C7F814415246D2
:1052F00038464146FFF756FDD7F80021FF2A19D05E
:10530000511C2923FF29C7F80011BB5487F8043129
:105310009CD10024D7F8083187F8FF40D7F80C213A
:1053200038469847D7F820310133C7F82031214655
:1053300001238CE71146D7F80831D7F80C2187F8FC
:10534000FF4038469847D7F8203101332246C7F846
:1053500020310121D5E700241946D7F80C21D7F8D0
:10536000083187F8FF4038469847D7F820315A1C53
:10537000C7F820212346012141E700BF073104007F
:105380002DE9F041154612681378042B82B00446CB
:105390000E4606D0D0F81831002B3DD002B0BDE843
:1053A000F08102ABD0F8107143F8087D0022C0F8FC
:1053B0001031D0F81481C0F814212B6801935A6879
:1053C000002A6FD0D0F81831002B3FD094F8043168
:1053D000C4F810713C2B69D0D4F80021FF2A4BD0BF
:1053E000531C3C21C4F80031A15484F804112A68EC
:1053F0009268002A52D0D4F8185195B1FF2B29D0C9
:10540000591C3E22C4F80011E25484F80421C4F867
:10541000148102B0BDE8F081FCF77EFF02B0BDE868
:10542000F08131462046FCF777FF94F80421D4F848
:1054300000313E2AE2D1FF2B44D01D460133202209
:10544000C4F80031625584F80421D7E7FCF764FF03
:10545000009FBBE700251946D4F80C21D4F8083189
:1054600084F8FF5020469847D4F820315A1CC4F8DD
:1054700020212B460121C4E700271146D4F808312A
:10548000D4F80C2184F8FF7020469847D4F82031D6
:105490000133C4F820313A460123A2E70122C4F8BF
:1054A0001821ABE70123C0F818318FE7D4F80011B9
:1054B000FF2917D04A1C2023C4F80021635484F824
:1054C00004318BE7194684F8FF50D4F80831D4F83A
:1054D0000C2120469847D4F820310133C4F82031FC
:1054E0000123ACE70027D4F80831D4F80C2184F864
:1054F000FF7020469847D4F8203101333946C4F86C
:1055000020310122D7E700BF2DE9F8431578312D6E
:10551000044608D0D0F818310BB1BDE8F883BDE8D7
:10552000F843FCF7F9BE53689F68D3F80490002F46
:10553000F3D00025D0F80011A84609E00B46013150
:105540000135AF42C4F80011E65484F8046113D069
:10555000FF2919F80560F1D1D4F8083184F8FF80EB
:10556000D4F80C2120469847D4F820310133C4F8F0
:10557000203101210023E3E7BDE8F883F8B5137873
:10558000012B15460F46044614D9302B12D0062B9A
:1055900010D0D0F80031FF2B34D0591C2822C4F889
:1055A0000011E254D4F8183184F80421002633B1F4
:1055B00066B1F8BDD4F818310126002BF8D1394670
:1055C0002A462046FCF7A8FE002EF2D1D4F800119E
:1055D000FF2907D04A1C2923C4F80021635484F80A
:1055E0000431F8BDD4F80831D4F80C2184F8FF60F8
:1055F00020469847D4F8203101333146C4F8203191
:105600000122E8E700261946D4F80C21D4F8083125
:1056100084F8FF609847D4F820315A1CC4F8202140
:1056200033460121BAE700BF2DE9F04FD7B0044659
:1056300005785F2D00AF0E46904672D020467C491B
:10564000082209F065FE78B9237A2E2B05D05F2B4E
:1056500003D0242B01D0814608E0637A442B00F06C
:10566000DF80492B00F098804FF00009204609F0B8
:1056700057FD420083009918890008310A33ADEBC9
:10568000010D23F00703EA4604EB000CADEB030D1C
:105690004FF0110B0023B9F1010FC7F810A0C7F8A4
:1056A0001CD0BA613C60FC607862C7F804C0C7F8DF
:1056B00008B07B613B62BB62FB623B6337D073D354
:1056C000B9F1030F70D8E27AB9F1020F04F10B05BA
:1056D00014BF4FF043094FF042095F2AFD6003D128
:1056E000227B5A2A00F09180284609F019FD2946AC
:1056F00002463846FAF798FD0246494600233846E6
:10570000FAF746FDFC688146204609F009FD23189A
:10571000FB60255C85B1002007F5AE77BD46BDE88E
:10572000F08F43785A2B89D14FF001099EE75F2D06
:1057300041D09946002DEED1B9F1000F63D007F1A9
:1057400034044A4620461121C7F8345187F83851AD
:10575000C7F84451C7F84851C7F85051C7F85451D9
:10576000C7F83C61C7F84081C7F84C51FCF7D4FD3D
:10577000D7F83411D7F83C31D7F84021655420468A
:105780009847D7F84C01D0F1010038BF002007F549
:10579000AE77BD46BDE8F08FA37A5F2B14BF4FF004
:1057A00000094FF0020961E73846FBF79FFAFB68F2
:1057B00081461D78AEE76578621C5A2DFA60B8D133
:1057C000494602343846FC60FBF776FEBB6813F0AE
:1057D000010FFB6881461D7812D19BE75B78A3F12E
:1057E0006102192A38464946A3F1300403D95F2BD8
:1057F00001D0092C11D8FAF7A7FDFB681D78814666
:105800002E2DEBD086E7484686E70D3419463846FC
:10581000FC60FBF751FE02466FE7FB681D7879E7F5
:10582000A37A5F2B0CBF4FF003094FF000091DE76F
:10583000840C04082DE9F0410D4684B017461E463D
:1058400000282ED009B1002A2BD000242949009429
:105850006A46019402940394FFF7E6FE00283ED0C6
:10586000039BDBB14FF00108009C44B3002D33D003
:10587000204609F055FC3B6898421AD2421C21464A
:10588000284609F0B5FC20462CF02EFA2C460EB323
:1058900000232046336004B0BDE8F081DDF80880C5
:1058A000E2E79EB16FF002030020336004B0BDE870
:1058B000F08128462CF018FAC7F80080E7E72EB1EF
:1058C000B8F1010F11D06FF001033360002004B074
:1058D000BDE8F0812046DEE7002FEDD1D7E7009844
:1058E0002CF002FA002EEED1F0E74FF0FF33204605
:1058F0003360D0E72908000808B540B139B1FFF797
:1059000093FE002814BF00206FF0010008BD6FF067
:10591000020008BD81F0004102E000BF83F00043B7
:1059200030B54FEA41044FEA430594EA050F08BF3A
:1059300090EA020F1FBF54EA000C55EA020C7FEAFE
:10594000645C7FEA655C00F0E2804FEA5454D4EB7B
:105950005555B8BF6D420CDD2C4480EA020281EA45
:10596000030382EA000083EA010180EA020281EA7D
:105970000303362D88BF30BD11F0004F4FEA0131CF
:105980004FF4801C4CEA113102D0404261EB4101DE
:1059900013F0004F4FEA03334CEA133302D0524264
:1059A00063EB430394EA050F00F0A780A4F1010420
:1059B000D5F1200E0DDB02FA0EFC22FA05F280185A
:1059C00041F1000103FA0EF2801843FA05F3594140
:1059D0000EE0A5F120050EF1200E012A03FA0EFCBF
:1059E00028BF4CF0020C43FA05F3C01851EBE371E9
:1059F00001F0004507D54FF0000EDCF1000C7EEB06
:105A000000006EEB0101B1F5801F1BD3B1F5001F43
:105A10000CD349085FEA30004FEA3C0C04F1010462
:105A20004FEA445212F5800F80F09A80BCF1004F8B
:105A300008BF5FEA500C50F1000041EB045141EA0D
:105A4000050130BD5FEA4C0C404141EB010111F40E
:105A5000801FA4F10104E9D191F0000F04BF0146B9
:105A60000020B1FA81F308BF2033A3F10B03B3F197
:105A700020020CDA0C3208DD02F1140CC2F10C0227
:105A800001FA0CF021FA02F10CE002F11402D8BF85
:105A9000C2F1200C01FA02F120FA0CFCDCBF41EA51
:105AA0000C019040E41AA2BF01EB0451294330BD20
:105AB0006FEA04041F3C1CDA0C340EDC04F11404FD
:105AC000C4F1200220FA04F001FA02F340EA0300D4
:105AD00021FA04F345EA030130BDC4F10C04C4F11A
